:020000040001F9
:10800000E83C0020158101002F8101003181010031
:108010000000000000000000000000000000000060
:10802000000000000000000000000000338101009B
:1080300000000000000000003581010037810100D0
:108040003981010039810100DDA901003981010078
:1080500039810100000000003191010039810100E7
:108060003DA701004DA701005DA701003981010076
:108070003981010039810100398101003981010014
:10808000A9AA010045A4010039810100398101003C
:1080900065A4010039810100B9A401003981010002
:1080A000398101003981010000000000000000005A
:1080B00000000000000000000000000000000000C0
:1080C0000348854600F0F2F800480047DDE901006A
:1080D000E83C0020401E00BF00BF00BF00BF00BF43
:1080E00000BF00BF00BF00BF00BF00BF00BFF1D195
:1080F00070470000401E00BF00BF00BF00BF00BFB0
:1081000000BF00BF00BF00BF00BF00BF00BFF1D174
:10811000704700000321094802680A4302600848CA
:1081200002680A4302600748804707480047FEE7A5
:10813000FEE7FEE7FEE7FEE7FEE70000240500405D
:1081400054050040E9A60100C180010030B50B468E
:10815000014600202022012409E00D46D5409D4221
:1081600005D31D469540491B2546954040191546A7
:10817000521E002DF1DC30BD70B5002425460028CC
:1081800001DA01244042002901DA01254942FFF7C2
:10819000DDFFAC4200D04042002C00D0494270BD0F
:1081A000F0B51FB486B000200090019002900698B0
:1081B000069980B204900798090C02040014114338
:1081C00007900027089D099806913E463C4603907B
:1081D0000398A9B20204000C039004982D0C1543D7
:1081E00048430021224600F050F8C719714110346D
:1081F0000E46402CECDB3846029A00F046F8009A16
:10820000019B801800905941029801911030029012
:108210004028CCDB00980BB0F0BD03460B439B0716
:1082200003D009E008C9121F08C0042AFAD203E0EB
:108230000B78491C0370401C521EF9D27047D2B211
:1082400001E00270401C491EFBD270470022F6E795
:1082500010B513460A4604461946FFF7F0FF2046BC
:1082600010BD421C0178401C0029FBD1801A7047C8
:1082700030B504460020034600E05B1C934203D265
:10828000E05CCD5C401BF8D030BD10B5202A04DB8B
:108290000146203A9140002010BD914020239C1AB5
:1082A0000346E3401943904010BD0000064C0125F1
:1082B000064E05E02046E36807C82B439847103474
:1082C000B442F7D3FFF700FF941F0200B41F02006F
:1082D00070B58C180578401C6B075B0F01D10378D3
:1082E000401C2A1106D10278401C03E00678401C8D
:1082F0000E70491C5B1EF9D12B0705D40023521EBA
:108300000DD40B70491CFAE70378401CCB1A921C61
:1083100003E01D785B1C0D70491C521EF9D5A1426B
:10832000D8D3002070BD70B504460D461646202CEB
:1083300051D37F2C4FD82B0002F0CAFB0649040F03
:108340001D2B3A4921462039C90001229204881880
:108350003246082107F0B2FC3AE021462039C90034
:108360000322120289180122920488183246082139
:1083700007F0A4FC2CE02146203909010322520217
:1083800089180122920488183246102107F096FCC1
:108390001EE02146203922225143032292028918ED
:1083A0000122920488183246222107F087FC0FE050
:1083B0002146203922225143632292018918012249
:1083C000920488183246222107F078FC00E000BFB2
:1083D00000BF012070BD0C213046FFF737FF0020A1
:1083E000F8E7000010B502F0C1F90149088010BD9E
:1083F0009021002000B52A498BB003C9099108904B
:108400001F226946002005F057FB68460078AA281D
:108410003AD168464078552836D16846C078002859
:1084200002D0FF2815D028E068460079002824D122
:1084300068464079002820D16846807900281CD100
:108440006846C079002818D16846007A00281BD0F9
:1084500013E068460079FF280FD168464079FF286D
:108460000BD168468079FF2807D16846C079FF287C
:1084700003D16846007AFF2806D000A908A8062282
:1084800003310130FFF7C9FE08A9002070DF002882
:1084900003D00022114602F085FE0BB000BD0000A3
:1084A000D017020070B516460C460546012901D0CA
:1084B000022C04D10C460C34451EE4B2ADB2601C53
:1084C000410040180521FFF741FE6100891940185D
:1084D0004019A908441864212846FFF737FE241ADA
:1084E000FF2191312846FFF731FE20180721FFF7C1
:1084F00043FEC8B270BD0000044800694006C00FCA
:1085000001D0002070470120704700000005005096
:1085100010B50F2004F040F8002810D101F07AFCCB
:1085200000280DD0094CA078012808D10020205641
:10853000002104F0F5FC0020A07008F0D9F910BD6E
:1085400002490120891D487010BD00002A21002029
:1085500001490020487170476022002070470000E8
:1085600010B5A2B003F0E6FF002832D11A2004F0C3
:1085700013F800282DD0002001ACFF212154401C0D
:10858000C0B28028FAD3012006F0F2F804F096FD7C
:108590000022802301211046009404F08DFC01216B
:1085A000802300220846009404F086FC80230022E9
:1085B00001210220009404F07FFC8023002201218D
:1085C0000320009404F078FC03481A210170022172
:1085D000417022B010BD00003021002010B50446CB
:1085E000FF281ED01D480078012803D1002108462D
:1085F00001F02AFA0F2C27D0552C15D0AA2C07D021
:10860000F02C0ED103F08CFF00281BD0F02020E0CE
:1086100003F086FF002805D0AA2007F032FD05F000
:108620007DF910BDAA200AE003F07AFF002805D0EA
:10863000552007F026FD04F0FFFD10BD552000F089
:1086400003F910BDF020FAE703F06AFF002803D019
:108650000F2007F016FD10BD0F20F0E7EC200020E2
:10866000F8B50746012006F083F800F003FE054642
:1086700002F0D2F90026304C012805D0A6806670A1
:10868000142D47D8002052E0FFF736FF01460420A2
:1086900001293AD101220A2D07D821780025012984
:1086A00001D3257021E0491C1EE0192D05D8217841
:1086B00001250129F7D3267017E0322D05D821783E
:1086C00002250229EFD322700FE0552D05D821781D
:1086D00003250329E7D3022106E0642D05D821787C
:1086E00004250429DFD3032121706178A94202D037
:1086F0006570A68002E0A188491CA180052D00D1EB
:108700002070A1880D4A914200D920702078042859
:108710000CD80CE01E2D01D8012008E03C2D01D81A
:10872000022004E0552D01D8032000E00420394642
:1087300000F024FAF8BD0000242100206810000099
:1087400070B500251A490F2829D00A465668022319
:10875000F2B2D41E552817D0AA2808D0F02809D183
:10876000230002F0B5F9061C1C1C1C1C1E1C022A4E
:1087700001D20B7170BD521CD0B20A710A2801D20D
:1087800002280CD20B710AE0022AF2D3521E0A719F
:10879000D2B20920022A01D30A2A00D308714D71EE
:1087A00070BD3004000EFBD10120487170BD000087
:1087B0003021002010B58AB000216846017020A445
:1087C0000A46084601F002FF00231A46042120460B
:1087D00004F044FD694601A800F0A0FD0022282114
:1087E000104601F0F3FE6846002301781A4601A8FE
:1087F00004F034FD00222821022001F0E7FE2022AF
:1088000001A9282005F058F968460079AA2803D163
:108810006846407955280CD0694601A800F046FD0D
:108820006846002301781A4601A804F017FD0AB033
:1088300010BD6846002381791A46C01DF5E7000087
:10884000B0E6B1BE00000000F0B58BB0014603F009
:1088500067FE002846D1B84C60680206120E02D1AD
:108860000004000E40D0FF293CD00846FFF768FF07
:1088700060680104090E012904D0C0B2082801D0A3
:1088800000F0D4FD60680104090E34D0C0B208289D
:1088900028D100F0F5FD0F2824D0002280230421E8
:1088A000104603F0CBFE012005F062FF0F20207080
:1088B00001F0B0FA00287AD0A0A5012001F0A4F9B7
:1088C00000221146012001F081FE2846FFF7C9FC75
:1088D000014600231A46284604F0C0FC3C20607084
:1088E00008F006F80BB0F0BD00F094F905206070B8
:1088F00001202071F6E7C0B2801E030002F0E8F804
:1089000008061A2F4358ABBCF605EBE700F0B8FD9C
:1089100006280BD0002280230421104603F08EFE8F
:10892000012005F025FF022004F03CFE05206070C8
:10893000062012E000F0A4FD07280BD000228023BF
:108940000421104603F07AFE012005F011FF0320F8
:1089500004F028FE0520607007202070C2E700F0B8
:108960008FFD08280BD0002280230421104603F03D
:1089700065FE012005F0FCFE042004F013FE052036
:1089800060700820E9E700F07BFD09280BD0002289
:1089900080230421104603F051FE012005F0E8FE7B
:1089A000052004F0FFFD052060700920D5E7B0E048
:1089B00064A600F065FD0A2838D000228023042137
:1089C000104603F03BFE012005F0D2FE3046FFF7D3
:1089D00048FCC5B22946304600F043FD002201465E
:1089E000104601F0F3FD00231A462946304604F0F4
:1089F00035FC28226946002005F05EF868460078BC
:108A0000AA2803D168464078552813D00E25294658
:108A10004DA000F026FD01460022022001F0D6FD07
:108A200000231A46294648A004F018FC1E20607056
:108A30000A2092E7684681780930054600F011FD6A
:108A400001460022022001F0C1FD68468178002322
:108A50001A462846E8E700F013FD0B2808D000224C
:108A600080230421104603F0E9FD002000F0BCF94A
:108A7000052060700B2070E737A73AA600F000FDD4
:108A80000D282ED0002280230421104603F0D6FDAD
:108A9000012005F06DFE3046FFF7E3FBC5B2294625
:108AA000304600F0DEFC00220146104601F08EFD4B
:108AB00000231A462946304604F0D0FB3846FFF71B
:108AC000D0FBC5B22946384600F0CBFC0146002257
:108AD000022001F07BFD00231A462946384604F0A7
:108AE000BDFB052060700D2037E7FFE700F0C8FCF4
:108AF0000C280AD0002280230421104603F09EFD9A
:108B0000012005F035FEFFF755FE052060700C20B2
:108B100023E7002216A51146012001F057FD284643
:108B2000FFF79FFB014600231A46284604F096FBF8
:108B300005206070D6E6000030210020B2E2C1BFFF
:108B4000D6D0000049440000425342313530323023
:108B50003230303031310000B0B44F4BB2E9D1AFD8
:108B600000000000B2E9D5D2CAD6BBFA000000006E
:108B7000CEB4C1ACCAD6BBFA0000000008B50300F1
:108B800001F0A6FF0504061013160F000A4801E0C5
:108B9000094820380A46022100901023084604F0B4
:108BA0008BF908BD04484038F4E703486038F1E722
:108BB00001488038EEE70000901C020010B5144810
:108BC000018809040A0E21D0090E491E417000884F
:108BD0000004000E1AD100F053FC052803D000F069
:108BE0004FFC192803D10021084600F02DFF00F0AA
:108BF00047FC0F2801D100F019FC03F091FC00287C
:108C000004D101F009FF002005F0B2FD10BD000005
:108C100030210020F0B589B0002503F08BFC00283E
:108C200002D0002009B0F0BD02F068FA03AE069051
:108C30000A21FFF78BFA71556D1CEDB20028F7D1B0
:108C40000790012005F094FD182003F0A5FC0028F2
:108C500001D004F033FA01A807F05AFF6846007A01
:108C60000A21FFF773FA8007564C574F800F04D044
:108C7000302148430019009000E000970C230421A4
:108C80000020079A04F018F96846007A0A21FFF7D5
:108C90005DFA3020414308190C2300901A46042144
:108CA000002004F009F94948009018220C230421FF
:108CB000002004F001F96846407A0A21FFF746FADD
:108CC0000007000F30214843001900900C23242294
:108CD0000421002004F0F0F86846407A0A21FFF7EA
:108CE00035FA30204143081900900C23302204212A
:108CF000002004F0E1F83C24062D07D20823224688
:108D000004210020009704F0D7F84424002004E058
:108D1000315C30313154401CC0B2A842F8D300203D
:108D20006A080AE0335C291A89199C462039CB7FEE
:108D300033546346401CCB77C0B28242F2D82846F7
:108D4000202102E03154401CC0B20628FAD320484A
:108D50000090102322460221002004F0ADF82146A5
:108D600000221031104601F031FC1A490698884261
:108D700004D900231A46062117A009E0062D03D2C4
:108D800000231A46052102E000231A46062103A803
:108D900004F064FAA01CFFF763FC01F03BF8012823
:108DA0000DD000972246022112321023084604F00B
:108DB00083F80B49182008700120087132E7094830
:108DC0000090EFE7B01C020090180200901E020015
:108DD000101A02003F420F0039393939392B00008F
:108DE00030210020701B020000B585B0012803D19E
:108DF00003F0A0FB002821D1114800880004000ED8
:108E000001281BD0012005F0B3FC00216846017445
:108E100081818173C173C1744174817403A807F0A7
:108E200077FE6846827C417C007C6B4607C36846BF
:108E3000C37CC27B817B808904F054F905B000BDFE
:108E4000EC20002038B5FF242D340C4A00210C48BA
:108E500006F042FA002803D00022114602F0A2F9DF
:108E60002146074806F0B0FA01210B460246009160
:108E70000021034806F018FA38BD0000D90E0200A0
:108E80007C18020010B505F0C1F90149488010BDF9
:108E900054220020FFB5064681B0002000900298C1
:108EA0001D46471B002412E00022104605E0211851
:108EB0004900715A8A18401C80B2A842F7D329464B
:108EC0001046FFF743F96100641C7052A4B2A74238
:108ED000EADCBCB212E00022104605E0211A49008B
:108EE000715A8A18401C80B2A842F7D3294610460E
:108EF000FFF72CF96100641C7052A4B202988442FE
:108F0000E9D30098401CC0B200900228CAD305B033
:108F1000F0BDF0B5964600240A22059D84460A2934
:108F200006D84A08022901D80846F0BD012A04D90A
:108F300050084000401E80B200E00120401E891A07
:108F400080B2491E17E046009F5F002F11DBF71823
:108F50000222BA5E002A0CDA6746BF5B774508D961
:108F600067002A68641CD0536246965B6A68A4B2A4
:108F7000D653401C80B28142E5DC2C812046F0BDF6
:108F8000F0B5964600240A22059D84460A2906D893
:108F90004A08022901D80846F0BD012A04D9500820
:108FA0004000401E80B200E00120401E891A80B2BD
:108FB000491E17E046009F5F002F11DAF7180222C2
:108FC000BA5E002A0CDB6746BF5B774508D96700AD
:108FD0002A68641CD0536246965B6A68A4B2D65372
:108FE000401C80B28142E5DC2C812046F0BDC17876
:108FF000827809021143427809021143007809027C
:1090000008437047F3B581B00C4600230198000275
:10901000020C0198C1B27F2901D10020FEBDA12A16
:109020000BD3A32A09D8A12907D31046A1385E265D
:1090300070430E46A13E83190CE0A92A0AD1A1294A
:1090400008D3901A5E2670430E46A13E801903464F
:10905000FF331B33B02A0ED3F72A0CD8A1290AD329
:109060001046B0385E2670430E46A13E8019034676
:10907000FF33793352E0A12A13D2812A11D3402938
:109080000FD37F2901D9481E81B210468138BE26F0
:1090900070430E46403E8019FF307930204E8319D0
:1090A0003CE0AA2A11D3A1290FD27F2901D9481E59
:1090B00081B21046AA38602670430E46403E8019A1
:1090C000FF307930174E831928E0812A10D13929D1
:1090D0000ED32002050CE0B200902846EE380A2696
:1090E0007043114E8619009830180346393B15E03D
:1090F000822A13D12002050CE0B2009008463038D5
:109100000A4E7043084E10368619284681380A27C1
:1091100078433618009830180346303B18467DE7F0
:10912000701A00003032000088530000EC04000088
:10913000F8B50025FF24013401262F46009520466E
:1091400006F004FA002808D034484068304204D0C1
:1091500033480021201835430160241D76007F1C10
:10916000A4B2042FEBD3FF207D3006F0EFF90028E6
:1091700007D02C4800210160400705432A480069B8
:1091800000902A4E280713D0012700243846284291
:109190000AD02748A200111808690969C004C00E46
:1091A0008903B258890F90477F00641C042CEDD3CB
:1091B000002D30DA00241D4E082130194030415670
:1091C000491C25D0077ABD06AD0E284603F0A0F94C
:1091D00080003658002E1BD0BF090121A940154A36
:1091E000A80080180068009A8003800F114202D006
:1091F000022802D00CE003280AD1032F05D102284F
:109200000AD00221284606F091F939462846B0478F
:10921000641C062CCFD3F8BD0321F3E700630040A4
:10922000006000407C61004000050050882600205E
:1092300000650040000700507047704709490878F2
:1092400000280DD10948084A8261094A0C2313609D
:109250000222826004228260C205826001200870BE
:1092600070470000E5200020060000800005005047
:109270000007005010B5002402F07EFC0A21FEF722
:1092800065FFFF214B3188420DD3FF21A531884274
:1092900001D9642407E0FF384B38642148435A2140
:1092A000FEF754FFC4B2204610BD0000F8B50A4DC9
:1092B00006460F4600242868FEF7D3FF387004E006
:1092C0002868005D3055641CE4B22868FEF7C9FFC9
:1092D000A042F5D8F8BD0000142100200448C07950
:1092E0000007000F042801D00020704701207047BC
:1092F0006022002001484079704700006022002071
:1093000010B50022134604E0845CE318521CDBB263
:1093100092B28A42F8D3D843C0B210BDF8B50A4D14
:1093200006460F4600246868FEF79BFF387004E08D
:109330006868005D3055641CE4B26868FEF791FF10
:10934000A042F5D8F8BD000014210020F3B5044672
:1093500089B0FD20344E20700027B068FEF781FFF1
:109360006070022506E0B068C05D60556D1C7F1C12
:10937000EDB2FFB2B068FEF774FFB842F3D8FC203C
:1093800060556D1CEDB27068FEF76BFF60556D1C8B
:10939000EDB2002706E07068C05D60556D1C7F1C53
:1093A000EDB2FFB27068FEF75CFFB842F3D8FE2062
:1093B00060556D1CEDB23068FEF753FF60556D1CB3
:1093C000EDB220226946282004F076FB684600783A
:1093D000AA2803D168464078552801D0002719E013
:1093E000694689780020002919D96A461118C97878
:1093F00061556D1C9178EDB2401CC0B281420ED90E
:109400002028F3D3F8E73068C05D60556D1C7F1CE1
:10941000EDB2FFB23068FEF724FFB842F3D80A98E5
:1094200005700BB0F0BD00001421002010B5054CF4
:109430006078012804D10448008885DF002060702E
:1094400010BD00002A210020002000203EB5044667
:10945000684600F01BF822460C21684600F0BEFF6B
:109460003EBD10B503F07EFC802806D88021081A86
:10947000C10F0818C005000E10BD002010BD00006F
:1094800001480078704700003021002010B50C2200
:109490000149FEF7C2FE10BD9D21002000BF00BFA4
:1094A00000BF00BF704700BF00BF00BF00BF00BFCC
:1094B00000BF00BF704700BF00BF00BF00BF00BFBC
:1094C00000BF00BF00BF00BF704700BF00BF00BFAC
:1094D00000BF00BF70470000F8B50026104C012502
:1094E0000746ED0338060F4801D5A06000E0E060B4
:1094F0007806070EFFF7E9FFA560FFF7DCFFE560E0
:10950000761CF6B2082EEDD3FFF7D5FF0548A06014
:10951000A560FFF7D0FFE560FFF7C0FFF8BD0000D2
:10952000000500500000010070B50125074C2D0416
:10953000A560FFF7C0FF6E10A660FFF7BCFFE560F7
:10954000FFF7B9FFE660FFF7B6FF70BD00050050FA
:1095500070B50125064C2D04E560FFF7ACFF6810DF
:10956000A060FFF7A8FFA560FFF7A5FF70BD000092
:109570000005005010B5022005F060F801F0AEFEC5
:1095800001F074FE0121022005F066F810BD0170A3
:109590000A1242700A148270090EC170704701707D
:1095A0000A1242700914817070470000F0B587B04C
:1095B00000241C221AA16846FEF72FFE192503205D
:1095C0001E4E4003B06101204003F0604700F76089
:1095D000052005F02DFDB7606E466D1E07E0325D7B
:1095E00001230021782004F0EAFA641CE4B2AC42C2
:1095F000F5DB134C00256570257002F0EDFF0123AB
:10960000AF220021782004F0DAFA25716571FFF7A6
:1096100001FB052060700120207107B0F0BD000043
:10962000AE001000B0818FA1A6A81FC8D300D580BE
:10963000D91FDA00DB408D14AF0000000005005098
:109640003021002008B500216A46117004280DD091
:1096500000280BD0012810D002281AD003282DD0C2
:109660002AE068460078C106C90E1EE011462E2089
:1096700000F06AF8002820D0F3E711462E2000F011
:1096800063F8002819D068460078C006C00E402153
:109690000AE011462E2000F057F800280DD0684649
:1096A0000078C006C00E80210143684601702E205C
:1096B00000F08DF9002800D0012008BD11462E20B1
:1096C00000F042F80028F8D068460078C006C00EC6
:1096D000C021E9E710B501462F2000F035F8002839
:1096E00000D0012010BD10B50146312000F02CF84B
:1096F000002800D0012010BD10B501460F2000F059
:1097000023F8002800D0012010BD10B50146062224
:10971000A82005F098F810BD38B504460020694629
:109720000870212000F010F800280CD06946087855
:109730004008400020430870C1B2212000F047F9E2
:10974000002800D0012038BD10B5012205F07BF8BB
:10975000012010BD38B5044600206946087023205A
:10976000FFF7F2FF00280ED068460178CF200140B5
:1097700020010843C1B268460170232000F027F998
:10978000002800D0012038BD10B57F2801D9002065
:1097900010BD0146332000F01AF90028F8D001204E
:1097A00010BD38B50D4604460020694608702220D9
:1097B000FFF7CAFF002810D0002D0FD068460078B0
:1097C0000146214208D1204369460870C1B22220D7
:1097D00000F0FDF8002800D0012038BD6946087867
:1097E000A043F2E710B57F2801D9002010BD014643
:1097F000322000F0ECF80028F8D0012010BD38B578
:10980000044600256846057069462520FFF79CFF41
:10981000002809D0254368460570E9B2252000F0EC
:10982000D6F8002800D0012038BD38B50446002005
:10983000694608703020FFF787FF00280DD0694681
:10984000087840210840204369460870C1B23020A2
:1098500000F0BDF8002800D0012038BD38B504461E
:109860000020694608703020FFF76EFF00280ED0F8
:1098700068460078A1018006800E0143C9B268469F
:109880000170302000F0A3F8002800D0012038BD7E
:109890001CB5044600206946087008712020FFF7B7
:1098A00053FF002819D001A92320FFF74DFF0028FE
:1098B00013D0684601781D480A0905D1827812093B
:1098C00012010A4369460A70002C07D0F7210823C9
:1098D000012C13D0022C09D000201CBD6946097848
:1098E00081700807000F694608700FE0684602782B
:1098F0000A40027002790A401A4306E0684602787C
:109900000A401A43027002790A40027168460178DF
:10991000202000F05CF80028DFD068460179232081
:1099200000F055F80028D8D001201CBD1D220020D1
:1099300038B504460020694608702020FFF704FF70
:1099400000280ED06846007821010007000F01436F
:10995000C9B268460170202000F039F8002800D014
:10996000012038BD38B504460020694608702E2015
:10997000FFF7EAFE00280ED068460178DF2001409C
:1099800060010843C1B2684601702E2000F01FF844
:10999000002800D0012038BD38B5044600206946B3
:1099A00008701F2C00D938BD2E20FFF7CDFE0028EF
:1099B000F9D0694608784009400120430870C1B2D7
:1099C0002E2000F004F80028EDD0012038BD13B59A
:1099D000014601AA0123322006F01EFC01201CBD15
:1099E00010B507F051F900282BD007F047F904F023
:1099F00095F8FFF7E3F8FEF78BFD01F00DF8114C39
:109A0000012803D02078012811D014E000F002FAD8
:109A1000012807D0002006F033FDFFF7FBF80128EE
:109A200002D00CE03220F6E70120207007E0002091
:109A3000207004F09DFE03F0A1FF03F0B5FF02F0DB
:109A4000B5FD10BD54210020F8B50025164C0F4679
:109A500000280CD002F064FD002815D10720012653
:109A6000002F12D0012F13D0022F15D119E003F0CF
:109A70006DF9257020880004000E012802D1657060
:109A800003F01CFB03F062F9F8BDE070A57001E083
:109A9000E070A67000F050F82670044805F0FAFB5C
:109AA000F8BD0220F4E70000EC2000207C18020042
:109AB0000548082181618160044900204870888040
:109AC000C88008707047000000050050EC2000209E
:109AD00010B517480168CAB2012A0CD1090E22D06C
:109AE00041680A04120C07D0491E81800804000C4A
:109AF00001D103F02BF910BD0D4A0B0C1268120EA8
:109B0000521E002B05D0090C491EC1804168090C6A
:109B1000F1D1C2700068000EEDD000F00DF80548DC
:109B200005F0B8FB10BD00210846FFF78DFF10BD02
:109B3000EC2000207C1802000648016809020A0E89
:109B40000221002A03D0012A01D0022A01D18180FA
:109B5000C1807047EC2000208307FF22DB0E9A4073
:109B60008907090E994000280BDA0007000F083812
:109B7000830808489B001B18D86990430843D861A4
:109B80007047830804489B001B18186890430843DB
:109B90001860704700ED00E000E400E010B51848E0
:109BA00007F08AFA00280BD1164C0120607102F0F0
:109BB000D3FC13490028487805D0012106F046FA65
:109BC00002F0B8FE10BD5C280BD0DD2814D03C2874
:109BD00012D07C2810D06C280ED0002106F036FA66
:109BE0000AE04879002807D1087906490831097840
:109BF000814201D10020607004F026FBE0E7000004
:109C0000A83300206022002010B503460022114630
:109C10001C2000F045F910BD10B50A46014600F0C1
:109C2000F9F8002803D000230D2000F039F910BD09
:109C300002480222016891430160704760300020B1
:109C4000F0B585B0002200920192029203236C4687
:109C500003922370134B11468C001C59250713D512
:109C6000E50602D508250D4300E00D4697006E4637
:109C7000BE19757025042D0EB57025022D0E240E0B
:109C8000F570521C3471D2B2491CC9B20329E3D316
:109C900092000346521C6946072000F001F905B006
:109CA000F0BD00002030002008B5437868460370FE
:109CB0004170134602226946FE2000F0F1F808BD0B
:109CC00010B52149047901235B050A68002C03D0F3
:109CD0001A43DB001A4300E09A430A6042790124E8
:109CE000A4050023002A0A6808D022436401224305
:109CF0006400A2430A60154A137001E0A2430A609F
:109D000082790124E404002A0A6807D0224364000F
:109D1000A2430A600E4C027A227001E0A2430A605C
:109D20000124C079E405A2000028086807D0204378
:109D300010435200904308600648037010BDA043D2
:109D40009043086010BD0000582200201922002016
:109D50001B2200201A220020F0B50546C0780024FE
:109D60009DB01646870832E0032C49D22848A3004C
:109D7000C058102290435A1911790907C90F0901D7
:109D800008432349C8500146C006084602D50421AD
:109D9000084301E0042188431D49C8500846C058C3
:109DA000E02188436107090E08431949C850184843
:109DB00051791818417091798170D179C170144826
:109DC0000821C05808431249641CC850E4B2BC4280
:109DD000CAD36E226946002003F06EFEAA2110A8A5
:109DE0004176E9788176EA78291D1B30FEF715FA6D
:109DF0006E226946002003F081FE3246002101E018
:109E0000324604212846FFF74FFF1DB0F0BD000089
:109E10002030002003480068C00301D501207047AE
:109E2000002070475822002030B50023062918D39F
:109E30000278AA2A15D14418203CE27F552A10D175
:109E40000122891E04E0855CEB18521CDBB292B241
:109E50008A42F8DBD843A17FC0B2814201D1012000
:109E600030BD002030BD000070B50C460546FFF740
:109E7000DBFF00280BD009480068C00301D400F0C4
:109E8000C1FA00222146284605F064FE70BD00227A
:109E900002212846FFF708FF70BD0000582200206D
:109EA000FFB583B01446FFF7C3FE394F01253B6869
:109EB0007A78DE03A11D2046002E30DA91422ED999
:109EC000801A801D80B26D1C861DEDB2964201D9AC
:109ED000FE2DF5D3012D22D00120000403433B6069
:109EE00078780290801F87B2200A694608714C7109
:109EF00021460498FFF704FA6946887101A800908A
:109F000003232449C020039A00F0EEF9012209211D
:109F10002048069B00F00CFA00266D1E1FE00498F6
:109F20008DB2009023461B490020039A00F0DCF913
:109F300000222946069B25E03846049970434018C4
:109F400000903B4613498020039A00F0CDF901228E
:109F50001048069B029900F0EBF9761CF6B2AE426F
:109F6000EADBAE4211D17743E01B84B2049823466A
:109F70003818009007494020039A00F0B5F90022F4
:109F8000069BA11D034800F0D3F907B0F0BD000007
:109F90005822002048300020F0B50E460446417893
:109FA00001270020C1B0154617297AD010DCCA4A13
:109FB0000B00126800F08CFD16555755778291A161
:109FC000A7ABB3ABBB55C5AB55AB55ABE4ABF0558D
:109FD000302967D00CDC18390B0000F079FD0F999F
:109FE00099999942F9FEF0EFEE4242ED42EC4200BF
:109FF000FB2936D026DCA02953D01CDC31297AD0AD
:10A0000032292ED12079627A010660790004084352
:10A01000A17909020143E0790843217AFF2409026A
:10A020008E180134A64267D92246694603F044FDE2
:10A030002B4622462CE1A7296FD0A82911D1FEF783
:10A040008FFA64E0FC290CD0FD2967D0FE2908D1E5
:10A050002079222874D0232803D13146204606F0E7
:10A0600049F841B0F0BD9DA412CC2B460494039155
:10A0700002246D462C7003246C700021964CD20390
:10A0800002D5A8706078E87003A82A46445C551889
:10A09000491CC9B22C710729F8D30B22694601204B
:10A0A00008E135E0C4E06946087001A8FFF74EF901
:10A0B00069460A782B4601A90320FBE020796179E3
:10A0C000000609040143A07900020843E17908432E
:10A0D00006F08AFE06F0F0FC19E006F013FD020E11
:10A0E00069460A70020C4A70020A8A70C87004221B
:10A0F0002B460520DEE0AEE0C4E02A46314620468D
:10A10000FFF72AFEADE72846FFF79AFDA9E72A46A2
:10A1100000212046FFF7C8FDA3E7BCE0C5E0694683
:10A1200008704870887003222B460920C2E06946F7
:10A1300008702B46500300D50F7001220B20B9E0A8
:10A14000BBE00B2E0ED12079FF280BD160790028BF
:10A1500008D1A079002805D1E079002802D1207A21
:10A160000028CFD0FFF7C6F8002804D0314620469B
:10A1700002F0ECFB75E75B4801683943016070E76A
:10A18000502069460870FFF775F86946087001228B
:10A190002B4613208EE0FFE72079083E2146012858
:10A1A00010D003280ED04A79002A0FD0A11D01201B
:10A1B00002F00CFEABE78AE084E01AE01FE015E055
:10A1C0000BE005E0E11DF2B20020F1E7F2B2EDE7AD
:10A1D00002210120FFF738FC99E700212046FFF714
:10A1E00063FD31462046FFF76BFD3AE720790128F1
:10A1F00001D0002000E0322006F042F987E700900D
:10A20000FFF778F8002804D168460770322006F07E
:10A2100037F9FFF763F8012805D102206946087075
:10A22000322006F02DF901222B466946202041E01C
:10A230006946087020790106607900040843A17915
:10A2400009020143E079084303F01AFC01222B467E
:10A25000694630202EE06B4618702079324603069E
:10A260006079214600041843A3790A3A1B0203438C
:10A27000E0790831184303F0DFFB01222B466946E1
:10A28000312017E03246694603F016FCB2B22B4685
:10A29000694632200EE0694608706846FFF72CFADE
:10A2A00001222B466946A72004E01346B61FB2B22E
:10A2B000211DFD20FFF7F4FDD3E63146204605F0D1
:10A2C0002DFFCEE63146204605F0C8FD1FE71046BB
:10A2D000FFF7BCF8C5E60000582200204554313590
:10A2E000303242000432002070B5AA26049D0E7060
:10A2F0001E0A06434A70B01818188E70CB70C2B28E
:10A30000002404201B041B0C08D109E02E5D0E5410
:10A31000B218401C641CD2B280B2A4B29C42F5D3E5
:10A32000D2430A54401C80B255220A5470BD00002A
:10A33000FFB581B01F4615460E460024FFF778FC96
:10A34000B1B23A46019802F08DF8002809D00320F6
:10A3500004F06EFE641CE4B203F0E0FB1E2CEFD3AD
:10A360001AE01E2C18D20024012D1BD10E4D002105
:10A370000020401C80B26428FBD30846491E89B2E5
:10A380000028F5D1641CE4B203F0C8FB28788007EC
:10A39000C00F04D01E2C05D3002005B0F0BD1E2C2C
:10A3A000E5D3F9E70120F8E76030002013460A46BC
:10A3B00010B501462720FFF773FD10BD13460A466E
:10A3C00010B501462320FFF76BFD10BD13460A466A
:10A3D00010B501462220FFF763FD10BD13460A4663
:10A3E00010B501462620FFF75BFD10BD10B50448EF
:10A3F0000122016812049143016002F067FE10BD62
:10A40000582200200448012201681204114301600F
:10A410001421417070470000582200200248022297
:10A420000168114301607047603000200449012336
:10A430005B040A68C0079A43800B02430A607047B6
:10A440005822002010B50649002008604860886046
:10A45000C860034940390860486006F055FD10BDEA
:10A4600040110140FEB50020C043124D02906869C2
:10A47000019068462E6903F061FA074604F0ECF992
:10A480000446002F08D002AA0199009803F0B0FBFF
:10A49000029804F02BFA06E0029804F027FA00284C
:10A4A00001D1002C02D0304602F054F9002068712E
:10A4B000FEBD0000AC20002010B507484068002811
:10A4C00007D08047002803D00022114600F06AFE22
:10A4D00010BD03F0EDFF10BDD0200020F0B589B015
:10A4E000012003F085FE30A217680546121D07CA39
:10A4F0000026009601960296039604AB07C32E4CE5
:10A500002088F02804D902212680480305F08CFD1C
:10A510000520000310226946079005F05FFC042225
:10A5200026496846FDF7A4FE002805D0268004A829
:10A5300007C8009701AB07C3079803F0A1FA694663
:10A54000C8791022401CC0B2C8712080079807F05B
:10A55000FBF810221A496846FDF75FFE208819496A
:10A56000000140181022694607F0EEF81421164841
:10A57000FDF76CFE14490320087410211048FDF704
:10A5800065FE10212868FDF761FEF0216868FDF77F
:10A590005DFE03200121400305F046FD012003F08C
:10A5A00073FB09B0F0BD00001A2B3C4D01100000F8
:10A5B0000000000000000000C4210020191F02005C
:10A5C000302C0020F03F0000AC210020034B002A7B
:10A5D00001D01A7851181970587070472621002040
:10A5E00001490120C87070476022002001490870AD
:10A5F000704700003021002001700912417070473F
:10A60000064A1179091889B2FF2900D3FF21117177
:10A610000349CA881018C880704700001030002015
:10A6200020220020F0B50025022684460B4A01278F
:10A6300011E000231C465B061B0ED6601069C007A4
:10A64000C00F00D03B439660641CE4B2082CF2D3E8
:10A65000604643556D1C8D42EBD3F0BD00050050A4
:10A66000FCB58C460DA206CA002501920224009179
:10A670000C4A6E460FE00023D460475DF15C0F4248
:10A68000094F01D0976000E0D76094605B1CDBB29B
:10A69000082BF1D36D1C6545EDD3FCBD8040201027
:10A6A0000804020100050050000000807CB50BA2E8
:10A6B00006CA0192009101240021E407094A6D466F
:10A6C0000223D3606E5C064201D0946000E0D46047
:10A6D0009360491CC9B20829F3D37CBD8040201087
:10A6E000080402010005005010B503F02FFF0028F8
:10A6F00005D00E490C484860C8130D4988610D48C3
:10A70000018CC9B201290ED1818C09070BD1018DB1
:10A710000906090F042906D1808D0006000F02D119
:10A7200005490120886010BDDFFF07C0000500401B
:10A73000006C0040C00F00F00006004010B5002182
:10A74000014804F01DFE10BD0080004010B501213D
:10A75000014804F015FE10BD0090004010B5022124
:10A76000014804F00DFE10BD00A0004041780078C3
:10A770000902014308B27047FEB5044600270020D5
:10A780000090774E7748844208D8A02C06D3002545
:10A790002046A03840004019801900907248844239
:10A7A00008D87248844205D3714D201A40004019E0
:10A7B000801900906F48844209D803200003844226
:10A7C00005D36D4D201A40004019801900906B4848
:10A7D000844209D827204002844205D3684D201ABC
:10A7E00040004019801900906648844209D86548A5
:10A7F0003B38844205D3644D201A4000401980192B
:10A8000000906048F33084420AD85E489630844213
:10A8100006D35D4D7835201A40004019801900900C
:10A820005A48844208D8401F844205D3584D201A04
:10A830004000401980190090564884420AD8554873
:10A84000FD38844206D3524DAA35201A40004019E3
:10A85000801900905048844209D84F484E388442AD
:10A8600005D34E4D201A40004019801900904C48E5
:10A8700084420AD84A484938844206D3474D9E3517
:10A88000201A40004019801900904648844209D897
:10A8900044487038844205D3434D201A4000401983
:10A8A000801900904148844209D84148844206D327
:10A8B0003D4DE235201A40004019801900903D4876
:10A8C000844209D82B487230844205D33A4D201A6D
:10A8D00040004019801900903848844208D8384810
:10A8E000844205D3374D201A40004019801900904A
:10A8F00001AA0221009805F0E1F9684600790102F9
:10A9000068464079081887B22F48844200D12F4FFB
:10A910002148CE38844200D12D4F2E48844206D3A0
:10A920002C480B30844202D82B48201887B21A4892
:10A93000D738844206D3801D844203D820485E3035
:10A94000201A87B21448D038844206D3401C84426F
:10A9500003D81B485230201A87B23846FEBD00008B
:10A9600043A50E0051040000422600001020000004
:10A9700064070000D5330000CA130000A59F000043
:10A98000761B00006BFE0000C2BE0000E5FF000069
:10A99000F6BF000029FA000064E800009CC2000035
:10A9A000CA2E0000B7490000CEC30000AE4D000023
:10A9B000774C0000E03C000020C700008D470000FD
:10A9C0005640000054D800003F1E0000BCA8000004
:10A9D000F3A60000F02F00009A79000010B50A4895
:10A9E000816800290FD000228260084883690948E5
:10A9F000074C41886354491C89B201235B024180A2
:10AA0000994200D3428010BD002100400025004043
:10AA1000C82700200E21002010B50C480069002234
:10AA20008006C40F0B480A4B0178002C06D0002981
:10AA300002D11A6001210170012010BD012902D14B
:10AA4000042119600270002010BD000000050050B4
:10AA500018070050E42000200149002008607047DA
:10AA6000140700500A498A884B889A420DD0094B36
:10AA70009B5C0370521C90B201225202888090426B
:10AA800001D300208880012070470020704700001B
:10AA90000E210020C827002002480078012800D09D
:10AAA000002070470E21002006484068C107C90FEA
:10AAB0000020002904D00449086004484068004789
:10AAC0007047000000030140000101408820002081
:10AAD00030B47446641E2578641CAB4200D21D4617
:10AAE000635D5B00E31830BC184702E008C8121F22
:10AAF00008C1002AFAD170477047002001E001C167
:10AB0000121F002AFBD17047F7B582B00026054618
:10AB1000167000781446002805D02846039904F0E2
:10AB200067F8060008D1A87800281ED02078039F77
:10AB3000001D1F2802D90C2005B0F0BD684679DF42
:10AB40000028F9D121780322481C20707A542178FA
:10AB50001922481C20707A542078C1196846008850
:10AB600006F046FB217840182070E8780223002880
:10AB700010D02078039A411C217013542078039937
:10AB8000471C012227700A542078EA78471C039951
:10AB900027700A546868002815D000214156207893
:10ABA0008C460246C01C03991F28C4D8501C207034
:10ABB0008B5422780A23501C20708B5420786246D4
:10ABC000431C23700A542889002809D02846009481
:10ABD000062202210830039B06F004FD0600ABD1DB
:10ABE000288A002809D02846009407220321103023
:10ABF000039B06F0F7FC06009ED1288B002809D0A5
:10AC000028460094152214211830039B06F0EAFC14
:10AC1000060091D1286A002805D02246039901F048
:10AC2000EBFD060088D1686A002805D0224603990A
:10AC300003F0ACFF060084D12C20405D002806D034
:10AC400022462846039905F08FFB0600C7D13046FF
:10AC500072E7000010B596B0302101A8FDF7F6FAB2
:10AC6000022168460171012484710621C171848228
:10AC70001248069024210DA8FDF7E8FA10A80470E8
:10AC8000FF20413011900A20129010A80473052073
:10AC900000021490FF202D301590002001460090F6
:10ACA000074B0DAA01A800F0CBFF002803D000221B
:10ACB000114600F077FA16B010BD00000220002007
:10ACC0006DF50100F0B59DB000246E226946204666
:10ACD00002F0F2FE10A8417E102704232B48E02248
:10ACE000AA2920D001687F24B94399439143016088
:10ACF0004470112585703121C1704168B943994371
:10AD0000914320314160447185713321C171816863
:10AD1000B943994391434031816044728772352130
:10AD2000C1721DB0F0BD10A9897E8D08002D02D81A
:10AD3000F7E7032C24D2A1006B46CB184033DE7E0C
:10AD400042583607F60FBA43360132434250D60610
:10AD500002D50426324301E00426B2434250E026E5
:10AD6000B2436607360E324342501E7F0A185670B1
:10AD70005E7F96709B7FD370425808231A434250DF
:10AD8000641CE4B2AC42D4D3CBE7000020300020F6
:10AD9000F8B55B4F002538463C38009504680571CE
:10ADA00045712E463621801DFDF750FAA4E0785DEE
:10ADB000014620395F2931D901282FD00D284DD0E7
:10ADC0000A2857D0C0B281387D286FD8641E6D1C08
:10ADD000002C6BD0785D01464039BE2968D8B61C7E
:10ADE000F6B2641E6D1C102E0FD900980226401C6E
:10ADF000C0B20090022808D341483C380179491C70
:10AE000012297BD20171002000903D483C38017925
:10AE10004A00891808188179891C6CE0761C641E28
:10AE20006D1CF6B2102E0FD900980126401CC0B23E
:10AE30000090022808D332493C390879401C122876
:10AE40005CD20871002000902D483C3801794A00FE
:10AE5000891809188879401C88714DE028486D1CB4
:10AE60003C3801794A00891808188179491C817198
:10AE7000641E41E02249641E3C3908796D1C420081
:10AE80008018421890790026401C90710098401C50
:10AE9000C0B2009002282FD30879401C12282DD26E
:10AEA000002C2BD008710020009080E726E0FFE7FF
:10AEB0003038092822D8ED1C032C1FD3B61CF6B25B
:10AEC000E41E102E0FD900980226401CC0B200903C
:10AED000022808D30A493C390879401C12280DD2AF
:10AEE00008710020009006483C3801794A00891812
:10AEF00008188179091D8171002CD6D1F8BD000098
:10AF0000042A002000B587B0002002900390694613
:10AF100004908882087603F07BF96946087606A9D2
:10AF200001200191009000230C2205A902A804F041
:10AF300099FB6946898A02A801F008FD00210C20CE
:10AF400005F050FA07B000BDF8B500256846057059
:10AF500026486A464188406801F005FD06462348B8
:10AF600001F060FB05F0CEFD204C183C20612189EA
:10AF7000411A09B2002E28D06570A278002A07D0A5
:10AF80006846017801230022304600F087F8F8BDBA
:10AF9000052E00D90526A288B21812B2A28008296F
:10AFA00001DC0A2A01DA142A0ADB012000F04CF93C
:10AFB0006946A37820790122097800F06FF812E041
:10AFC0000829E4DDA580A060F8BD6078401CC0B20F
:10AFD00060700228F8D3002000F00EFA2069A0600B
:10AFE000A0780028F0D1A580F8BD000078210020CD
:10AFF000FFB583B00446002069461E46088088805D
:10B00000214F224D002C30DDA1B2049805F0DAFC6E
:10B0100069460880A1B23246049805F077FC69467B
:10B020008880A0B2FFF7ECFA19488168091981609D
:10B030006946098802685118016069468988426832
:10B040005118416004990174818901228919818113
:10B050001048120601681143016038882A680C49BB
:10B06000801A83B2002005F0FDFB0598002806D168
:10B0700038682968401A4B21C900884202D3064823
:10B0800005F060F807B0F0BD702100206C210020B1
:10B09000AC21002058220020302C0020F8B51C469E
:10B0A00015460E46074605F02DFD0A490A4A4B682B
:10B0B0001268934201D31A4600E04A60831A48603E
:10B0C000002C04D02A4631463846FFF791FF384617
:10B0D000F8BD0000942100206821002010B503482D
:10B0E00064214068FDF732F810BD0000AC2100205B
:10B0F0000148006870470000AC21002001488068CA
:10B1000070470000AC21002070B50024064D06E019
:10B110006968E000085C012103F0C8FF641C28781E
:10B120008442F5D3002070BD94200020F8B5154668
:10B130000C460646052A01D20720F8BD04F082F825
:10B14000002803D104F054F80028F6D1114900205A
:10B150004E600C7008618D6048610F4D0DE0E0009D
:10B1600029688019009181786A46517000780B4AED
:10B17000694603F0EBFF0028DFD12046641EE4B2ED
:10B180000028ECD10348064A00210C3000F066F993
:10B19000F8BD0000942000207818020015E301009B
:10B1A000B9CC0100BFF34F8F03490248C860BFF319
:10B1B0004F8FFEE70400FA0500ED00E038B50024EB
:10B1C00068460470FEF78FFA6846007800280DD0B4
:10B1D000002002F09FFE00F0F1F80121002003F0B2
:10B1E0003BFA032003F02AFA05F0E8F968460470F8
:10B1F000FEF770FA68460078400601D502F054FE6A
:10B2000038BD00001CB505F07DFC04466846FEF71D
:10B210007CFA2146684605F08BF90648417AFF29F9
:10B2200001D2491C00E0FF2141720349032003F0D1
:10B2300013FA1CBD10300020DC05000001488078A6
:10B2400070470000602100200649002806D0012038
:10B25000887005494879401C487170470020887003
:10B260007047000060210020103000201CB5002431
:10B27000684605F04DFC68460079062801D803248D
:10B2800007E0142801D3022403E0C01F022800D8DD
:10B29000012407490878A04209D00C7006204443D5
:10B2A00008461C302018C860001DFDF79BF81CBD27
:10B2B0002022002010B500F03BF800F00FF8FFF757
:10B2C000D5FF05484169491C41614B21C900022055
:10B2D00003F0C2F910BD00002022002070B505F077
:10B2E00011FC114D0024AC806C800646EC802C8152
:10B2F00010210E48FCF7AAFF31460C48FEF747F92B
:10B300000A48A021A038FCF7A1FF08486C81002161
:10B310000C302C61FFF770F9FFF790FF002802D086
:10B3200002490120487170BD202200201030002009
:10B33000F8B5204DA8886988884200D96880002621
:10B34000F64300201C4F04460096E100C919897994
:10B35000002907D0002803D00094401C00B20AE066
:10B360002646FAE7002806DD022803DB304600996E
:10B3700005F06CF90020641C24B2142CE5DB0028D5
:10B3800003DD3046009905F061F90B49E888A031EA
:10B390008A79824203D2FF2800D3FF20887168880F
:10B3A000FF2800D3FF20C87203490220A03106F015
:10B3B00087F9F8BD20220020702F002010B50D4C19
:10B3C0002078002814D1012020702046183001F088
:10B3D00029F92046203001F025F902F057FD01201F
:10B3E00002F05CFD05F08EFBA060E0600020607064
:10B3F00010BD000060210020F8B5164C2078002810
:10B4000026D00025684605702570284602F046FDC6
:10B4100020461830418840686A4601F0A4FA064682
:10B420002046183001F0FEF868460178A378012222
:10B430003046FFF733FE02F029FD0020FFF704FF3E
:10B440006570A58005F0A6F80349032003F004F910
:10B45000F8BD000060210020DC05000070B5114C33
:10B46000A568002D06D0002A06D0002804D00023AD
:10B47000247809E0082070BD072070BD24265E43B3
:10B48000AE5D002E04D05B1CA342F7DB042070BD30
:10B49000242401265C432E5564196170A261036067
:10B4A000002070BDAC200020FFB59807002481B0BB
:10B4B0001E4615460F4600280BD1002E09D004F079
:10B4C000FDFC22490A9888610F70324600208E6088
:10B4D00008E0072005B0F0BD24234343D4549B1853
:10B4E0001C75401CB842F7DB24204743BB190320DE
:10B4F00048700F461846CB601946183000221823B2
:10B500002E465E43D3005B181C705C709D705860C3
:10B510003018521C032AF5DB0020C0433861BC7090
:10B52000FC7001240A482405046003211420FEF75E
:10B5300013FB08480460084C0198A0600321112007
:10B54000FEF70AFB606878610020C3E7AC200020AA
:10B5500080E200E000E100E000150140FEB5044695
:10B560001D48174682680D46002A0CD001788C428F
:10B5700001D2052D01D20720FEBD214624235943C7
:10B58000535C012B01D00820FEBD881840780128AB
:10B590001DD0002605F006FFC0000F490190C968C4
:10B5A0004018694605F028FF002812D001210170DB
:10B5B0000A49446049680830E2C007490198C968EF
:10B5C00041180098487005F015FC0020FEBD2E467D
:10B5D000E0E70420FEBD0000AC2000200015014083
:10B5E000F8B5144D0446A868002809D029788C4283
:10B5F00001D30720F8BD24216143405C012801D01C
:10B600000820F8BD05F0CEFEC600E868694630188F
:10B6100005F0F2FE00280AD0022101704460E868BB
:10B6200031180098487005F0E5FB0020F8BD0420B3
:10B63000F8BD0000AC200020F3B5184E002530788E
:10B6400083B00F46002823D0002005B0F0BD0620AF
:10B650000399684344182046FFF788F80190A01C1E
:10B66000FFF784F80090201DFFF780F8024601984C
:10B67000009940434943401852438018C10F0818AD
:10B68000401005F015F96A0071686D1C8852EDB222
:10B69000BD42DCD3778001203070D6E780210020C6
:10B6A00070B5104C2078002801D0002070BD618852
:10B6B00060680C4D49004018083569884A0069687F
:10B6C000FCF7ABFD6088698840186080284600F070
:10B6D000A9FF6088402803D901202070FFF734FCBF
:10B6E000012070BD7821002070B505460A480C463F
:10B6F000007800280ED02846FFF79EFF002807D1CB
:10B70000FFF7CEFF002805D021462846FFF794FF1B
:10B71000FFF7C6FF70BD000060210020F8B5364C71
:10B72000A079002801D11E20A071207A002801D123
:10B730003C202072E079002801D1AA20E071A07994
:10B740000A21FCF703FD0300FFF7C2F9070507090B
:10B75000090B070D0500462506E05A2504E064257F
:10B7600002E05F2500E055256679002E05D05F20B8
:10B7700068436421FCF7EAFC85B21F48C479A62C13
:10B7800001D3152104E020468C381A2802D20E215C
:10B79000204601E060001521FCF7D8FC201AC10FFB
:10B7A0000818C003070C002E0AD05E2C06D96420AE
:10B7B00044431248FF212018473108E012200BE0D3
:10B7C000832C08D9642044430D488D212018FCF7B0
:10B7D000D3FC80B200E00F20874201D9381A87B22B
:10B7E0000548054C007A083C20706F4338466421B8
:10B7F000FCF7C2FC6070F8BD9C21002075DBFFFFE8
:10B8000003CDFFFFF0B5C5B0FF21013104A8FCF75F
:10B810001DFD0020009001900290039002F044FC76
:10B820000125ED042D4C002843D020682C4E010347
:10B8300043D5052000031022694604F0CFFA68467C
:10B8400000781A280BD0684640782B2807D1684624
:10B8500080783C2803D16846C0784D2829D0214FF4
:10B86000F878002803D06946C979814202D2684637
:10B87000C079F8706846C079F9780122401A000151
:10B88000920380180A0108A904F0A8FAF97868461A
:10B89000C17168460FC804AF0FC76846C07D01225A
:10B8A0000101103104A8FEF781FD2068A843304350
:10B8B0000DE02068A84320600DE0C0020BD50021F8
:10B8C00001220846FEF772FD2068A843B0432060BD
:10B8D000012045B0F0BD0020FBE700005822002009
:10B8E0000000100018220020F0B5C1B0FF21013186
:10B8F0006846FCF7ABFC022002F07AFC064602F038
:10B90000D3FB01250027ED053E4C002820680CD014
:10B91000400114D5002101220846FEF74FFD2068A2
:10B920000321A843490688434DE00121A843490665
:10B930008843206034488770002041B0F0BD02F099
:10B94000A3FB00285BD02068810158D52E498A7856
:10B950003A2A4CD21002152109034018FF22013265
:10B96000694604F03BFA284827498078401C8870D3
:10B97000684600781A280BD1684640782B2807D1F2
:10B98000684680783C2803D16846C0784D281ED090
:10B990003068C079002810D02068A8432060306843
:10B9A00000F0D8FF30680122C17909011031FEF79B
:10B9B00005FD0421052002F04FFE01212068490603
:10B9C00088434900084320600F48877017E02068CB
:10B9D0000122A84320606846C07901011031684601
:10B9E000FEF7ECFC0421052002F036FE07E0012200
:10B9F000A843520690435200104320608F700120EC
:10BA00009BE70000582200201822002070B50C4649
:10BA1000084913460A6895020AD5D50108D50125BB
:10BA20002D06AA430A60014622462520FEF738FA71
:10BA300070BD000058220020F0B5C1B0FF210131D7
:10BA40006846FCF703FC012002F0D2FB064602F038
:10BA50002BFB01250027AD053E4C002820680FD0A8
:10BA6000C00017D5002101220846FEF7AFFC206870
:10BA70000321A843C906884320603748477067E020
:10BA80000121A843C906884320603348477000203D
:10BA900041B0F0BD02F000FB002859D02068010140
:10BAA00056D52D494A78102A4CD210020321490359
:10BAB0004018FF220132694604F090F926482649D1
:10BAC0004078401C4870684600781A280BD16846B8
:10BAD00040782B2807D1684680783C2803D16846F7
:10BAE000C0784D281ED03068C079002810D020685A
:10BAF000A8432060306800F02DFF30680122C17932
:10BB000009011031FEF762FC0421052002F0A4FDBA
:10BB10001148012147702068C9068843490008433D
:10BB2000206015E020680122A84320606846C079A3
:10BB3000010110316846FEF749FC0421052002F09E
:10BB40008BFD05E00122A843D206904320604F7090
:10BB500001209DE7582200201822002004490348B4
:10BB6000486004490020086070470000022000007F
:10BB7000007500400071004010B500F023F80A2065
:10BB800003F056FA0B4C02E00A2003F051FA206849
:10BB90000028F9D00020206007488068074A01216A
:10BBA00051604B21890148430549FCF7CFFA80B227
:10BBB00010BD0000007100400075004000700040A2
:10BBC000FF030000044901200860044A00211160BD
:10BBD0000349086070470000007500400071004094
:10BBE0000070004070B50C4692B000216A4611709A
:10BBF00007251171002809D0C17849070CD502A981
:10BC0000FEF782FF002808D102AE00E00026002CDB
:10BC10000ED0E078002802D0284612B070BD01AAEC
:10BC20000AA92046FEF770FF0028F6D10AAA00E014
:10BC30000022684603790178304672DFEDE70000A4
:10BC400070B50D4604991646040042D0002E40D02F
:10BC5000424800224271C3600161242231464048BB
:10BC6000FCF7DBFA00F0B8F83D49343108461038EB
:10BC700001602031816030215438FCF7E7FA384800
:10BC8000217830380170A1788170E178C1706178D5
:10BC900041706269216942610161E268A168C26024
:10BCA00081600146E369A269CB618A61616A00290A
:10BCB00019D00146A4310246B03241628A60636AFB
:10BCC0001B880B80616A436A898899800021436AD6
:10BCD00006E00E2070BD666AB668765C5654491C54
:10BCE0009E888E42F7D8A16A00291CD01C4AAC322B
:10BCF00011460C398A608162A36A9B888B80A16A95
:10BD0000836A098819800021836A04E0A66AB668FC
:10BD1000765C5654491C9E888E42F7D82C210A5DC9
:10BD20000F4910390A73216A002909D00B491431CF
:10BD30000162226A52884A80216A026A0988118057
:10BD40006168002904D00549891D4160616841602E
:10BD5000034829463038FFF745FF70BD28200020F2
:10BD6000A025002010B502881A4C102A17D00021F7
:10BD7000112A17D0192A11D1807900280ED16079A3
:10BD800001281BD002281FD003281FD0042805D16A
:10BD90002171E2680846002A00D0904710BD8088D3
:10BDA000208110BD6170808821898842F9D10120ED
:10BDB00005E021690029F4D0884710BD022000F079
:10BDC00033F80028F5D110BD0420F8E703202071D6
:10BDD000FAE700002820002010B507210148FCF7F1
:10BDE00035FA10BD4020002010B50D48007801281C
:10BDF00014D10C4C6078002810D16079002802D052
:10BE000074DF00280BD101206070607900F00CF81D
:10BE1000002803D02169002900D08847002010BDE8
:10BE2000A025002028200020F0B5754C87B0607157
:10BE3000002606A8069603F02DFF0127082806D045
:10BE400000286FD10698002802D02770D4E006960B
:10BE5000FFF7C2FF6B4D6878002802D06079012897
:10BE600005D0A87800280AD06079022807D1E168B7
:10BE7000002903D0E7700820884700E0E670607969
:10BE8000012808D16878002809D05D48193003F0EE
:10BE900033FE002803D06079022802D00CE0022093
:10BEA0006071A878002805D05548193003F024FEA9
:10BEB000002801D103206071287B002804D160791B
:10BEC000032801D104206071287E002804D1607904
:10BED000042801D166712671E16800290AD06079D1
:10BEE000032801D0042805D12878002802D06078E2
:10BEF000002818D0A67018216846FCF7A7F96846F4
:10BF00000670019606720396607901280FD0022808
:10BF100016D03C4E24363746543F03281CD0042804
:10BF20005ED13BE069E0A77007208847E3E734482B
:10BF3000183001906846077046820682277152E0E9
:10BF40002F48183001906846077029894182A988D6
:10BF500001820220207146E0A88A69464882288A28
:10BF600008822848243005F0A2FB002805D0287854
:10BF7000002802D06078002801D003202FE00220A2
:10BF80006946087204200396F8701E480021303874
:10BF9000FFF728FE002830D1052020E0A88B694655
:10BFA0000882288C48821748243005F080FB00283E
:10BFB00005D02878002802D06078002801D004201D
:10BFC0000DE002206946087204200396F8700D48BF
:10BFD00000213038FFF706FE00280ED10620207120
:10BFE0006079002803D0684673DF002805D1E16836
:10BFF000002901D020798847002007B0F0BD00005B
:10C0000028200020A025002070B5054601461C22EE
:10C010000F48FCF702F90F4C00262670296800290A
:10C0200007D00822A018FCF7F8F8204608307ADF7D
:10C0300002E0084808307BDF002808D1401E6080FD
:10C0400004486670044A0021001DFFF707FA70BD1E
:10C050006C2600204820002041130200F8B5224C35
:10C06000028800271F4DE689102A16D02946496804
:10C07000112A21D0122A2DD0502A1CD1801D0288CD
:10C08000B24218D1028B022A15D1C27E837E1002E1
:10C090001843C007C00F0CD112E0818869800146A7
:10C0A0001048082216311030FCF7B7F86F70002ED8
:10C0B00001D100F0E9FBF8BD0020C04368806F703B
:10C0C0000846FFF78DFA0028F5D0A1690029F2D0C3
:10C0D0008847F8BD811D034808221030FCF79DF801
:10C0E000E7E70000482000206C26002010B5044639
:10C0F000FFF7B4FF204600F0C5F82146074800F0DE
:10C1000047F8064821461C3002F0CCFE204603F0DA
:10C110003BFA2046FFF726FE10BD00002825002030
:10C1200030B5194B0D4604009A6A596A186A85B0F1
:10C13000DB6A03936B4607C324D0002D22D0002076
:10C14000C043A0822868A0610020A07521466846EF
:10C1500063DF002814D12178684681740B4901827D
:10C16000A21C04A90120A0DF002809D129462046ED
:10C1700004F00AFF002803D12946204603F0C0FE40
:10C1800005B030BD0E20FBE714180200434200004A
:10C1900000281ED000291CD00A88102A14D0112A89
:10C1A00014D0502A15D1891D0A88038A9A4202D1D7
:10C1B0000B8B022B0ED083889A420AD18369002B05
:10C1C00007D00A8B1A311847898801E00021C9433A
:10C1D00081827047CA7E8B7E11021943C907C90F3D
:10C1E00000D001218175704707B584B000280DD0BB
:10C1F000828A114B9A420BD0827D002A08D06A466F
:10C20000128B142A06D9072007B000BD0E20FBE7C9
:10C210000820F9E70022009201920292039282899B
:10C220006B461A80039106A9029101219970808AB8
:10C230006946A6DFE8E70000FFFF00007CB50C467A
:10C240000F4900250860002C18D06946002000F036
:10C2500075F8002813D101A9012000F06FF800281B
:10C260000DD1684601790020002901D0022004E0A8
:10C2700069460978002900D00B20207028467CBD33
:10C280001C200020054902884868102A04D0112A81
:10C2900001D1401E48607047401CFBE71C20002075
:10C2A000F8B507460024214802E0641C052C19D289
:10C2B000A2008258BA42F8D1052C13D21C4E1D4D53
:10C2C000B068002925D001290DD002290AD16000CB
:10C2D000201840194578002D04D07168002901D03C
:10C2E00028468847F8BD610062182946AD5C5118A0
:10C2F00000914978002906D00D4A0F49FFF72EF921
:10C30000002800D137700098817809480C30015519
:10C31000E1E7FFF765F90648610061180C3049193B
:10C32000005D8D78A842D6D0F8BD0000D817020075
:10C3300008200020602500200280000005280CD283
:10C34000074A1269074B80001B5C0120984090430C
:10C3500000D001200870002070470020FAE700009C
:10C3600000050050D817020010B5001F0300FEF7AB
:10C37000AFFB0D081313141313131313191B1D1FF5
:10C3800013000D481321008876DF08E0002803D051
:10C3900000221146FEF706FF10BDFFF725FD082815
:10C3A000F4D110BD0F2004E0F02002E0552000E0A1
:10C3B000AA2005F0E9F910BD0020002070B5002387
:10C3C000052811D2440004190D4D012A02D101297A
:10C3D0000DD0002246008019094E801900290CD08A
:10C3E000012906D0022906D00723184670BD0D305A
:10C3F000C2B22A55F9E74270F7E78270F5E700000C
:10C40000602500200020704770B50D460146124B94
:10C4100000205A6089070AD50024012211462046CF
:10C42000FFF7CCFF641C052C02D20028F5D070BDAC
:10C430000028FCD16A0805210848FEF777FE00288D
:10C44000F5D1FEF761FE0028F1D10348044A00212E
:10C450000830FFF703F870BD08200020EC17020039
:10C4600085C40100002A10B50A46014603D00448DD
:10C4700002F0EEFC10BD02481C38FFF7B5FE10BDFF
:10C480004425002010B500780221FFF709FF10BDF8
:10C490000548002202704178891CC9B24170032905
:10C4A00000D9427070470000262100200022D243AC
:10C4B000830004490428CA5002D30818403002718E
:10C4C0007047000088260020F0B50025ED43002AC3
:10C4D00002D00023042601E004230A260B4C04E0CA
:10C4E0009F00E7597F1C04D05B1CB342F8D3284659
:10C4F000F0BD26185DB2203635729E00A151002A8B
:10C50000F5D1E11840310871F1E7000088260020DC
:10C510000249091828200856704700008826002084
:10C5200000B5FCF7ADFF142801D0002000BD0120AC
:10C5300000BD000000B5FCF7A3FF142808D0FCF7ED
:10C540009FFF0D2804D0034800880004000E00D08F
:10C55000012000BD3021002030B50D4B0120597C59
:10C56000DA8A552913D10B494C788D786419CD7826
:10C57000641903E0521E55182D792C19E4B2002AD3
:10C58000F8D1E1431A7CC9B28A4200D1002030BD03
:10C59000C8340020A833002000B50146FCF770FF26
:10C5A000884201D1002000BD012000BD10B509481E
:10C5B000417801290DD1817800290AD0491E090648
:10C5C000090E817005D1FEF767FA002801D004F04A
:10C5D000BDFD10BD6022002038B510A00068002409
:10C5E000009003236A460021782001F0CFFA6946C3
:10C5F00008788023401C087000224021782001F038
:10C60000DEFA641CE4B2042CEBD300200449024699
:10C6100048700146FDF7DAFF38BD0000B010000099
:10C62000EC20002010B50446408841006068FBF70C
:10C630000DFE00202070608010BD0000FFB5074691
:10C640001AA081B000680090684600780E46C119B3
:10C6500068460170407811094118684641701546D6
:10C6600080782907090F411868468170002411E07D
:10C6700003236A460021782001F088FA6946087889
:10C680000022401C087040217820049B01F097FA9A
:10C69000641CE4B2B442EBD3002005490246487062
:10C6A00029463846FDF792FF05B0F0BDB0100000F6
:10C6B000EC200020FEB51E2000250090019502957B
:10C6C00001A804F025FA04F01DFA20490968204C5D
:10C6D00088420CD304F0F0F90420A90062586D1CC4
:10C6E0000243EDB26250032DF7D3FDF7F7FE694622
:10C6F000C87A002201238340087A497A9600A55916
:10C700002F043F0E1F421AD0EF0618D56F0716D51B
:10C710002F023F0E874212D12D0E8D420FD1920073
:10C72000A2580425AA43A2511204150E2D0603D4C3
:10C73000120E9A4333195A7000F072FC03E0521C37
:10C74000D2B2032ADAD30098FEBD000000210020F7
:10C7500020300020F8B5224801694A1C3DD024222F
:10C760005143826889184E681E494C6847690079B0
:10C77000E11B0D022D0AED1C002814D101201A4ADC
:10C7800000045060184A403A506018494000086060
:10C79000174908601749012008602F20FBF7AAFC01
:10C7A0000F4901200871B54200D23546E819000250
:10C7B0000C49000A403108600A494968001B091BFE
:10C7C0000902090A0002C91C000A814204D9012099
:10C7D0000649400480390860F8BD03F06FFBF8BDDE
:10C7E000AC200020001501404013014080E200E031
:10C7F00000E100E000100140F8B50D461178064652
:10C80000881D14461F2801D90C20F8BD3388072045
:10C81000062BFAD31927FF01BB4202D9164A9342CD
:10C82000F3D17288062AF0D3BA4202D9124FBA4223
:10C83000EBD1114FBB4203D0BA4201D09342E4D8AE
:10C84000481C052220706A5420781222411C217055
:10C850002A5420784119308804F0CAFC2178401805
:10C86000C0B220704119708804F0C2FC21784018D1
:10C8700020700020F8BD0000FFFF000010B500226E
:10C880001146FEF78FFC10BDF8B5164801F050FEBA
:10C89000144D0026103D144C002807D06169002972
:10C8A0001BD001206A461070684615E028780028E1
:10C8B00005D06169002910D0684606700CE06878E0
:10C8C00000280CD0A16800226868FEF747FE002807
:10C8D00003D0A169002900D088472E70F8BD616897
:10C8E000F1E70000582000206C260020F3B5002559
:10C8F00081B00E46002919D00D4CFF2720682D3736
:10C90000B84213D2002801D101F0A8FA20463C30E9
:10C910000AE02168B94205D2019A525D0A542168A1
:10C92000491C21606D1CADB2B542F2D3FEBD0000C2
:10C93000C8290020044900204882FF3921390870A5
:10C940008870C87070470000C834002010B503F02C
:10C95000D7FD10BD1A2101702B2141703C2181703F
:10C960004D21C1707047F7B5FFB000209FB00C900B
:10C97000019002900390099004460790089004905B
:10C9800005900690C0210DA8FBF760FCC0213DA8D2
:10C99000FBF75CFCC0216DA8FBF758FC9F980DAD20
:10C9A000470039462846FBF751FC0A232A469F993F
:10C9B0009E98FCF76FFA3DAD39462846FBF746FCDA
:10C9C0002A469E999F9800F04BF96DAE3946304645
:10C9D000FBF73CFC33462A4600219F9803F06EFE8D
:10C9E0000DA8019025A802903DA8079055A8089091
:10C9F0009F990198FBF72AFC9F990298FBF726FC68
:10CA00009F990798FBF722FC9F990898FBF71EFC5B
:10CA10006846848101A80090334600229F999E9821
:10CA2000FCF777FA68468089002822D0684684841B
:10CA300007A80090334600229F999E98FCF7A0FA21
:10CA40006846808C002814D06DA804906030059052
:10CA500004AA07A901A802F0D9FE04A802F024FE46
:10CA60006846008B012804D904A8A09902F03EFF73
:10CA70000C900C987FB022B0F0BD0000F3B599B0D7
:10CA800076490968481C04AA012103F017F9684691
:10CA9000007CFF2803D06846007C002801D11BB031
:10CAA000F0BD6E490968481C04AA012103F006F98B
:10CAB0006846007CFF2803D06846007C002800D12F
:10CAC000EDE7664903AA0868012103F0F7F8684614
:10CAD000007BFF2803D06846007B002800D1DEE7FA
:10CAE0006846007B002801D1102003906846007C36
:10CAF000002808D1002403E0002119980155641C86
:10CB0000202CF9D3CBE755490968081D07AA042151
:10CB100003F0D4F86946CE7F0020012118901691C9
:10CB200017903046169B179A1899FBF739FB694600
:10CB3000897F090442186946487F00021218087F5D
:10CB400010180090454909680846083007AA0421D2
:10CB500003F0B4F86946CF7F0020012115901391AE
:10CB600014903846139B149A1599FBF719FB6946E4
:10CB7000897F090442186946487F00021218087F1D
:10CB800015180195019D3549096808460C3007AA1A
:10CB9000042103F093F86946C87F00210122119116
:10CBA0000F92109112900A460F9BFBF7F9FA694613
:10CBB000897F090441186846407F000209186846C9
:10CBC000007F08180190019808901A9800090990B0
:10CBD000099989004919214A1268881806AA04216E
:10CBE00003F06CF86846C07E002101220D910B9283
:10CBF0000C910E900A460B9BFBF7D2FA6946897E90
:10CC0000090442186946487E000211186846007EF1
:10CC100008180A9009980101089808180F4909682E
:10CC2000401802901A980407240F0DE002994A1C3C
:10CC30000846029205AA012103F040F86946097DE1
:10CC40000A9840180A90641E002CEFD16846027BB7
:10CC50000A99199804F0D2FA00BF20E77022002048
:10CC600070B50023022823D94B880C881B1B138026
:10CC700044006318203BDD8B9B8BA418EB1A203CEF
:10CC8000E3830123801E0BE05D006C186688203C66
:10CC9000E48B341BE60F341964105B1C54539BB2B5
:10CCA0008342F1DB70BD5C000D5B5B1C15539BB2D6
:10CCB0008342F8D370BD0000F8B500260124154D5D
:10CCC00024E06968F00047183878214681406A6995
:10CCD0000B46134218D08A436A6102F07FFA3A7811
:10CCE00021462B69914019400346934099420BD14C
:10CCF0007978012901D0012100E000217B684140C1
:10CD0000002B01D010469847761CF6B22878864250
:10CD1000D7D3F8BD9420002010B500F007FFFCF732
:10CD2000C7FEFEF71BFFFDF7CDFF03F0B3FFFCF7D7
:10CD3000A9F8FDF791FE03F013FA01F051F9FCF7A1
:10CD400081F800F015FFFCF731FC10BD10B5034869
:10CD500002F096FA02490820886010BD7C18020093
:10CD60000005005030B50446002210462BE0A35CBD
:10CD70001D46203D5F2D17D9012B15D0813B7D2B02
:10CD80001BD8022921D3A3185B781D46403DBE2D38
:10CD90000FD9303B092B0CD8042916D3121DD2B25F
:10CDA000091FC9B210300DE0521C491ED2B2C9B2DF
:10CDB00007E0921CD2B2891EF3E7491E521CC9B289
:10CDC000D2B20830C0B20029D1D130BDF8B50E467C
:10CDD00014460146FFF7A4FB002867D1344D002913
:10CDE00054D0FFF7F9FB012001F0C2FC314800905C
:10CDF000102338220221002000F05EF82046002196
:10CE000025E0725C1346203B5F2B15D9012A13D015
:10CE1000813A7D2A18D8022819D3721852781346FD
:10CE2000403BBE2B0CD9303A092A09D8042807D335
:10CE3000091DC9B2001F0AE0491CC9B2401E06E024
:10CE4000891CC9B2801E02E0401E491CC9B20028DC
:10CE5000D7D1C806000E802806D28021081AC10F3B
:10CE60000818C005010E00E0002100220220FDF795
:10CE7000ADFB00231A462146304600F0EFF91E2094
:10CE8000687005202870002101200DE0FCF7F8FAF9
:10CE900005280BD1002028706870FFF79DFB00204B
:10CEA00001F066FC00210846FCF7CEFDF8BD00004D
:10CEB00030210020301A0200F8B50E4617A109688B
:10CEC0000091694609780024081869460870487876
:10CED000110940186946487088781107090F4018F1
:10CEE00069461F462546887014E00A460323002140
:10CEF000782000F04BFE06983B46421940217820EE
:10CF000000F044FEE81985B269460878401C641CAC
:10CF10000870E4B2B442E8D3F8BD0000B0100000DD
:10CF2000F0B500258FB00F46C4B22E46FFF7F8FAD1
:10CF3000002870D102900390202104A8FBF786F905
:10CF4000002F3CD1802C14D9641EE043C0B2372896
:10CF50000ED3462801D201260AE04B2801D2022630
:10CF600006E0552801D2042602E05A2800D20626FF
:10CF7000344602AE0A212046FBF7E8F871556D1CD5
:10CF80000446EDB20028F5D104E0315C3031315473
:10CF9000401C80B2A842F8D300206A0808E0291A91
:10CFA00089192039335CCC7F3454401CCB7780B254
:10CFB0008242F4D82A4602A904A8FBF72EF90120E0
:10CFC00001F0D6FB15480090102300220221012019
:10CFD000FFF772FF002210210120FDF7F7FA00236E
:10CFE0001A46294604A800F039F90C48EC00203014
:10CFF000009020461030C2B2102302210120FFF71A
:10D000005BFF0648203440380090E2B21023022132
:10D010000120FFF751FF0FB0F0BD0000D01B020050
:10D02000FEB50E460446FFF77BFA00283ED1FFF717
:10D03000D3FA012001F09CFB1D4800220090202320
:10D0400004211046FFF738FF002228210120FDF7B8
:10D05000BDFA0A212046FBF779F804073A206B460F
:10D060000D469871240F0A213046FBF76FF802072E
:10D07000084630346B4629461C713031120F597105
:10D080003032DA713030187200231A46052101A8B7
:10D0900000F0E4F8074901204870074819210170A1
:10D0A0001E21417000210120FCF7CEFCFEBD0000D6
:10D0B00010190200EC2000203021002010B50022C1
:10D0C000802304211046FFF7B9FA10BD0448017807
:10D0D000142903D10021017005214170704700001F
:10D0E00030210020FFB5144685B00D460246FFF7FB
:10D0F00017FA00287ED10A211046FBF727F80246CE
:10D1000030316846C17110460A21FBF71FF802460C
:10D1100030316846817110460A21FBF717F8024644
:10D1200030316846417110460A21FBF70FF8303163
:10D1300068462D26017130270672092D07D90A216C
:10D140002846FBF703F830306946487200E0477222
:10D150000A212846FAF7FAFF303168468172C67212
:10D16000092C07D90A212046FAF7F0FF303069462A
:10D17000087300E007730A212046FAF7E7FF303111
:10D180006846417300220A240C211046FDF71EFA5E
:10D1900000231A46214601A800F060F80A210E98E3
:10D1A000FAF7D4FF0207120F3032684602713031AD
:10D1B00041713A2181710A210F98FAF7C7FF0207DE
:10D1C000120F30326846C2713031017200220C21D8
:10D1D0000220FDF7FBF900231A46052101A800F003
:10D1E0003DF800223A210220FDF7F0F90898104D91
:10D1F000840000E017E02859FBF733F801460023CC
:10D2000028591A4600F02AF86820FBF729FAFCF79B
:10D2100001FE012809D0074800901023682202214E
:10D220000020FFF749FE09B0F0BD02482030F3E7C7
:10D2300038210020501B020010B507490A79012A45
:10D2400008D94879521E904204DA401CC0B2487195
:10D2500000F0ECF810BD0000C8290020FFB58BB02D
:10D260000E460025202101A8FAF7F0FF0127464CC1
:10D2700081E00B98405D014620395F292CD90128B7
:10D280002AD061397D296AD80027022E77D30B98DE
:10D2900040190990407801464039BE2936D8207897
:10D2A0001030C0B2802801D9FFF7F2F801A8009031
:10D2B00009982023417802780802104341BA0022DD
:10D2C000104601F059F82178607801AA00F05EF864
:10D2D0002078103020703EE0207800270830C0B25F
:10D2E000802801D9FFF7D4F80B9801AA405D0321EB
:10D2F000FBF719F82178607801AA00F06FF86D1C2F
:10D300002078761E0830EDB2207034E030380928DD
:10D3100021D8042E33D320781030C0B2802801D910
:10D32000FFF7B6F801A80090099820234178027809
:10D330000802104342BA41BA002001F01DF82178DA
:10D34000607801AA00F022F820782D1D103020709E
:10D35000EDB2361F0FE0AD1CEDB2B61E0BE00A2891
:10D3600006D1002F02D1207800280AD0FFF790F8CC
:10D37000761E6D1CEDB2002E01D07AE7FFE70FB0EC
:10D38000F0BD0127F4E700002621002038B5B030B9
:10D390006B4618700809103058700807000F987015
:10D3A000144603236A460021782000F0EFFB102387
:10D3B00022464021782000F0E9FB6B4618786A4647
:10D3C000401C187003230021782000F0DFFB10239D
:10D3D000E2184021782000F0D9FB38BD38B5B030D4
:10D3E0006B4618700809103058700807000F9870C5
:10D3F000144603236A460021782000F0C7FB082367
:10D4000022464021782000F0C1FB6B4618786A461E
:10D41000401C187003230021782000F0B7FB08237C
:10D42000E2184021782000F0B1FB38BD70B51C4EE9
:10D4300005463079B2B0002830D0A8422ED928460F
:10D44000002406E0401EC0B24100411889198979C4
:10D450000C190028F6D1012001F08AF9680028187B
:10D460008519AA79FF202D306B46824200D90246E9
:10D47000844208D8A118814200D9021B31193C31DD
:10D480001846FAF7CAFEFFF719FE0023A9791A46D3
:10D490006846FFF7E3FE1420FDF7A8F832B070BD30
:10D4A000C8290020FFB589B0129F159E139D149CBA
:10D4B000FFF736F8002848D10097039601950294AB
:10D4C0000AA90EC922A0FBF749F800970396019517
:10D4D00002940AA90EC928A0FBF740F80C98092865
:10D4E00004D90A21FAF732FE303000E030206946D4
:10D4F00008740A210C98FAF729FE30316A465174F3
:10D500003A2696740A212846FAF720FE0007000FF3
:10D5100030306A46D0743031117556750A21204674
:10D52000FAF714FE0007000F30306A46907530316C
:10D53000D175082400220C210998FDF747F8002333
:10D540001A46214604A8FFF789FE0DB0F0BD000081
:10D55000736C656570202564C4EA2564D4C22564B3
:10D56000C8D52CD6DC25642C2564CAB12564B7D671
:10D570002564C3EB0D0A0000736C65657020686557
:10D5800078202578C4EA2578D4C22578C8D52CD649
:10D59000DC25782C2578CAB12578B7D62578C3EB59
:10D5A0000D0A0000F0B50646002093B00446022E96
:10D5B00004D0032E05D0042E08D105E0FDF79EFD12
:10D5C00004E0FDF795FD01E0FDF788FD0EAD0A21B1
:10D5D000FAF7BCFD2955641CE4B20028F7D104E039
:10D5E000295C30312954401CC0B2A042F8D300213C
:10D5F000630809E00EA8621A1218203A455CD77F2A
:10D600004754491CD577C9B28B42F3D88020BD4915
:10D6100006AD022E34D0032E79D0042E78D0052EFC
:10D620002CD100246846047504828474C474C475C3
:10D6300044758475214604A803F0C8FA6846837DC2
:10D64000427D017DC07D6E460FC66846C37C827CEC
:10D65000018A0020FFF726FF214604A803F0B6FA4E
:10D660006846837D427D017DC07D6C460FC468465F
:10D67000C37C827C018A0220FFF714FF13B0F0BD47
:10D68000072C34D221460C2251433431C9B28029AF
:10D6900005D2401AC10F0818C005070E00E0002788
:10D6A0009948009020233A4604210020FFF704FC0B
:10D6B000002615E00EA8815D3020414393480C23DD
:10D6C000091809200002081A00900C207043C019A4
:10D6D0002030C2B204210020FFF7EEFB761CF6B228
:10D6E000A642E7D32023002289490095CDE00B2CE8
:10D6F00002D2E200303201E0E2002032D2B2802ACF
:10D7000007D2801AC20F1018C005060E02E023E0EF
:10D7100084E0002600912023324604210020FFF7F8
:10D72000CBFB30462030C1B200220120FCF74EFF77
:10D7300000231A4621460EA8FFF790FD0B2C9DD220
:10D740002023002272490095D3E0C2B210230221A7
:10D750000120FFF7B1FB91E7072C33D222460C23BF
:10D760005A433432D2B2802A05D2801AC20F10181E
:10D77000C005070E00E00027009120233A4604214F
:10D780000020FFF799FB002615E00EA8805D3021F0
:10D7900048435E490C23411809200002081A0090F2
:10D7A0000C207043C0192030C2B204210020FFF7C2
:10D7B00083FB761CF6B2A642E7D32023002255490C
:10D7C000009562E00B2C02D2E200303201E0E20070
:10D7D0002032D2B2802A05D2801AC20F1018C0059A
:10D7E000060E00E00026009120233246042100208E
:10D7F000FFF762FB30462030C1B200220120FCF767
:10D80000E5FE00231A4621460EA8FFF727FD0B2C44
:10D81000A1D2202300223F4900956AE0394A803A8C
:10D82000072C3BD221460C2359433431C9B28029FD
:10D8300005D2401AC10F0818C005070E00E00027E6
:10D84000009220233A4604210020FFF735FB0026F2
:10D8500015E00EA8805D302148432C490C23411867
:10D8600009200002081A00900C207043C0192030D3
:10D87000C2B204210020FFF71FFB761CF6B2A642BD
:10D88000E7D32023244900220095002000F074FDF6
:10D890000C204643F0192430009556E70B2C02D299
:10D8A000E100303101E0E1002031C9B2802905D228
:10D8B000401AC10F0818C005060E00E000260092AD
:10D8C0002023324604210020FFF7F6FA30462030AC
:10D8D000C1B200220120FCF779FE00231A4621463E
:10D8E0000EA8FFF7BBFC0B2C92D220230A49002282
:10D8F0000095002000F040FDE000801920300095E8
:10D9000023E70000D01A020090190200B01C0200A8
:10D91000BDB20000D7C30000A8BF000010B5064983
:10D920000879012807D94879002804D0401EC0B2E0
:10D930004871FFF77BFD10BDC829002010B50E49C6
:10D9400000238A78CC78A24212D0521CD2B28A70BC
:10D95000022A00D18B708A78074B92001C339A58A8
:10D960000260486910180002000A4861012010BDD9
:10D970000360002010BD0000AC20002007480179A2
:10D98000012909D100210171BFF34F8F05490448D6
:10D99000C860BFF34F8FFEE7704700006022002091
:10D9A0000400FA0500ED00E010B5094C20780128CC
:10D9B0000CD1002002F000FB6078002804D0401E4B
:10D9C0000006000E607001D103F04EFB10BD000098
:10D9D0000E21002038B500200090FBF72DFC094DEA
:10D9E0000424EC600520FCF761FE01216846FCF789
:10D9F00019FEAC6068460078C007F2D1FBF71DFC49
:10DA000038BD00000005005070B5054C0425E560E8
:10DA10000620FCF74BFEA560FFF7DCFF70BD0000A1
:10DA20000005005010B5FBF709FC012001F000FBD8
:10DA3000FFF7D0FF10BD0000F7B582B017460446CF
:10DA4000FBF7FAFBFFF7C6FFFFF7DEFF0B4E0425DF
:10DA5000F560022168460170210C4170210A817035
:10DA6000C4702946FCF7FCFD39460398FCF7F8FD25
:10DA7000B560FBF7E2FB05B0F0BD0000000500500B
:10DA8000F8B50446FBF7D8FBFFF7BEFF094E0425A7
:10DA9000F560202168460170210C4170210A8170D7
:10DAA000C4702946FCF7DCFDB560FFF793FFFBF778
:10DAB000C4FBF8BD00050050F7B582B01746044618
:10DAC000FBF7BAFBFFF786FF0B4E0425F560032139
:10DAD00068460170210C4170210A8170C47029468A
