:020000040001F9
:10800000E83C0020158101002F8101003181010031
:108010000000000000000000000000000000000060
:10802000000000000000000000000000338101009B
:1080300000000000000000003581010037810100D0
:1080400039810100398101008DAE010039810100C3
:108050003981010000000000D9950100398101003B
:10806000EDAB0100FDAB01000DAC01003981010059
:108070003981010039810100398101003981010014
:1080800059AF0100EDA801003981010039810100DB
:108090000DA901003981010061A9010039810100A8
:1080A000398101003981010000000000000000005A
:1080B00000000000000000000000000000000000C0
:1080C0000348854600F0E8FA00480047E5F701005C
:1080D000E83C0020401E00BF00BF00BF00BF00BF43
:1080E00000BF00BF00BF00BF00BF00BF00BFF1D195
:1080F00070470000401E00BF00BF00BF00BF00BFB0
:1081000000BF00BF00BF00BF00BF00BF00BFF1D174
:10811000704700000321094802680A4302600848CA
:1081200002680A4302600748804707480047FEE7A5
:10813000FEE7FEE7FEE7FEE7FEE70000240500405D
:108140005405004099AB0100C180010030B50B46D9
:10815000014600202022012409E00D46D5409D4221
:1081600005D31D469540491B2546954040191546A7
:10817000521E002DF1DC30BD70B5002425460028CC
:1081800001DA01244042002901DA01254942FFF7C2
:10819000DDFFAC4200D04042002C00D0494270BD0F
:1081A000F0B51FB486B000200090019002900698B0
:1081B000069980B204900798090C02040014114338
:1081C00007900027089D099806913E463C4603907B
:1081D0000398A9B20204000C039004982D0C1543D7
:1081E00048430021224600F080F8C719714110343D
:1081F0000E46402CECDB3846029A00F076F8009AE6
:10820000019B801800905941029801911030029012
:108210004028CCDB00980BB0F0BD03460B439B0716
:1082200003D009E008C9121F08C0042AFAD203E0EB
:108230000B78491C0370401C521EF9D27047D2B211
:1082400001E00270401C491EFBD270470022F6E795
:1082500010B513460A4604461946FFF7F0FF2046BC
:1082600010BD421C0178401C0029FBD1801A7047C8
:1082700030B504460020034600E05B1C934203D265
:10828000E05CCD5C401BF8D030BDF0B51FB40646B5
:10829000002082B005464024019100901BE0019926
:1082A00022460F46304600F009FA049A059B801AD0
:1082B000994110D310461946224600F016F8361A96
:1082C0008F410197224601200021009F00F00DF808
:1082D00038184D4100902046641E0028DFDC019BC9
:1082E00000982946324607B0F0BD10B5202A04DBBD
:1082F0000146203A9140002010BD914020239C1A55
:108300000346E3401943904010BD0000F0B5074616
:108310000846584087B0C00F049048000E465900E8
:1083200040084908BC1A884105D2384631461E46E5
:1083300017460B46024658004008104303D1384602
:10834000314607B0F0BD300D039040055900400D97
:10835000490D0590401A029040286DDA180301215A
:10836000000B09050843019004980092002805D0ED
:1083700001995242002088410092019002984021C8
:108380000A1A01990098FFF7B0FF05460C466846A7
:1083900007C800F0A4F9C0197141039A0E0D00231B
:1083A000D71756401A467A40164340D0049A002AFE
:1083B00029D0029A012A039A11DC1205C01A9141B0
:1083C00001263605001C7141D20F059ED20700938D
:1083D000019202962A46234600F0A1F9B1E716055C
:1083E000224A0F46B218C01AB74101210905001CE4
:1083F0004F4100187F41114618187941E20F104390
:108400006D19644113E0E2076D0815436408C20763
:108410001443039A01261205C01A91413605001C27
:108420007141CE07400830434908C01851412A46DF
:10843000234600F067F984E7049801224000C11741
:10844000121A00238B4104983146C417381AA141EF
:10845000EFE730B40124E407634030BC56E730B4A2
:108460000124E407614030BC50E700000000E0FF59
:10847000F0B51FB488B00B990998002448400999B9
:10848000C00F490049080991C0070B9900904900A5
:1084900049080B9109990898A646084303D00B99FF
:1084A0000A98084303D1002001460DB0F0BD099899
:1084B00001244000420D4800410D099824050003A5
:1084C000000B204309900B980003000B20430B90F6
:1084D00050181A494018002201901446104601E035
:1084E000032801DA034600E003239C46C11A0AAEC2
:1084F0000AE05F0008ADED5B4F00F75B7D430027AE
:10850000AA187C415B1E491C6145F2DD410004ABA9
:108510005A522104120C0A43240C401C0828DFDBA9
:10852000019802900099704601910090059B049A71
:108530000799069800F0F3F8B7E700000DFCFFFF7D
:10854000F0B50C465C4085B0E40FE40703944C00A2
:1085500000266408590094464908024602962243C0
:1085600021D062460A431ED06200570D4A000E0316
:108570002303550D012402462C492405781B1B0BAF
:10858000360B401823432643614600901C46501A80
:10859000B44103D30098401C009002E09218009868
:1085A0005B41002803DA0020014605B0F0BD002041
:1085B000012109050746864611E064461D46141B45
:1085C000B54106D36546521BB341744607430C437D
:1085D000A646CD0740084908284392185B41054646
:1085E0000D43EAD11046184313D060461946504057
:1085F0007140084303D100220123DB0709E06046F4
:10860000101AB34102D20122002302E00122D24318
:108610005310009874460105381C6141029C039D6B
:108620000019694100F06EF8BFE70000FD0300008B
:108630004A0009030123090B1B0519430A4B10B516
:10864000520D9A4202DA0020014610BD064B343327
:108650009A4203DC9A1A00F031F810BD034BD2188D
:10866000FFF743FE10BD0000FF030000CDFBFFFF3E
:1086700010B5002904DB0124E40740428C41214667
:10868000002B04DB1C460123DB075242A341994225
:1086900000D1904210BD0000064C0125064E05E0B9
:1086A0002046E36807C82B4398471034B442F7D3F9
:1086B000FFF70AFD442C0200642C020010B5202AAA
:1086C00004DB0846203AD040002110BD0B46D340C1
:1086D000D0402024A21A91400843194610BD10B57D
:1086E000202A06DBCB170846203A1041C1170B435E
:1086F00006E00B461341D0402024A21A91400843C3
:10870000194610BD10B5002B08DA0024401C614149
:1087100092185B411A4301D14008400010BDF0B5EA
:108720001FB482B005460C0003D0084602F03AFCA4
:1087300002E002F037FC2030024600902146284635
:10874000FFF7D3FD049B059A04460F4618431143D7
:10875000084303D12046394607B0F0BD1846104300
:1087600017D0009840210A1A18460599FFF7A6FF6E
:1087700005460E46009A05990498FFF7B6FD084392
:1087800001D0012000E00020C11705430E432C4317
:10879000374300990E986305401A7905E40A0A30B8
:1087A00000220C43FD0A002802DA00200146D3E72C
:1087B0000105101969410C9C0D9D00196941FFF7D5
:1087C000A1FFC9E770B58C180578401C6B075B0FDB
:1087D00001D10378401C2A1106D10278401C03E025
:1087E0000678401C0E70491C5B1EF9D12B0705D47E
:1087F0000023521E0DD40B70491CFAE70378401C6D
:10880000CB1A921C03E01D785B1C0D70491C521E94
:10881000F9D5A142D8D3002070BD70B504460D46ED
:108820001646202C14D37F2C12D8032D0CD12146B0
:10883000203909016A0289180522920488183246F3
:10884000102108F05DF900E000BF00BF012070BDFD
:108850000020FCE710B502F0E1F90149088010BDE5
:108860009021002000B52A498BB003C909910890D6
:108870001F226946002006F029F868460078AA28D9
:108880003AD168464078552836D16846C0780028E5
:1088900002D0FF2815D028E068460079002824D1AE
:1088A00068464079002820D16846807900281CD18C
:1088B0006846C079002818D16846007A00281BD085
:1088C00013E068460079FF280FD168464079FF28F9
:1088D0000BD168468079FF2807D16846C079FF2808
:1088E00003D16846007AFF2806D000A908A806220E
:1088F00003310130FFF791FC08A9002070DF002848
:1089000003D00022114603F01DFB0BB000BD000098
:108910008024020070B516460C460546012901D098
:10892000022C04D10C460C34451EE4B2ADB2601CDE
:10893000410040180521FFF709FC61008919401822
:108940004019A908441864212846FFF7FFFB241AA0
:10895000FF2191312846FFF7F9FB20180721FFF787
:108960000BFCC8B270BD0000044800694004C00F91
:1089700001D0002070470120704700000005005022
:1089800010B50F2004F0D8FC002810D101F096FC9F
:1089900000280DD0094CA078012808D100202056CD
:1089A000002105F089F90020A07008F0EDFD10BD50
:1089B00002490120891D487010BD00002A210020B5
:1089C0000149002048717047602200200FB400B5B3
:1089D000C1B043AA6846429902F0D2FA684608F04C
:1089E000C3FB41B008BC04B01847000010B5A2B0EA
:1089F00004F070FC002832D11A2004F09DFC0028FD
:108A00002DD0002001ACFF212154401CC0B2802891
:108A1000FAD3012006F0B2FD05F01CFA00228023F3
:108A200001211046009405F013F901218023002252
:108A30000846009405F00CF9802300220121022051
:108A4000009405F005F98023002201210320009401
:108A500005F0FEF803481A2101700221417022B08E
:108A600010BD00003021002010B50446FF281ED0A4
:108A70001D480078012803D10021084601F038FA8A
:108A80000F2C27D0552C15D0AA2C07D0F02C0ED1A6
:108A900004F016FC00281BD0F02020E004F010FCAD
:108AA000002805D0AA2008F012FA05F003FE10BD38
:108AB000AA200AE004F004FC002805D0552008F0A4
:108AC00006FA05F085FA10BD552000F003F910BD37
:108AD000F020FAE704F0F4FB002803D00F2008F0A0
:108AE000F6F910BD0F20F0E7EC200020F8B507469E
:108AF000012006F043FD00F013FE054602F0E4F904
:108B00000026304C012805D0A6806670142D47D869
:108B1000002052E0FFF728FF0146042001293AD146
:108B200001220A2D07D821780025012901D32570BB
:108B300021E0491C1EE0192D05D8217801250129C5
:108B4000F7D3267017E0322D05D8217802250229A7
:108B5000EFD322700FE0552D05D821780325032986
:108B6000E7D3022106E0642D05D8217804250429E5
:108B7000DFD3032121706178A94202D06570A680FD
:108B800002E0A188491CA180052D00D12070A18898
:108B90000D4A914200D92070207804280CD80CE0AE
:108BA0001E2D01D8012008E03C2D01D8022004E050
:108BB000552D01D8032000E00420394600F032FA98
:108BC000F8BD0000242100206810000070B50025C9
:108BD0001A490F2829D00A4656680223F2B2D41E39
:108BE000552817D0AA2808D0F02809D1230002F070
:108BF000F0F9061C1C1C1C1C1E1C022A01D20B7145
:108C000070BD521CD0B20A710A2801D202280CD2BF
:108C10000B710AE0022AF2D3521E0A71D2B2092065
:108C2000022A01D30A2A00D308714D7170BD3004A5
:108C3000000EFBD10120487170BD000030210020E2
:108C400010B58AB000216846017020A40A46084683
:108C500001F010FF00231A460421204605F0CAF94E
:108C6000694601A800F0B0FD00222821104601F05D
:108C700001FF6846002301781A4601A805F0BAF9F9
:108C800000222821022001F0F5FE202201A928203F
:108C900005F01CFE68460079AA2803D16846407991
:108CA00055280CD0694601A800F056FD68460023FF
:108CB00001781A4601A805F09DF90AB010BD684672
:108CC000002381791A46C01DF5E70000B0E6B1BE69
:108CD00000000000F0B58BB0014604F0F1FA002866
:108CE0004DD1BB4C60680206120E02D10004000E8A
:108CF0003FD0FF2943D00846FFF768FF60680104B2
:108D0000090E012904D0C0B2082801D000F0E4FD0A
:108D100060680104090E34D0C0B208282FD100F0D9
:108D20000FFE0F2824D0002280230421104604F0D7
:108D300055FB012006F022FC0F20207001F0BEFA46
:108D400000287AD0A3A5012001F0B2F90022114633
:108D5000012001F08FFE2846FFF783FA0146002329
:108D60001A46284605F046F93C20607008F00CFCD5
:108D700026E100F0A3F905206070012020710BB0FE
:108D8000F0BDC0B2801E030002F023F908061A2FBE
:108D90004358ABBCF605F2E700F0D2FD06280BD035
:108DA000002280230421104604F018FB012006F065
:108DB000E5FB022005F0C2FA05206070062012E0F3
:108DC00000F0BEFD07280BD00022802304211046AE
:108DD00004F004FB012006F0D1FB032005F0AEFAFD
:108DE0000520607007202070C9E700F0A9FD082861
:108DF0000BD0002280230421104604F0EFFA01205A
:108E000006F0BCFB042005F099FA052060700820EC
:108E1000E9E700F095FD09280BD00022802304210A
:108E2000104604F0DBFA012006F0A8FB052005F04F
:108E300085FA052060700920D5E7B0E067A600F04C
:108E40007FFD0A2838D0002280230421104604F038
:108E5000C5FA012006F092FB3046FFF702FAC5B2D0
:108E60002946304600F05DFD00220146104601F023
:108E700001FE00231A462946304605F0BBF8282299
:108E80006946002005F022FD68460078AA2803D133
:108E900068464078552813D00E25294650A000F08A
:108EA00040FD01460022022001F0E4FD00231A46A5
:108EB00029464BA005F09EF81E2060700A2092E71C
:108EC000684681780930054600F02BFD01460022F6
:108ED000022001F0CFFD6846817800231A4628461B
:108EE000E8E700F02DFD0B2808D0002280230421A4
:108EF000104604F073FA002000F0CAF905206070F3
:108F00000B2070E73AA73DA600F01AFD0D282ED0E1
:108F1000002280230421104604F060FA012006F0AC
:108F20002DFB3046FFF79DF9C5B22946304600F0CB
:108F3000F8FC00220146104601F09CFD00231A4671
:108F40002946304605F056F83846FFF78AF9C5B28B
:108F50002946384600F0E5FC01460022022001F0D7
:108F600089FD00231A462946384605F043F80520B6
:108F700060700D2037E7FFE700F0E2FC0C280AD014
:108F8000002280230421104604F028FA012006F074
:108F9000F5FAFFF755FE052060700C2023E700224C
:108FA00019A51146012001F065FD2846FFF759F982
:108FB000014600231A46284605F01CF8052060707B
:108FC00000F0BEFC014613A0FFF700FDD7E600004D
:108FD00030210020B2E2C1BFD6D0000049440000D9
:108FE000425342313530323032303030313100008E
:108FF000B0B44F4BB2E9D1AF00000000B2E9D5D216
:10900000CAD6BBFA00000000CEB4C1ACCAD6BBFAC7
:1090100000000000736574206469737461673D2506
:10902000780D0A0008B5030001F0D3FF050406100F
:1090300013160F000A4801E0094820380A460221A9
:1090400000901023084604F003FE08BD0448403891
:10905000F4E703486038F1E701488038EEE70000A4
:109060004029020010B51448018809040A0E21D0D5
:10907000090E491E417000880004000E1AD100F04C
:109080005FFC052803D000F05BFC192803D1002108
:10909000084600F02DFF00F053FC0F2801D100F02E
:1090A0001BFC04F00DF9002804D101F00DFF002095
:1090B00006F064FA10BD000030210020F0B589B040
:1090C000002504F007F9002802D0002009B0F0BD07
:1090D00002F0E4FE03AE06900A21FFF737F871555F
:1090E0006D1CEDB20028F7D10790012006F046FA7A
:1090F000182004F021F9002801D004F0ABFE01A8EB
:1091000008F05EFB6846007A0A21FFF71FF8800727
:10911000564C574F800F04D030214843001900901F
:1091200000E000970C2304210020079A04F090FD32
:109130006846007A0A21FFF709F8302041430819F0
:109140000C2300901A460421002004F081FD4948B8
:10915000009018220C230421002004F079FD6846B9
:10916000407A0A21FEF7F2FF0007000F3021484342
:10917000001900900C2324220421002004F068FD33
:109180006846407A0A21FEF7E1FF30204143081982
:1091900000900C2330220421002004F059FD3C24CF
:1091A000062D07D20823224604210020009704F050
:1091B0004FFD4424002004E0315C30313154401C28
:1091C000C0B2A842F8D300206A080AE0335C291A2A
:1091D00089199C462039CB7F33546346401CCB779A
:1091E000C0B28242F2D82846202102E03154401C0D
:1091F000C0B20628FAD3204800901023224602214C
:10920000002004F025FD214600221031104601F017
:1092100031FC1A490698884204D900231A460621CF
:1092200017A009E0062D03D200231A46052102E00B
:1092300000231A46062103A804F0DCFEA01CFFF759
:1092400055FC01F03BF801280DD000972246022181
:1092500012321023084604F0FBFC0B49182008705A
:109260000120087132E709480090EFE76029020009
:1092700040250200402B0200C02602003F420F00A2
:1092800039393939392B00003021002020280200DB
:1092900000B585B0012803D104F01CF8002821D1C5
:1092A000114800880004000E01281BD0012006F0A0
:1092B00065F900216846017481818173C173C174AD
:1092C0004174817403A808F07BFA6846827C417C73
:1092D000007C6B4607C36846C37CC27B817B808968
:1092E00004F0CCFD05B000BDEC20002038B5FF2413
:1092F0002D340C4A00210C4806F000FF002803D052
:109300000022114602F01EFE2146074806F06EFFBD
:1093100001210B46024600910021034806F0D6FECB
:1093200038BD0000891B02002C25020010B505F095
:1093300079FE0149488010BD54220020FFB5064641
:1093400081B00020009002981D46471B002412E0C7
:109350000022104605E021184900715A8A18401C65
:1093600080B2A842F7D329461046FEF7EFFE61000F
:10937000641C7052A4B2A742EADCBCB212E0002224
:10938000104605E0211A4900715A8A18401C80B223
:10939000A842F7D329461046FEF7D8FE6100641CA8
:1093A0007052A4B202988442E9D30098401CC0B223
:1093B00000900228CAD305B0F0BDF0B5964600244F
:1093C0000A22059D84460A2906D84A08022901D89E
:1093D0000846F0BD012A04D950084000401E80B262
:1093E00000E00120401E891A80B2491E17E04600A5
:1093F0009F5F002F11DBF7180222BA5E002A0CDAF9
:109400006746BF5B774508D967002A68641CD0535C
:109410006246965B6A68A4B2D653401C80B2814211
:10942000E5DC2C812046F0BDF0B5964600240A22EA
:10943000059D84460A2906D84A08022901D808460B
:10944000F0BD012A04D950084000401E80B200E05F
:109450000120401E891A80B2491E17E046009F5F16
:10946000002F11DAF7180222BA5E002A0CDB6746D9
:10947000BF5B774508D967002A68641CD0536246F1
:10948000965B6A68A4B2D653401C80B28142E5DC88
:109490002C812046F0BDC1788278090211434278C0
:1094A000090211430078090208437047F3B581B0FF
:1094B0000C46002301980002020C0198C1B27F29DA
:1094C00001D10020FEBDA12A0BD3A32A09D8A129CE
:1094D00007D31046A1385E2670430E46A13E83197D
:1094E0000CE0A92A0AD1A12908D3901A5E2670435C
:1094F0000E46A13E80190346FF331B33B02A0ED31C
:10950000F72A0CD8A1290AD31046B0385E2670433A
:109510000E46A13E80190346FF33793352E0A12A5B
:1095200013D2812A11D340290FD37F2901D9481E94
:1095300081B210468138BE2670430E46403E8019E7
:10954000FF307930204E83193CE0AA2A11D3A1299B
:109550000FD27F2901D9481E81B21046AA38602651
:1095600070430E46403E8019FF307930174E831904
:1095700028E0812A10D139290ED32002050CE0B24F
:1095800000902846EE380A267043114E861900983E
:1095900030180346393B15E0822A13D12002050C0E
:1095A000E0B20090084630380A4E7043084E10363C
:1095B0008619284681380A277843361800983018CB
:1095C0000346303B18467DE7701A00003032000039
:1095D00088530000EC040000F8B50025FF24013496
:1095E00001262F460095204606F0BAFE002808D036
:1095F00034484068304204D03348002120183543B5
:109600000160241D76007F1CA4B2042FEBD3FF2041
:109610007D3006F0A5FE002807D02C48002101600F
:10962000400705432A48006900902A4E280713D0B6
:1096300001270024384628420AD02748A2001118E2
:1096400008690969C004C00E8903B258890F9047A0
:109650007F00641C042CEDD3002D30DA00241D4E55
:109660000821301940304156491C25D0077ABD06E3
:10967000AD0E284603F01CFE80003658002E1BD08D
:10968000BF090121A940154AA80080180068009A66
:109690008003800F114202D0022802D00CE0032880
:1096A0000AD1032F05D102280AD00221284606F04C
:1096B00047FE39462846B047641C062CCFD3F8BD78
:1096C0000321F3E700630040006000407C6100403C
:1096D000000500508826002000650040000700506B
:1096E000704770470A490878002810D10A48094A8B
:1096F00082610A4B0C221A6001221206826052011A
:109700008260D2118260521082600120087070471E
:10971000E520002000006021000500505C0700509B
:1097200010B5002403F0F8F80A21FEF70FFDFF2121
:109730004B3188420DD3FF21A531884201D96424E1
:1097400007E0FF384B38642148435A21FEF7FEFCFE
:10975000C4B2204610BD0000F8B50A4D06460F46BB
:1097600000242868FEF77DFD387004E02868005D5D
:109770003055641CE4B22868FEF773FDA042F5D8AA
:10978000F8BD0000142100200448C0790007000F34
:10979000042801D00020704701207047602200207B
:1097A00001484079704700006022002010B5002277
:1097B000134604E0845CE318521CDBB292B28A4286
:1097C000F8D3D843C0B210BDF8B50A4D06460F46CF
:1097D00000246868FEF745FD387004E06868005DA5
:1097E0003055641CE4B26868FEF73BFDA042F5D832
:1097F000F8BD000014210020F3B5044689B0FD2017
:10980000344E20700027B068FEF72BFD60700225F3
:1098100006E0B068C05D60556D1C7F1CEDB2FFB204
:10982000B068FEF71EFDB842F3D8FC2060556D1CF1
:10983000EDB27068FEF715FD60556D1CEDB20027A6
:1098400006E07068C05D60556D1C7F1CEDB2FFB214
:109850007068FEF706FDB842F3D8FE2060556D1C17
:10986000EDB23068FEF7FDFC60556D1CEDB22022B4
:109870006946282005F02AF868460078AA2803D10E
:1098800068464078552801D0002719E06946897854
:109890000020002919D96A461118C97861556D1C34
:1098A0009178EDB2401CC0B281420ED92028F3D38A
:1098B000F8E73068C05D60556D1C7F1CEDB2FFB2EB
:1098C0003068FEF7CEFCB842F3D80A9805700BB0AA
:1098D000F0BD00001421002010B5064C607801286E
:1098E00007D10548008885DF0020607003A0FFF7DE
:1098F0006DF810BD2A210020002000204765745F0C
:10990000527373695F73746F700D0A003EB504463D
:10991000684600F01BF822460C21684600F0B2FFB2
:109920003EBD10B504F0EAF8802806D88021081A58
:10993000C10F0818C005000E10BD002010BD0000AA
:1099400001480078704700003021002010B50C223B
:109950000149FEF762FC10BD9D21002000BF00BF41
:1099600000BF00BF704700BF00BF00BF00BF00BF07
:1099700000BF00BF00BF00BF70470000F8B5002661
:10998000114C01250746ED033806104801D5A060AB
:1099900000E0E0607806070E00BF00BF00BF00BF18
:1099A00000BFA560FFF7DFFFE560761CF6B2082E6A
:1099B000EAD3FFF7D8FF0548A060A560FFF7D3FF03
:1099C000E560FFF7CBFFF8BD000500500000010087
:1099D00070B50125074C2D04A560FFF7C4FF6E107C
:1099E000A660FFF7C0FFE560FFF7BDFFE660FFF789
:1099F000BAFF70BD0005005070B50125064C2D045E
:109A0000E560FFF7B0FF6810A060FFF7ACFFA5604E
:109A1000FFF7A9FF70BD00000005005010B502203F
:109A200005F012FD02F02AFB02F0F0FA01210220FB
:109A300005F018FD10BD01700A1242700A14827000
:109A4000090EC170704701700A12427009148170CA
:109A500070470000F0B587B000241C221AA16846A8
:109A6000FEF7DBFB192581201E4E4003B06101206B
:109A70000005F060C711F760052006F0EBF9B7604C
:109A80006E466D1E07E0325D01230021782004F050
:109A9000A2FF641CE4B2AC42F5DB134C00256570F8
:109AA000257003F069FC0123AF220021782004F027
:109AB00092FF25716571FFF701FB052060700120A1
:109AC000207107B0F0BD0000AE001000B0818FA182
:109AD000A6A81FC8D300D580D91FDA00DB408D149B
:109AE000AF000000000500503021002008B5002123
:109AF0006A46117004280DD000280BD0012810D020
:109B000002281AD003282DD02AE068460078C10622
:109B1000C90E1EE011462E2000F06AF8002820D061
:109B2000F3E711462E2000F063F8002819D06846AC
:109B30000078C006C00E40210AE011462E2000F039
:109B400057F800280DD068460078C006C00E802166
:109B50000143684601702E2000F08DF9002800D0E6
:109B6000012008BD11462E2000F042F80028F8D050
:109B700068460078C006C00EC021E9E710B501466E
:109B80002F2000F035F8002800D0012010BD10B5BE
:109B90000146312000F02CF8002800D0012010BD33
:109BA00010B501460F2000F023F8002800D0012056
:109BB00010BD10B501460622E82005F04AFD10BD93
:109BC00038B50446002069460870212000F010F8DE
:109BD00000280CD0694608784008400020430870EF
:109BE000C1B2212000F047F9002800D0012038BD83
:109BF00010B5012205F02DFD012010BD38B5044639
:109C00000020694608702320FFF7F2FF00280ED0DD
:109C100068460178CF20014020010843C1B2684660
:109C20000170232000F027F9002800D0012038BD62
:109C300010B57F2801D9002010BD0146332000F067
:109C40001AF90028F8D0012010BD38B50D46044699
:109C50000020694608702220FFF7CAFF002810D0B4
:109C6000002D0FD0684600780146214208D12043DC
:109C700069460870C1B2222000F0FDF8002800D02B
:109C8000012038BD69460878A043F2E710B57F2867
:109C900001D9002010BD0146322000F0ECF8002868
:109CA000F8D0012010BD38B504460025684605707F
:109CB00069462520FFF79CFF002809D02543684608
:109CC0000570E9B2252000F0D6F8002800D0012068
:109CD00038BD38B504460020694608703020FFF7CB
:109CE00087FF00280DD069460878402108402043AE
:109CF00069460870C1B2302000F0BDF8002800D0DD
:109D0000012038BD38B5044600206946087030206F
:109D1000FFF76EFF00280ED068460078A10180068C
:109D2000800E0143C9B268460170302000F0A3F8EC
:109D3000002800D0012038BD1CB50446002069462B
:109D4000087008712020FFF753FF002819D001A9DF
:109D50002320FFF74DFF002813D0684601781D48E7
:109D60000A0905D18278120912010A4369460A706C
:109D7000002C07D0F7210823012C13D0022C09D086
:109D800000201CBD6946097881700807000F6946EC
:109D900008700FE0684602780A40027002790A40B3
:109DA0001A4306E0684602780A401A4302700279B4
:109DB0000A40027168460178202000F05CF8002813
:109DC000DFD068460179232000F055F80028D8D06C
:109DD00001201CBD1C22002038B504460020694625
:109DE00008702020FFF704FF00280ED06846007896
:109DF00021010007000F0143C9B26846017020200D
:109E000000F039F8002800D0012038BD38B50446EC
:109E10000020694608702E20FFF7EAFE00280ED0C9
:109E200068460178DF20014060010843C1B26846FE
:109E300001702E2000F01FF8002800D0012038BD4E
:109E400038B504460020694608701F2C00D938BD7B
:109E50002E20FFF7CDFE0028F9D06946087840098A
:109E6000400120430870C1B22E2000F004F8002801
:109E7000EDD0012038BD13B5400601A90122400EE6
:109E800004F08EFC01201CBD10B507F055FD002824
:109E90002BD007F04BFD04F04DFDFFF7E3F8FEF784
:109EA0006FFD01F011F8114C012803D02078012832
:109EB00011D014E000F002FA012807D0002007F0CA
:109EC00013F9FFF7FBF8012802D00CE00520F6E7B4
:109ED0000120207007E00020207005F04FFB04F007
:109EE00019FC04F02DFC03F031FA10BD54210020C0
:109EF000F8B50025164C0F4600280CD003F0E0F909
:109F0000002815D107200126002F12D0012F13D0D1
:109F1000022F15D119E003F0E5FD2570208800041B
:109F2000000E012802D1657003F094FF03F0DAFD02
:109F3000F8BDE070A57001E0E070A67000F050F888
:109F40002670044806F0B8F8F8BD0220F4E70000D7
:109F5000EC2000202C250200054840218161816011
:109F60000449002048708880C8800870704700004D
:109F700000050050EC20002010B517480168CAB257
:109F8000012A0CD1090E22D041680A04120C07D014
:109F9000491E81800804000C01D103F0A3FD10BD0F
:109FA0000D4A0B0C1268120E521E002B05D0090C24
:109FB000491EC1804168090CF1D1C2700068000ED1
:109FC000EDD000F00DF8054806F076F810BD002140
:109FD0000846FFF78DFF10BDEC2000202C25020065
:109FE0000648016809020A0E0221002A03D0012A4C
:109FF00001D0022A01D18180C1807047EC2000206D
:10A000008307FF22DB0E9A408907090E994000283A
:10A010000BDA0007000F0838830808489B001B185C
:10A02000D86990430843D8617047830804489B006F
:10A030001B181868904308431860704700ED00E053
:10A0400000E400E010B5184807F08EFE00280BD1A0
:10A05000164C0120607103F04FF91349002848782D
:10A0600005D0012106F018FF03F034FB10BD5C2879
:10A070000BD0DD2814D03C2812D07C2810D06C28BE
:10A080000ED0002106F008FF0AE04879002807D129
:10A090000879064908310978814201D100206070B1
:10A0A00004F0DEFFE0E70000A8330020602200207B
:10A0B00010B50346002211461C2000F045F910BDE2
:10A0C00010B50A46014600F0F9F8002803D0002335
:10A0D0000D2000F039F910BD0248022201689143B9
:10A0E0000160704760300020F0B585B0002200921A
:10A0F0000192029203236C4603922370134B114684
:10A100008C001C59250713D5E50602D508250D43FB
:10A1100000E00D4697006E46BE19757025042D0EA1
:10A12000B57025022D0E240EF570521C3471D2B27A
:10A13000491CC9B20329E3D392000346521C694665
:10A14000072000F001F905B0F0BD0000203000202C
:10A1500008B5437868460370417013460222694689
:10A16000FE2000F0F1F808BD10B521490479012363
:10A170005B050A68002C03D01A43DB001A4300E099
:10A180009A430A6042790124A4050023002A0A6840
:10A1900008D02243640122436400A2430A60154AA6
:10A1A000137001E0A2430A6082790124E404002ACA
:10A1B0000A6807D022436400A2430A600E4C027A68
:10A1C000227001E0A2430A600124C079E405A200E4
:10A1D0000028086807D020431043520090430860CD
:10A1E0000648037010BDA0439043086010BD0000F6
:10A1F00058220020192200201B2200201A220020B1
:10A20000F0B50546C07800249DB01646870832E0B8
:10A21000032C49D22848A300C058102290435A1951
:10A2200011790907C90F090108432349C85001469C
:10A23000C006084602D50421084301E004218843F2
:10A240001D49C8500846C058E02188436107090EDF
:10A2500008431949C8501848517918184170917924
:10A260008170D179C17014480821C058084312493F
:10A27000641CC850E4B2BC42CAD36E2269460020B6
:10A2800004F024FBAA2110A84176E9788176EA78C7
:10A29000291D1B30FDF7C1FF6E226946002004F026
:10A2A00039FB3246002101E0324604212846FFF7FF
:10A2B0004FFF1DB0F0BD00002030002003480068B3
:10A2C000C00301D5012070470020704758220020AC
:10A2D00030B50023062918D30278AA2A15D14418CC
:10A2E000203CE27F552A10D10122891E04E0855CC2
:10A2F000EB18521CDBB292B28A42F8DBD843A17F42
:10A30000C0B2814201D1012030BD002030BD00002B
:10A3100070B50C460546FFF7DBFF00280BD0094857
:10A320000068C00301D400F0C1FA0022214628468B
:10A3300006F032FB70BD002202212846FFF708FF1D
:10A3400070BD000058220020FFB583B01446FFF70F
:10A35000C3FE394F01253B687A78DE03A11D2046F4
:10A36000002E30DA91422ED9801A801D80B26D1CE9
:10A37000861DEDB2964201D9FE2DF5D3012D22D0D6
:10A380000120000403433B6078780290801F87B26D
:10A39000200A694608714C7121460498FFF706FAB5
:10A3A0006946887101A8009003232449C020039ABC
:10A3B00000F0EEF9012209212048069B00F00CFA7A
:10A3C00000266D1E1FE004988DB2009023461B49A5
:10A3D0000020039A00F0DCF900222946069B25E0C4
:10A3E000384604997043401800903B46134980203A
:10A3F000039A00F0CDF901221048069B029900F063
:10A40000EBF9761CF6B2AE42EADBAE4211D17743ED
:10A41000E01B84B204982346381800900749402076
:10A42000039A00F0B5F90022069BA11D034800F035
:10A43000D3F907B0F0BD00005822002048300020BA
:10A44000F0B50E460446417801270020C1B01546FC
:10A4500017297AD010DCCA4A0B00126800F0B9FD47
:10A4600016555755778291A1A7ABB3ABBB55C5AB7A
:10A4700055AB55ABE4ABF055302967D00CDC18393F
:10A480000B0000F0A6FD0F9999999942F9FEF0EFA3
:10A49000EE4242ED42EC4200FB2936D026DCA029F8
:10A4A00053D01CDC31297AD032292ED12079627A1E
:10A4B0000106607900040843A17909020143E079AB
:10A4C0000843217AFF2409028E180134A64267D975
:10A4D0002246694604F0FAF92B4622462CE1A729C8
:10A4E0006FD0A82911D1FEF781FA64E0FC290CD0C5
:10A4F000FD2967D0FE2908D12079222874D023288D
:10A5000003D13146204606F01BFD41B0F0BD9DA4AD
:10A5100012CC2B460494039102246D462C70032424
:10A520006C700021964CD20302D5A8706078E87058
:10A5300003A82A46445C5518491CC9B22C71072946
:10A54000F8D30B226946012008E135E0C4E06946F2
:10A55000087001A8FFF750F969460A782B4601A94F
:10A560000320FBE020796179000609040143A0790A
:10A5700000020843E179084307F08EFA07F0F4F887
:10A5800019E007F017F9020E69460A70020C4A70CA
:10A59000020A8A70C87004222B460520DEE0AEE075
:10A5A000C4E02A4631462046FFF72AFEADE728469A
:10A5B000FFF79AFDA9E72A4600212046FFF7C8FDCC
:10A5C000A3E7BCE0C5E069460870487088700322C4
:10A5D0002B460920C2E0694608702B46500300D57F
:10A5E0000F7001220B20B9E0BBE00B2E0ED12079B9
:10A5F000FF280BD16079002808D1A079002805D167
:10A60000E079002802D1207A0028CFD0FFF7C8F8DF
:10A61000002804D03146204603F068F875E75B480F
:10A6200001683943016070E7502069460870FFF700
:10A6300077F86946087001222B4613208EE0FFE769
:10A640002079083E2146012810D003280ED04A79EF
:10A65000002A0FD0A11D012003F084FAABE78AE0A5
:10A6600084E01AE01FE015E00BE005E0E11DF2B226
:10A670000020F1E7F2B2EDE702210120FFF738FCFC
:10A6800099E700212046FFF763FD31462046FFF79A
:10A690006BFD3AE72079012801D0002000E0052079
:10A6A00006F022FD87E70090FFF77AF8002804D132
:10A6B00068460770052006F017FDFFF765F80128CA
:10A6C00005D1022069460870052006F00DFD012223
:10A6D0002B466946202041E0694608702079010632
:10A6E000607900040843A17909020143E079084335
:10A6F00004F0CCF801222B46694630202EE06B4650
:10A700001870207932460306607921460004184308
:10A71000A3790A3A1B020343E0790831184304F095
:10A720008FF801222B466946312017E032466946F0
:10A7300004F0CCF8B2B22B46694632200EE06946EE
:10A7400008706846FFF72CFA01222B466946A720BD
:10A7500004E01346B61FB2B2211DFD20FFF7F4FD41
:10A76000D3E63146204606F0FFFBCEE631462046D2
:10A7700006F09AFA1FE71046FFF7C8F8C5E6000092
:10A780005822002045543135303242000432002036
:10A7900070B5AA26049D0E701E0A06434A70B018B2
:10A7A00018188E70CB70C2B2002404201B041B0C3E
:10A7B00008D109E02E5D0E54B218401C641CD2B2C0
:10A7C00080B2A4B29C42F5D3D2430A54401C80B25A
:10A7D00055220A5470BD0000FFB581B01F461546D2
:10A7E0000E460024FFF778FCB1B23A46019802F019
:10A7F00009FD002809D0032005F02CFB641CE4B2FD
:10A8000004F098F81E2CEFD31AE01E2C18D2002466
:10A81000012D1BD10E4D00210020401C80B2642868
:10A82000FBD30846491E89B20028F5D1641CE4B266
:10A8300004F080F828788007C00F04D01E2C05D3C0
:10A84000002005B0F0BD1E2CE5D3F9E70120F8E7A4
:10A850006030002013460A4610B501462720FFF756
:10A8600073FD10BD13460A4610B501462320FFF7BD
:10A870006BFD10BD13460A4610B501462220FFF7B6
:10A8800063FD10BD13460A4610B501462620FFF7AA
:10A890005BFD10BD10B5044801220168120491430C
:10A8A000016003F0DFFA10BD5822002004480122A5
:10A8B00001681204114301601421417070470000C7
:10A8C00058220020024802220168114301607047AB
:10A8D00060300020044901235B040A68C0079A43E2
:10A8E000800B02430A6070475822002010B50649C9
:10A8F0000020086048608860C860034940390860EB
:10A90000486007F059F910BD40110140FEB5002024
:10A91000C043124D02906869019068462E6903F0A9
:10A92000D9FE074604F09CFE0446002F08D002AA78
:10A930000199009804F068F8029804F0DBFE06E044
:10A94000029804F0D7FE002801D1002C02D0304636
:10A9500002F0D0FD00206871FEBD0000AC20002098
:10A9600010B507484068002807D08047002803D06A
:10A970000022114601F0E6FA10BD04F09FFC10BD64
:10A98000D0200020F0B589B0012004F03DFB30A2BA
:10A9900017680546121D07CA002600960196029602
:10A9A000039604AB07C32E4C2088F02804D902215B
:10A9B0002680480306F05EFA05200003102269464F
:10A9C000079006F031F9042226496846FDF750FC4D
:10A9D000002805D0268004A807C8009701AB07C34C
:10A9E000079803F053FF6946C8791022401CC0B293
:10A9F000C8712080079807F0FFFC10221A496846AA
:10AA0000FDF70BFC20881949000140181022694607
:10AA100007F0F2FC14211648FDF718FC1449032036
:10AA2000087410211048FDF711FC10212868FDF76B
:10AA30000DFCF0216868FDF709FC032001214003AB
:10AA400006F018FA012004F02BF809B0F0BD000060
:10AA50001A2B3C4D01100000000000000000000017
:10AA6000C4210020C92B0200302C0020F03F000040
:10AA7000AC210020034B002A01D01A78511819701C
:10AA8000587070472621002001490120C870704786
:10AA9000602200200149087070470000302100202A
:10AAA0000170091241707047064A1179091889B27C
:10AAB000FF2900D3FF2111710349CA881018C880EB
:10AAC000704700001030002020220020F0B5012641
:10AAD0000025360684460C4A012711E000231C4657
:10AAE0005B061B0ED66010690002C00F00D03B430E
:10AAF0009660641CE4B2082CF2D3604643556D1C8A
:10AB00008D42EBD3F0BD000000050050FCB58C4633
:10AB10000EA206CA002501240192240600910D4AC6
:10AB20006E460FE00023D460475DF15C0F420A4F90
:10AB300001D0976000E0D76094605B1CDBB2082B0B
:10AB4000F1D36D1C6545EDD3FCBD000080402010A5
:10AB50000804020100050050000040007CB50BA273
:10AB600006CA0192009101240021A405094A6D46FC
:10AB7000A300D3606E5C064201D0946000E0D46014
:10AB80009360491CC9B20829F3D37CBD80402010D2
:10AB9000080402010005005010B504F0DDFB002898
:10ABA00005D00E490C484860C8130D4988610D480E
:10ABB000018CC9B201290ED1818C09070BD1018DFD
:10ABC0000906090F042906D1808D0006000F02D165
:10ABD00005490120886010BDDFFF07C00005004067
:10ABE000006C0040C00F00F00006004010B50021CE
:10ABF000014805F0D7FA10BD0080004010B50121D2
:10AC0000014805F0CFFA10BD0090004010B50221B8
:10AC1000014805F0C7FA10BD00A000404178007857
:10AC20000902014308B27047FEB504460027002020
:10AC30000090774E7748844208D8A02C06D3002590
:10AC40002046A03840004019801900907248844284
:10AC500008D87248844205D3714D201A400040192B
:10AC6000801900906F48844209D803200003844271
:10AC700005D36D4D201A40004019801900906B4893
:10AC8000844209D827204002844205D3684D201A07
:10AC900040004019801900906648844209D86548F0
:10ACA0003B38844205D3644D201A40004019801976
:10ACB00000906048F33084420AD85E48963084425F
:10ACC00006D35D4D7835201A400040198019009058
:10ACD0005A48844208D8401F844205D3584D201A50
:10ACE0004000401980190090564884420AD85548BF
:10ACF000FD38844206D3524DAA35201A400040192F
:10AD0000801900905048844209D84F484E388442F8
:10AD100005D34E4D201A40004019801900904C4830
:10AD200084420AD84A484938844206D3474D9E3562
:10AD3000201A40004019801900904648844209D8E2
:10AD400044487038844205D3434D201A40004019CE
:10AD5000801900904148844209D84148844206D372
:10AD60003D4DE235201A40004019801900903D48C1
:10AD7000844209D82B487230844205D33A4D201AB8
:10AD800040004019801900903848844208D838485B
:10AD9000844205D3374D201A400040198019009095
:10ADA00001AA0221009805F0ABFE68460079010275
:10ADB00068464079081887B22F48844200D12F4F47
:10ADC0002148CE38844200D12D4F2E48844206D3EC
:10ADD0002C480B30844202D82B48201887B21A48DE
:10ADE000D738844206D3801D844203D820485E3081
:10ADF000201A87B21448D038844206D3401C8442BB
:10AE000003D81B485230201A87B23846FEBD0000D6
:10AE100043A51E005104000042260000102000003F
:10AE200064070000D5330000CA130000A59F00008E
:10AE3000761B00006BFE0000C2BE0000E5FF0000B4
:10AE4000F6BF000029FA000064E800009CC2000080
:10AE5000CA2E0000B7490000CEC30000AE4D00006E
:10AE6000774C0000E03C000020C700008D47000048
:10AE70005640000054D800003F1E0000BCA800004F
:10AE8000F3A60000F02F00009A79000010B50A48E0
:10AE9000816800290FD00022826008488369094830
:10AEA000074C41886354491C89B201235B024180ED
:10AEB000994200D3428010BD00210040002500408F
:10AEC000C82700200E21002010B50C480069002280
:10AED0000003C40F0B480A4B0178002C06D0002950
:10AEE00002D11A6001210170012010BD012902D197
:10AEF000042119600270002010BD00000005005000
:10AF000038070050E4200020014900200860704705
:10AF10004C0700500A498A884B889A420DD0094B49
:10AF20009B5C0370521C90B20122520288809042B6
:10AF300001D3002088800120704700207047000066
:10AF40000E210020C827002002480078012800D0E8
:10AF5000002070470E21002006484068C107C90F35
:10AF60000020002904D004490860044840680047D4
:10AF700070470000000301400001014088200020CC
:10AF800037B514460846064B6A46214600F0EAF8F3
:10AF900004466946002000F087FC20463EBD0000C4
:10AFA000A9B801002021020C01D010211046020A8C
:10AFB00001D008391046020901D0091F1046820845
:10AFC00001D0891E1046420801D0881E7047081A19
:10AFD000704730B47446641E2578641CAB4200D2BE
:10AFE0001D46635D5B00E31830BC184702E008C8EB
:10AFF000121F08C1002AFAD170477047002001E0F3
:10B0000001C1121F002AFBD170470000F0B51FB428
:10B0100084B007980699020D01430FD10F980124BF
:10B0200049A3012807D004980F9A84600360C26086
:10B03000416009B0F0BD0E98C143F4E7434844496C
:10B040001018484305140F9801280E980BD0281AA1
:10B05000401C00243F4E404900940191029000287A
:10B0600003DA474216E04042F3E7074612E0F807EA
:10B0700007D02246334601990098FDF7F9F901916E
:10B0800000902246334610461946FDF7F1F9044672
:10B090000E467F10002FEAD10298019B0028009AEB
:10B0A0000799069802DAFDF7E3F901E0FDF748FA9F
:10B0B00004460E460022294BFDF7DAFA03D8002099
:10B0C000C043014607E00022254B20463146FDF7EC
:10B0D0001DF9FDF7ADFA102409E0002C0ADB0A2265
:10B0E0000023FDF7D2F8059B30321A55641E024644
:10B0F0000A43F2D1641C1122059B121B1C190F9BE1
:10B10000012B08D00123084302D10E9882420DDDA5
:10B1100000236D1C0EE0084303D10E98151A6D1E16
:10B120000AE011200E9000200F908CE7824201DA95
:10B1300000236D1E002B86D004980F994560046093
:10B140008260C16075E700003000000001FCFFFF75
:10B15000104D0000000024400000F03F0000F043CC
:10B160000000E03FFFB597B0064600251FE2252806
:10B1700079D10024F9492746761C049432780120BD
:10B18000203A904002460A4202D00443761CF5E77A
:10B1900030782A280ED00222307801463039092929
:10B1A00016D804990A235943303940181443761CA1
:10B1B0000490F1E7189802C804911890002904DA65
:10B1C0000120400304434842049002200443761CBB
:10B1D00030782E2814D104200443761C30782A2895
:10B1E00009D11898761C80C8189009E00A214F43AD
:10B1F000303FC719761C3078014630390929F5D916
:10B2000030786C2810D006DC4C281AD068280ED074
:10B210006A2817D104E0742813D07A2812D110E0DC
:10B220000120400504430CE00121090501E0032150
:10B2300009050C437178814203D10120761C000579
:10B240002418761C3078119066280BD013DC58280F
:10B250007ED009DC00287CD04528F6D04628F4D0E2
:10B2600047281AD1AAE118E0632836D0642871D0A3
:10B27000652812D1A2E170286DD008DC6728F1D0D2
:10B2800069287CD06E280DD06F2806D1BDE07328C8
:10B290002FD0752872D078285AD01A9A19999047C9
:10B2A0006D1C83E16002400F022809D003280DD0F5
:10B2B0000428189801680DD0001D0D60189075E1E4
:10B2C0001898EA1702C80D604A60F7E7189802C894
:10B2D0000D80F3E7001D0D70F0E718986A460178BD
:10B2E000001D117218900020507202A800900120D9
:10B2F00005E0189802C8189000200091C04361072B
:10B300000DD5002101E00199491C0191B94212DAE1
:10B310008142F8DB009A515C0029F4D10BE0002156
:10B3200001E00199491C01918142FADB019A0099DF
:10B33000895C0029F5D1019904981A9B471A214686
:10B340003846199A00F09AFA0199401945180BE00D
:10B3500051E030E113E050E0009800990078491C7A
:10B3600000911A9A199990470198401E0190401C2B
:10B37000F2D1214638461A9B199A14E139E00A2085
:10B380000021009001916002410F022907D0189A14
:10B3900001CA1892C217944603290AD00CE01898E3
:10B3A000C01DC108C9004A68086808319446189150
:10B3B00007E000B2C2179446042902D140B2C11777
:10B3C0008C4600226146944506DA0A460021404236
:10B3D00091418C462D2102E0210504D52B216A469E
:10B3E0001173012103E0E10701D02021F7E7029169
:10B3F00051E00A200AE0102008E01020009000210F
:10B40000042004430191082703E008200021019152
:10B4100000906002410F022907D0189A01CA1892C1
:10B420000022944603290AD00AE01898C01DC108DA
:10B43000C9004A68086808319446189103E080B250
:10B44000042900D1C0B200210291210723D511990E
:10B45000702928D0009A1021019B4A401A4309D133
:10B460006146014306D030216A4611731199517328
:10B4700002210291009A0821019B4A401A430AD1F5
:10B480006146014301D1610705D530216A46117338
:10B4900001217F1E02911199582909D030A10E91E6
:10B4A0000DA90D9112E040216A4611730121E0E7D8
:10B4B00030A1F4E76146019B009AFCF7E6FE0E9B83
:10B4C0008C469B5C0D9A521E0D921370614601438F
:10B4D000F0D10D9805A9081A20300190600703D516
:10B4E00001200004844300E001270198874201DD28
:10B4F000381A00E0002001990090411802980918BC
:10B500000498401A0490E00306D421461A9B199A25
:10B51000049800F0B3F94519002706E003A81A9A29
:10B52000C05D199990476D1C7F1C02988742F5DB1E
:10B53000E0030CD521461A9B199A049800F09EF955
:10B54000451904E01A9A3020199990476D1C00990A
:10B55000481E00900029F5DC1FE0000009280100CA
:10B560003031323334353637383961626364656679
:10B57000000000003031323334353637383941423B
:10B5800043444546000000000D980D990078491C81
:10B590000D911A9A199990476D1C0199481E0190B6
:10B5A0000029F1DC4CE100F059F94519761C30789E
:10B5B000002800D0DBE528461BB0F0BD600700D4B2
:10B5C00006271898C01DC108C90048680A680831D4
:10B5D000C30FDB071891190001D09CA108E02105D9
:10B5E00001D59BA104E0E10701D09AA100E09AA156
:10B5F000430011985B08109165280CD006DC4528A3
:10B6000009D046281DD0472841D141E0662818D0EE
:10B6100067283CD13CE00021112F01DB112000E024
:10B62000781C0191009008A911A8FFF7EFFC13996D
:10B6300005910021119A15927F1C12980197009193
:10B6400050E00120C00703900120019008A9009755
:10B6500011A8FFF7DBFC139A149905920022119BA5
:10B66000009212981593059A0192002901D0104674
:10B6700002E0791C40180190381A01D5019804E0C5
:10B680004042401E0090781C0190C01B029043E095
:10B69000012F00DA01270021112F01DD112000E028
:10B6A00038460191009008A911A8FFF7AFFC139943
:10B6B0000591119A00211298159200910197210786
:10B6C0000CD40599B94201DB019900E001910129EF
:10B6D00004DD159A491E515C302906D0B84201DAC2
:10B6E000011D05DA0121029115E00199491EEDE7DE
:10B6F000002805DC0099411800910199091A03E01E
:10B70000019A411C914200DD01910099401A401CB0
:10B7100002900120C0070390200706D402990198E7
:10B72000814202DB0020C043029000206946C877B6
:10B7300007AF012103980337C907884224D00220AC
:10B7400011902B201290039800280CDA40420390AD
:10B750002D20129007E00A210398FCF7F7FC303106
:10B760007F1E039039701199481E11900029F2DC58
:10B7700003980028EFD1791E1298087030782021A4
:10B7800008404530BF1E387006A8C01BC01D03907E
:10B7900010980078002800D00120019941180298E3
:10B7A000C0170918039809180498401A401E0490FD
:10B7B000E00306D421461A9B199A049800F05EF81B
:10B7C000451910980078002803D01A9A19999047C3
:10B7D0006D1CE00323D521461A9B199A049800F0AA
:10B7E0004DF845191BE00098002807DB00990598E3
:10B7F000884203DD1598405C199901E019993020C1
:10B800001A9A904700986D1C401C00900298401EA8
:10B81000029004D11A9A2E20199990476D1C019913
:10B82000481E01900029DEDC05E038781A9A7F1C5A
:10B83000199990476D1C0399481E03900029F4DC68
:10B8400021461A9B199A0498ADE600002D000000CD
:10B850002B0000002000000000000000F8B50446A6
:10B8600000251E461746880404D405E039462020EA
:10B87000B0476D1C641EF9D52846F8BDFFB50446D7
:10B88000002581B01E46C80301D5302700E02027DF
:10B89000880404D505E038460399B0476D1C641E42
:10B8A000F9D5284605B0F0BD0A68531C0B6010702E
:10B8B0007047F7B582B0002605461670007814462A
:10B8C000002805D02846039904F0A4F8060008D102
:10B8D000A87800281ED02078039F001D1F2802D9B9
:10B8E0000C2005B0F0BD684679DF0028F9D1217839
:10B8F0000322481C20707A5421781922481C207099
:10B900007A542078C1196846008806F0C9FA21786F
:10B9100040182070E8780223002810D02078039A7D
:10B92000411C2170135420780399471C0122277071
:10B930000A542078EA78471C039927700A546868EB
:10B94000002815D00021415620788C460246C01CA4
:10B9500003991F28C4D8501C20708B5422780A23C6
:10B96000501C20708B5420786246431C23700A546C
:10B970002889002809D02846009406220221083090
:10B98000039B06F087FC0600ABD1288A002809D06B
:10B9900028460094072203211030039B06F07AFC0E
:10B9A00006009ED1288B002809D028460094152235
:10B9B00014211830039B06F06DFC060091D1286A13
:10B9C000002805D02246039901F0E6FD060088D143
:10B9D000686A002805D02246039903F0E9FF0600B3
:10B9E00084D12C20405D002806D0224628460399A9
:10B9F00005F0EEFA0600C7D1304672E710B596B0F2
:10BA0000302101A8FCF722FC0221684601710124C3
:10BA100084710621C17184821148069024210DA8E9
:10BA2000FCF714FC10A80470FF20413011900A208C
:10BA3000129010A804730520000214901420159091
:10BA4000002001460090074B0DAA01A800F0C8FF96
:10BA5000002803D00022114600F074FA16B010BD81
:10BA60000220002081030200F0B59DB000246E2268
:10BA70006946204602F02AFF10A8417E10270423C1
:10BA80002B48E022AA2920D001687F24B94399439A
:10BA9000914301604470112585703121C170416866
:10BAA000B9439943914320314160447185713321F9
:10BAB000C1718168B94399439143403181604472B7
:10BAC00087723521C1721DB0F0BD10A9897E8D0825
:10BAD000002D02D8F7E7032C24D2A1006B46CB1827
:10BAE0004033DE7E42583607F60FBA433601324302
:10BAF0004250D60602D50426324301E00426B24362
:10BB00004250E026B2436607360E324342501E7F53
:10BB10000A1856705E7F96709B7FD3704258082338
:10BB20001A434250641CE4B2AC42D4D3CBE70000C9
:10BB300020300020F8B55B4F002538463C38009592
:10BB40000468057145712E463621801DFCF77EFB89
:10BB5000A4E0785D014620395F2931D901282FD032
:10BB60000D284DD00A2857D0C0B281387D286FD813
:10BB7000641E6D1C002C6BD0785D01464039BE29D7
:10BB800068D8B61CF6B2641E6D1C102E0FD9009832
:10BB90000226401CC0B20090022808D341483C381D
:10BBA0000179491C12297BD20171002000903D4887
:10BBB0003C3801794A00891808188179891C6CE0A1
:10BBC000761C641E6D1CF6B2102E0FD9009801264B
:10BBD000401CC0B20090022808D332493C39087991
:10BBE000401C12285CD20871002000902D483C387F
:10BBF00001794A00891809188879401C88714DE03C
:10BC000028486D1C3C3801794A0089180818817948
:10BC1000491C8171641E41E02249641E3C39087947
:10BC20006D1C42008018421890790026401C9071CB
:10BC30000098401CC0B2009002282FD30879401C05
:10BC400012282DD2002C2BD008710020009080E704
:10BC500026E0FFE73038092822D8ED1C032C1FD33B
:10BC6000B61CF6B2E41E102E0FD900980226401C16
:10BC7000C0B20090022808D30A493C390879401C18
:10BC800012280DD208710020009006483C38017936
:10BC90004A00891808188179091D8171002CD6D1B4
:10BCA000F8BD0000042A002000B587B000200290F3
:10BCB0000390694604908882087603F0B5F96946D6
:10BCC000087606A901200191009000230C2205A905
:10BCD00002A804F0E9FB6946898A02A801F006FD82
:10BCE00000210C2005F0B2F907B000BDF8B5002521
:10BCF0006846057026486A464188406801F003FDA1
:10BD00000646234801F05EFB05F054FD204C183C2C
:10BD100020612189411A09B2002E28D06570A278CD
:10BD2000002A07D06846017801230022304600F03F
:10BD300085F8F8BD052E00D90526A288B21812B2E2
:10BD4000A280082901DC0A2A01DA142A0ADB012070
:10BD500000F04AF96946A37820790122097800F0B9
:10BD60006DF812E00829E4DDA580A060F8BD6078D8
:10BD7000401CC0B260700228F8D3002000F00CFA1A
:10BD80002069A060A0780028F0D1A580F8BD00004F
:10BD900078210020FFB583B00446002069461E4686
:10BDA00008808880204F214D002C30DDA1B20498FE
:10BDB00005F060FC69460880A1B23246049805F09F
:10BDC000FDFB69468880A0B2FEF76EFE18488168C8
:10BDD000091981606946098802685118016069463D
:10BDE000898842685118416004990174818901224F
:10BDF000891981810F481206016811430160388852
:10BE00002A680B49801A83B2002005F077FB059859
:10BE1000002804D138682968401A052802D306484A
:10BE200005F0B6F807B0F0BD702100206C210020AD
:10BE3000AC21002058220020302C0020F8B51C46F0
:10BE400015460E46074605F0B5FC0A490A4A4B68F6
:10BE50001268934201D31A4600E04A60831A486090
:10BE6000002C04D02A4631463846FFF793FF384667
:10BE7000F8BD0000942100206821002010B503487F
:10BE800064214068FCF762F910BD0000AC2100207D
:10BE90000148006870470000AC210020014880681C
:10BEA00070470000AC21002070B50024064D06E06C
:10BEB0006968E000085C012104F00AF8641C287835
:10BEC0008442F5D3002070BD94200020F8B51546BB
:10BED0000C460646052A01D20720F8BD04F0C4F836
:10BEE000002803D104F096F80028F6D1114900206B
:10BEF0004E600C7008618D6048610F4D0DE0E000F0
:10BF000029688019009181786A46517000780B4A3F
:10BF1000694604F02DF80028DFD12046641EE4B203
:10BF20000028ECD10348064A00210C3000F066F9E5
:10BF3000F8BD000094200020282502002DF101000A
:10BF400025DA0100BFF34F8F03490248C860BFF3F1
:10BF50004F8FFEE70400FA0500ED00E038B500243D
:10BF600068460470FDF713FE6846007800280DD07F
:10BF7000002002F0DBFE00F0F1F80121002003F0C8
:10BF800071FA032003F060FA05F064F96846047062
:10BF9000FDF7F4FD68460078400601D502F090FEFA
:10BFA00038BD00001CB505F005FC04466846FDF7E9
:10BFB00000FE2146684605F007F90648417AFF2948
:10BFC00001D2491C00E0FF2141720349032003F024
:10BFD00049FA1CBD10300020DC05000001488078C3
:10BFE00070470000602100200649002806D001208B
:10BFF000887005494879401C487170470020887056
:10C000007047000060210020103000201CB5002483
:10C01000684605F0D5FB68460079062801D8032458
:10C0200007E0142801D3022403E0C01F022800D82F
:10C03000012407490878A04209D00C700620444327
:10C0400008461C302018C860001DFCF703FC1CBD0E
:10C050002022002010B500F03BF800F00FF8FFF7A9
:10C06000D5FF05484169491C41614B21C9000220A7
:10C0700003F0F8F910BD00002022002070B505F093
:10C0800099FB114D0024AC806C800646EC802C811D
:10C0900010210E48FCF7DAF831460C48FDF7CBFCCE
:10C0A0000A48A021A038FCF7D1F808486C8100218B
:10C0B0000C302C61FEF7F4FCFFF790FF002802D053
:10C0C00002490120487170BD20220020103000205C
:10C0D000F8B5204DA8886988884200D96880002674
:10C0E000F64300201C4F04460096E100C9198979E7
:10C0F000002907D0002803D00094401C00B20AE0B9
:10C100002646FAE7002806DD022803DB30460099C0
:10C1100005F0E8F80020641C24B2142CE5DB0028AC
:10C1200003DD3046009905F0DDF80B49E888A031C1
:10C130008A79824203D2FF2800D3FF208871688861
:10C14000FF2800D3FF20C87203490220A03106F067
:10C150000FF9F8BD20220020702F002010B50D4CE3
:10C160002078002814D1012020702046183001F0DA
:10C1700029F92046203001F025F902F093FD012035
:10C1800002F098FD05F016FBA060E06000206070F2
:10C1900010BD000060210020F8B5164C2078002862
:10C1A00026D00025684605702570284602F082FDDD
:10C1B00020461830418840686A4601F0A4FA0646D5
:10C1C0002046183001F0FEF868460178A378012275
:10C1D0003046FFF733FE02F065FD0020FFF704FF55
:10C1E0006570A58005F022F80349032003F03AF9B1
:10C1F000F8BD000060210020DC05000070B5114C86
:10C20000A568002D06D0002A06D0002804D00023FF
:10C21000247809E0082070BD072070BD24265E4305
:10C22000AE5D002E04D05B1CA342F7DB042070BD82
:10C23000242401265C432E5564196170A2610360B9
:10C24000002070BDAC200020FFB59807002481B00D
:10C250001E4615460F4600280BD1002E09D004F0CB
:10C2600053FD22490A9888610F70324600208E6083
:10C2700008E0072005B0F0BD24234343D4549B18A5
:10C280001C75401CB842F7DB24204743BB19032030
:10C2900048700F461846CB60194618300022182304
:10C2A0002E465E43D3005B181C705C709D70586016
:10C2B0003018521C032AF5DB0020C0433861BC70E3
:10C2C000FC7001240A482405046003211420FDF7B2
:10C2D00097FE08480460084C0198A06003211120D3
:10C2E000FDF78EFE606878610020C3E7AC20002077
:10C2F00080E200E000E100E000150140FEB50446E8
:10C300001D48174682680D46002A0CD001788C42E1
:10C3100001D2052D01D20720FEBD21462423594319
:10C32000535C012B01D00820FEBD881840780128FD
:10C330001DD0002605F08EFEC0000F490190C9688F
:10C340004018694605F0B0FE002812D001210170A6
:10C350000A49446049680830E2C007490198C96841
:10C3600041180098487005F09DFB0020FEBD2E4648
:10C37000E0E70420FEBD0000AC20002000150140D5
:10C38000F8B5144D0446A868002809D029788C42D5
:10C3900001D30720F8BD24216143405C012801D06E
:10C3A0000820F8BD05F056FEC600E868694630185A
:10C3B00005F07AFE00280AD0022101704460E86886
:10C3C00031180098487005F06DFB0020F8BD04207E
:10C3D000F8BD0000AC200020F3B5184E00253078E1
:10C3E00083B00F46002823D0002005B0F0BD062002
:10C3F0000399684344182046FEF710FC0190A01CE6
:10C40000FEF70CFC0090201DFEF708FC0246019888
:10C41000009940434943401852438018C10F0818FF
:10C42000401005F091F86A0071686D1C8852EDB2F9
:10C43000BD42DCD3778001203070D6E78021002018
:10C4400070B5104C2078002801D0002070BD6188A4
:10C4500060680C4D49004018083569884A006968D1
:10C46000FBF7DBFE6088698840186080284600F092
:10C47000A9FF6088402803D901202070FFF736FC0F
:10C48000012070BD7821002070B505460A480C4691
:10C49000007800280ED02846FFF79EFF002807D11D
:10C4A000FFF7CEFF002805D021462846FFF794FF6E
:10C4B000FFF7C6FF70BD000060210020F8B5364CC4
:10C4C000A079002801D11E20A071207A002801D176
:10C4D0003C202072E079002801D1AA20E071A079E7
:10C4E0000A21FBF733FE0300FEF773FD070507097A
:10C4F000090B070D0500462506E05A2504E06425D2
:10C5000002E05F2500E055256679002E05D05F200A
:10C5100068436421FBF71AFE85B21F48C479A62C34
:10C5200001D3152104E020468C381A2802D20E21AE
:10C53000204601E060001521FBF708FE201AC10F1C
:10C540000818C003070C002E0AD05E2C06D9642000
:10C5500044431248FF212018473108E012200BE025
:10C56000832C08D9642044430D488D212018FBF703
:10C5700003FE80B200E00F20874201D9381A87B24B
:10C580000548054C007A083C20706F43384664210A
:10C59000FBF7F2FD6070F8BD9C21002075DBFFFF0A
:10C5A00003CDFFFFF0B5C5B0FF21013104A8FBF7B3
:10C5B0004DFE0020009001900290039002F080FC5C
:10C5C0000125ED042D4C002843D020682C4E01039A
:10C5D00043D5052000031022694604F025FB684678
:10C5E00000781A280BD0684640782B2807D1684677
:10C5F00080783C2803D16846C0784D2829D0214F47
:10C60000F878002803D06946C979814202D2684689
:10C61000C079F8706846C079F9780122401A0001A3
:10C62000920380180A0108A904F0FEFAF978684616
:10C63000C17168460FC804AF0FC76846C07D0122AC
:10C640000101103104A8FEF705F92068A843304322
:10C650000DE02068A84320600DE0C0020BD500214A
:10C6600001220846FEF7F6F82068A843B043206090
:10C67000012045B0F0BD0020FBE70000582200205B
:10C680000000100018220020F0B5C1B0FF210131D8
:10C690006846FBF7DBFD022002F0B6FC064602F01E
:10C6A0000FFC01250027ED053E4C002820680CD02A
:10C6B000400114D5002101220846FEF7D3F8206876
:10C6C0000321A843490688434DE00121A8434906B8
:10C6D0008843206034488770002041B0F0BD02F0EC
:10C6E000DFFB00285BD02068810158D52E498A786D
:10C6F0003A2A4CD21002152109034018FF220132B8
:10C70000694604F091FA284827498078401C8870CF
:10C71000684600781A280BD1684640782B2807D144
:10C72000684680783C2803D16846C0784D281ED0E2
:10C730003068C079002810D02068A8432060306895
:10C7400000F0D8FF30680122C17909011031FEF7ED
:10C7500089F80421052002F085FE012120684906A0
:10C7600088434900084320600F48877017E020681D
:10C770000122A84320606846C07901011031684653
:10C78000FEF770F80421052002F06CFE07E001229C
:10C79000A843520690435200104320608F7001203E
:10C7A0009BE70000582200201822002070B50C469C
:10C7B000084913460A6895020AD5D50108D501250E
:10C7C0002D06AA430A60014622462520FDF7BCFD3E
:10C7D00070BD000058220020F0B5C1B0FF2101312A
:10C7E0006846FBF733FD012002F00EFC064602F01E
:10C7F00067FB01250027AD053E4C002820680FD0BF
:10C80000C00017D5002101220846FEF733F8206842
:10C810000321A843C906884320603748477067E072
:10C820000121A843C906884320603348477000208F
:10C8300041B0F0BD02F03CFB002859D02068010156
:10C8400056D52D494A78102A4CD2100203214903AB
:10C850004018FF220132694604F0E6F926482649CD
:10C860004078401C4870684600781A280BD168460A
:10C8700040782B2807D1684680783C2803D1684649
:10C88000C0784D281ED03068C079002810D02068AC
:10C89000A8432060306800F02DFF30680122C17984
:10C8A00009011031FDF7E6FF0421052002F0DAFD51
:10C8B0001148012147702068C90688434900084390
:10C8C000206015E020680122A84320606846C079F6
:10C8D000010110316846FDF7CDFF0421052002F06B
:10C8E000C1FD05E00122A843D206904320604F70AD
:10C8F00001209DE758220020182200200449034807
:10C9000048600449002008607047000002200000D1
:10C91000007500400071004010B500F023F80A20B7
:10C9200003F098FA0B4C02E00A2003F093FA206817
:10C930000028F9D00020206007488068074A0121BC
:10C9400051604B21890148430549FBF7FFFB80B249
:10C9500010BD0000007100400075004000700040F4
:10C96000FF030000044901200860044A002111600F
:10C9700003490860704700000075004000710040E6
:10C980000070004070B50C4692B000216A461170EC
:10C9900007251171002809D0C17849070CD502A9D3
:10C9A000FEF787FF002808D102AE00E00026002C29
:10C9B0000ED0E078002802D0284612B070BD01AA3F
:10C9C0000AA92046FEF775FF0028F6D10AAA00E062
:10C9D0000022684603790178304672DFEDE70000F7
:10C9E00070B50D4604991646040042D0002E40D082
:10C9F000424800224271C36001612422314640480E
:10CA0000FBF70BFC00F0B8F83D493431084610380C
:10CA100001602031816030215438FBF717FC384821
:10CA2000217830380170A1788170E178C170617827
:10CA300041706269216942610161E268A168C26076
:10CA400081600146E369A269CB618A61616A00295C
:10CA500019D00146A4310246B03241628A60636A4D
:10CA60001B880B80616A436A898899800021436A28
:10CA700006E00E2070BD666AB668765C5654491CA6
:10CA80009E888E42F7D8A16A00291CD01C4AAC327D
:10CA900011460C398A608162A36A9B888B80A16AE7
:10CAA000836A098819800021836A04E0A66AB6684F
:10CAB000765C5654491C9E888E42F7D82C210A5D1C
:10CAC0000F4910390A73216A002909D00B49143122
:10CAD0000162226A52884A80216A026A09881180AA
:10CAE0006168002904D00549891D41606168416081
:10CAF000034829463038FFF745FF70BD2820002045
:10CB0000A025002010B502881A4C102A17D0002149
:10CB1000112A17D0192A11D1807900280ED16079F5
:10CB200001281BD002281FD003281FD0042805D1BC
:10CB30002171E2680846002A00D0904710BD808825
:10CB4000208110BD6170808821898842F9D101203F
:10CB500005E021690029F4D0884710BD022000F0CB
:10CB600033F80028F5D110BD0420F8E70320207128
:10CB7000FAE700002820002010B507210148FBF744
:10CB800065FB10BD4020002010B50D48007801283D
:10CB900014D10C4C6078002810D16079002802D0A4
:10CBA00074DF00280BD101206070607900F00CF870
:10CBB000002803D02169002900D08847002010BD3B
:10CBC000A025002028200020F0B5754C87B06071AA
:10CBD000002606A8069603F07FFF0127082806D046
:10CBE00000286FD10698002802D02770D4E006965E
:10CBF000FFF7C2FF6B4D6878002802D060790128EA
:10CC000005D0A87800280AD06079022807D1E16809
:10CC1000002903D0E7700820884700E0E6706079BB
:10CC2000012808D16878002809D05D48193003F040
:10CC300085FE002803D06079022802D00CE0022093
:10CC40006071A878002805D05548193003F076FEA9
:10CC5000002801D103206071287B002804D160796D
:10CC6000032801D104206071287E002804D1607956
:10CC7000042801D166712671E16800290AD0607923
:10CC8000032801D0042805D12878002802D0607834
:10CC9000002818D0A67018216846FBF7D7FA684616
:10CCA0000670019606720396607901280FD002285B
:10CCB00016D03C4E24363746543F03281CD0042857
:10CCC0005ED13BE069E0A77007208847E3E734487E
:10CCD000183001906846077046820682277152E03C
:10CCE0002F48183001906846077029894182A98829
:10CCF00001820220207146E0A88A69464882288A7B
:10CD000008822848243005F02AFB002805D028781E
:10CD1000002802D06078002801D003202FE00220F4
:10CD20006946087204200396F8701E4800213038C6
:10CD3000FFF728FE002830D1052020E0A88B6946A7
:10CD40000882288C48821748243005F008FB002808
:10CD500005D02878002802D06078002801D004206F
:10CD60000DE002206946087204200396F8700D4811
:10CD700000213038FFF706FE00280ED10620207172
:10CD80006079002803D0684673DF002805D1E16888
:10CD9000002901D020798847002007B0F0BD0000AD
:10CDA00028200020A025002070B5054601461C2241
:10CDB0000F48FBF732FA0F4C00262670296800292D
:10CDC00007D00822A018FBF728FA204608307ADF9F
:10CDD00002E0084808307BDF002808D1401E608050
:10CDE00004486670044A0021001DFFF707FA70BD71
:10CDF0006C26002048200020F11F0200F8B5224CCC
:10CE0000028800271F4DE689102A16D02946496856
:10CE1000112A21D0122A2DD0502A1CD1801D02881F
:10CE2000B24218D1028B022A15D1C27E837E100233
:10CE30001843C007C00F0CD112E0818869800146F9
:10CE40001048082216311030FBF7E7F96F70002EFA
:10CE500001D100F0E9FBF8BD0020C04368806F708D
:10CE60000846FFF78DFA0028F5D0A1690029F2D015
:10CE70008847F8BD811D034808221030FBF7CDF923
:10CE8000E7E70000482000206C26002010B504468B
:10CE9000FFF7B4FF204600F0C5F82146074800F030
:10CEA00047F8064821461C3002F00EFF204603F0EA
:10CEB00075FA2046FFF726FE10BD00002825002049
:10CEC00030B5194B0D4604009A6A596A186A85B044
:10CED000DB6A03936B4607C324D0002D22D00020C9
:10CEE000C043A0822868A0610020A0752146684642
:10CEF00063DF002814D12178684681740B490182D0
:10CF0000A21C04A90120A0DF002809D1294620463F
:10CF100004F092FE002803D12946204603F016FFB4
:10CF200005B030BD0E20FBE7C424020043420000E0
:10CF300000281ED000291CD00A88102A14D0112ADB
:10CF400014D0502A15D1891D0A88038A9A4202D129
:10CF50000B8B022B0ED083889A420AD18369002B57
:10CF600007D00A8B1A311847898801E00021C9438C
:10CF700081827047CA7E8B7E11021943C907C90F8F
:10CF800000D001218175704707B584B000280DD00D
:10CF9000828A114B9A420BD0827D002A08D06A46C1
:10CFA000128B142A06D9072007B000BD0E20FBE71C
:10CFB0000820F9E7002200920192029203928289EE
:10CFC0006B461A80039106A9029101219970808A0B
:10CFD0006946A6DFE8E70000FFFF00007CB50C46CD
:10CFE0000F4900250860002C18D06946002000F089
:10CFF00075F8002813D101A9012000F06FF800286E
:10D000000DD1684601790020002901D0022004E0FA
:10D0100069460978002900D00B20207028467CBD85
:10D020001C200020054902884868102A04D0112AD3
:10D0300001D1401E48607047401CFBE71C200020C7
:10D04000F8B507460024214802E0641C052C19D2DB
:10D05000A2008258BA42F8D1052C13D21C4E1D4DA5
:10D06000B068002925D001290DD002290AD160001D
:10D07000201840194578002D04D07168002901D08E
:10D0800028468847F8BD610062182946AD5C5118F2
:10D0900000914978002906D00D4A0F49FFF72EF973
:10D0A000002800D137700098817809480C3001556C
:10D0B000E1E7FFF765F90648610061180C3049198E
:10D0C000005D8D78A842D6D0F8BD0000882402000B
:10D0D00008200020602500200280000005280CD2D6
:10D0E000074A1269074B80001B5C0120984090435F
:10D0F00000D001200870002070470020FAE70000EF
:10D10000000500508824020010B5001F0300FDF741
:10D1100060FF0D081313141313131313191B1D1F92
:10D1200013000D481321008876DF08E0002803D0A3
:10D1300000221146FEF706FF10BDFFF725FD082867
:10D14000F4D110BD0F2004E0F02002E0552000E0F3
:10D15000AA2005F071F910BD0020002070B5002351
:10D16000052811D2440004190D4D012A02D10129CC
:10D170000DD0002246008019094E801900290CD0DC
:10D18000012906D0022906D00723184670BD0D30AC
:10D19000C2B22A55F9E74270F7E78270F5E700005E
:10D1A000602500200020704770B50D460146124BE7
:10D1B00000205A6089070AD5002401221146204622
:10D1C000FFF7CCFF641C052C02D20028F5D070BDFF
:10D1D0000028FCD16A0805210848FEF777FE0028E0
:10D1E000F5D1FEF761FE0028F1D10348044A002181
:10D1F0000830FFF703F870BD082000209C240200CF
:10D2000025D20100002A10B50A46014603D0044881
:10D2100002F030FD10BD02481C38FFF7B5FE10BD0E
:10D220004425002010B500780221FFF709FF10BD4A
:10D230000548002202704178891CC9B24170032957
:10D2400000D9427070470000262100200022D243FE
:10D25000830004490428CA5002D3081840300271E0
:10D260007047000088260020F0B50025ED43002A15
:10D2700002D00023042601E004230A260B4C04E01C
:10D280009F00E7597F1C04D05B1CB342F8D32846AB
:10D29000F0BD26185DB2203635729E00A151002ADD
:10D2A000F5D1E11840310871F1E70000882600202F
:10D2B00002490918282008567047000088260020D7
:10D2C00000B5FCF73DFB142801D0002000BD012073
:10D2D00000BD000000B5FCF733FB142808D0FCF7B4
:10D2E0002FFB0D2804D0034800880004000E00D056
:10D2F000012000BD3021002030B50D4B0120597CAC
:10D30000DA8A552913D10B494C788D786419CD7878
:10D31000641903E0521E55182D792C19E4B2002A25
:10D32000F8D1E1431A7CC9B28A4200D1002030BD55
:10D33000C8340020A833002000B50146FCF700FBEC
:10D34000884201D1002000BD012000BD10B5094870
:10D35000417801290DD1817800290AD0491E09069A
:10D36000090E817005D1FDF7EFFD002801D004F012
:10D3700045FD10BD6022002038B510A000680024D3
:10D38000009003236A460021782001F00BFB6946D8
:10D3900008788023401C087000224021782001F08A
:10D3A0001AFB641CE4B2042CEBD3002004490246AF
:10D3B00048700146FDF75EFB38BD0000B01000006C
:10D3C000EC20002010B50446408841006068FAF760
:10D3D0003DFF00202070608010BD0000FFB50746B3
:10D3E0001AA081B000680090684600780E46C11906
:10D3F0006846017040781109411868464170154629
:10D4000080782907090F411868468170002411E0CF
:10D4100003236A460021782001F0C4FA694608789F
:10D420000022401C087040217820049B01F0D3FAB0
:10D43000641CE4B2B442EBD30020054902464870B4
:10D4400029463846FDF716FB05B0F0BDB0100000C8
:10D45000EC200020FEB51E200025009001950295CD
:10D4600001A804F0ADF904F0A5F920490968204CA1
:10D4700088420CD304F078F90420A90062586D1C8E
:10D480000243EDB26250032DF7D3FDF77BFA6946F4
:10D49000C87A002201238340087A497A9600A55968
:10D4A0002F043F0E1F421AD0EF0618D56F0716D56E
:10D4B0002F023F0E874212D12D0E8D420FD19200C6
:10D4C000A2580425AA43A2511204150E2D0603D416
:10D4D000120E9A4333195A7000F06EFC03E0521C8E
:10D4E000D2B2032ADAD30098FEBD0000002100204A
:10D4F00020300020F8B5224801694A1C3DD0242282
:10D500005143826889184E681E494C684769007902
:10D51000E11B0D022D0AED1C002814D101201A4A2E
:10D5200000045060184A403A5060184940000860B2
:10D53000174908601749012008602F20FAF7DAFD23
:10D540000F4901200871B54200D23546E8190002A2
:10D550000C49000A403108600A494968001B091B50
:10D560000902090A0002C91C000A814204D90120EB
:10D570000649400480390860F8BD03F0C5FBF8BDDA
:10D58000AC200020001501404013014080E200E083
:10D5900000E100E000100140F8B50D4611780646A4
:10D5A000881D14461F2801D90C20F8BD3388072098
:10D5B000062BFAD31927FF01BB4202D9164A934220
:10D5C000F3D17288062AF0D3BA4202D9124FBA4276
:10D5D000EBD1114FBB4203D0BA4201D09342E4D801
:10D5E000481C052220706A5420781222411C2170A8
:10D5F0002A5420784119308804F052FC21784018D0
:10D60000C0B220704119708804F04AFC217840189B
:10D6100020700020F8BD0000FFFF000010B50022C0
:10D620001146FEF78FFC10BDF8B5164801F086FED6
:10D63000144D0026103D144C002807D061690029C4
:10D640001BD001206A461070684615E02878002833
:10D6500005D06169002910D0684606700CE0687832
:10D6600000280CD0A16800226868FEF747FE002859
:10D6700003D0A169002900D088472E70F8BD6168E9
:10D68000F1E70000582000206C260020F3B50025AB
:10D6900081B00E46002919D00D4CFF2720682D3788
:10D6A000B84213D2002801D101F0E4FA20463C3000
:10D6B0000AE02168B94205D2019A525D0A542168F4
:10D6C000491C21606D1CADB2B542F2D3FEBD000015
:10D6D000C8290020044900204882FF3921390870F8
:10D6E0008870C87070470000C834002010B503F07F
:10D6F00053FD10BD1A2101702B2141703C21817016
:10D700004D21C1707047F7B5FFB000209FB00C905D
:10D7100001900290039009900446079008900490AD
:10D7200005900690C0210DA8FAF790FDC0213DA8F4
:10D73000FAF78CFDC0216DA8FAF788FD9F980DAD12
:10D74000470039462846FAF781FD0A232A469F9961
:10D750009E98FBF7F3FD3DAD39462846FAF776FD76
:10D760002A469E999F9800F031F96DAE39463046B1
:10D77000FAF76CFD33462A4600219F9803F0EAFD34
:10D780000DA8019025A802903DA8079055A80890E3
:10D790009F990198FAF75AFD9F990298FAF756FD5A
:10D7A0009F990798FAF752FD9F990898FAF74EFD4E
:10D7B0006846848101A80090334600229F999E9874
:10D7C000FBF7FBFD68468089002822D068468484E8
:10D7D00007A80090334600229F999E98FBF724FEED
:10D7E0006846808C002814D06DA8049060300590A5
:10D7F00004AA07A901A802F02BFF04A802F076FEF4
:10D800006846008B012804D904A8A09902F090FF73
:10D810000C900C987FB022B0F0BD0000F3B599B029
:10D8200069490968481C04AA012103F069F966499D
:10D830000968481C04AA012103F062F9624903AA9D
:10D840000868012103F05CF96846007B002801D1DB
:10D85000102003906846007C002809D1002403E0D2
:10D86000002119980155641C202CF9D31BB0F0BD80
:10D8700055490968081D07AA042103F041F96946C2
:10D88000CE7F002001211890169117903046169BEC
:10D89000179A1899FAF784FC6946897F0904421897
:10D8A0006946487F00021218087F10180090464908
:10D8B00009680846083007AA042103F021F96946DF
:10D8C000CF7F002001211590139114903846139BAF
:10D8D000149A1599FAF764FC6946897F090442187D
:10D8E0006946487F00021218087F15180195019DAE
:10D8F0003549096808460C3007AA042103F000F9ED
:10D900006946C87F0021012211910F921091129057
:10D910000A460F9BFAF744FC6946897F09044118BF
:10D920006846407F000209186846007F0818019089
:10D93000019808901A9800090990099989004919D5
:10D94000214A1268881806AA042103F0D9F868460B
:10D95000C07E002101220D910B920C910E900A467F
:10D960000B9BFAF71DFC6946897E0904421869463B
:10D97000487E000211186846007E08180A9009982F
:10D9800001010898081810490968401802901A986F
:10D990000407240F0DE002994A1C0846029205AACA
:10D9A000012103F0ADF86946097D0A9840180A90F4
:10D9B000641E002CEFD16846027B0A99199804F086
:10D9C00075FA00BF52E700007022002070B50023F6
:10D9D000022823D94B880C881B1B13804400631832
:10D9E000203BDD8B9B8BA418EB1A203CE3830123A7
:10D9F000801E0BE05D006C186688203CE48B341BB5
:10DA0000E60F341964105B1C54539BB28342F1DB64
:10DA100070BD5C000D5B5B1C15539BB28342F8D359
:10DA200070BD0000F8B500260124154D24E069689A
:10DA3000F00047183878214681406A690B46134246
:10DA400018D08A436A6102F0DBFA3A7821462B69E2
:10DA5000914019400346934099420BD179780129AE
:10DA600001D0012100E000217B684140002B01D062
:10DA700010469847761CF6B228788642D7D3F8BD70
:10DA80009420002010B50EA0FAF7A0FF00F05AFF76
:10DA9000FCF762FAFEF732FFFDF7E6FF03F052FFF4
:10DAA000FBF744FCFDF730FA01F0A6F9FBF71EFC8A
:10DAB00000F06AFFFBF7CEFF06A0FAF787FF10BD64
:10DAC0000D0A3D3D3D6465765F696E69743D3D3D7F
:10DAD0000D0A00006C636420696E6974204F4B0D61
