:020000040001F9
:10800000D83E0020498101006381010065810100A3
:108010000000000000000000000000000000000060
:108020000000000000000000000000006781010067
:108030000000000000000000698101006B81010068
:108040006D8101006D810100DDAE01006D810100D7
:108050006D810100000000003D9601006D8101006E
:108060003DAC01004DAC01005DAC01006D81010033
:108070006D8101006D8101006D8101006D81010044
:10808000A9AF010045A901006D8101006D810100CA
:1080900065A901006D810100B9A901006D81010090
:1080A0006D8101006D8101000000000000000000F2
:1080B00000000000000000000000000000000000C0
:1080C0000348854600F002FB00480047750E020099
:1080D000D83E0020401E00BF00BF00BF00BF00BF51
:1080E00000BF00BF00BF00BF00BF00BF00BFF1D195
:1080F00070470000401E00BF00BF00BF00BF00BFB0
:1081000000BF00BF00BF00BF00BF00BF00BFF1D174
:1081100070470000056885F308884068FF2464B252
:10812000EFF30585002D01D1A646004725460646FA
:1081300021273FBAF0B40024002500260027F0B420
:10814000F92040B2004700000321094802680A43B1
:108150000260084802680A430260074880470748EF
:108160000047FEE7FEE7FEE7FEE7FEE7FEE700006A
:108170002405004054050040E9AB0100C180010026
:1081800030B50B46014600202022012409E00D46AF
:10819000D5409D4205D31D469540491B2546954037
:1081A00040191546521E002DF1DC30BD70B500247B
:1081B0002546002801DA01244042002901DA012580
:1081C0004942FFF7DDFFAC4200D04042002C00D016
:1081D000494270BDF0B51FB486B0002000900190F8
:1081E00002900698069980B204900798090C020440
:1081F0000014114307900027089D099806913E46F8
:108200003C4603900398A9B20204000C0390049822
:108210002D0C154348430021224600F080F8C71971
:10822000714110340E46402CECDB3846029A00F0C7
:1082300076F8009A019B80180090594102980191AC
:10824000103002904028CCDB00980BB0F0BD034604
:108250000B439B0703D009E008C9121F08C0042A7A
:10826000FAD203E00B78491C0370401C521EF9D26D
:108270007047D2B201E00270401C491EFBD2704729
:108280000022F6E710B513460A4604461946FFF7E2
:10829000F0FF204610BD421C0178401C0029FBD194
:1082A000801A704730B504460020034600E05B1C8E
:1082B000934203D2E05CCD5C401BF8D030BDF0B5FA
:1082C0001FB40646002082B005464024019100906C
:1082D0001BE0019922460F46304600F009FA049A45
:1082E000059B801A994110D310461946224600F08A
:1082F00016F8361A8F410197224601200021009F6F
:1083000000F00DF838184D4100902046641E0028FA
:10831000DFDC019B00982946324607B0F0BD10B55E
:10832000202A04DB0146203A9140002010BD9140F4
:1083300020239C1A0346E3401943904010BD0000DF
:10834000F0B507460846584087B0C00F0490480073
:108350000E46590040084908BC1A884105D23846E3
:1083600031461E4617460B46024658004008104349
:1083700003D13846314607B0F0BD300D03904005BB
:108380005900400D490D0590401A029040286DDAC1
:1083900018030121000B090508430190049800927D
:1083A000002805D001995242002088410092019096
:1083B000029840210A1A01990098FFF7B0FF05467C
:1083C0000C46684607C800F0A4F9C0197141039A29
:1083D0000E0D0023D71756401A467A40164340D058
:1083E000049A002A29D0029A012A039A11DC120564
:1083F000C01A914101263605001C7141D20F059E1D
:10840000D2070093019202962A46234600F0A1F972
:10841000B1E71605224A0F46B218C01AB74101212A
:108420000905001C4F4100187F4111461818794179
:10843000E20F10436D19644113E0E2076D08154324
:108440006408C2071443039A01261205C01A914119
:108450003605001C7141CE07400830434908C0185A
:1084600051412A46234600F067F984E70498012227
:108470004000C117121A00238B4104983146C417DB
:10848000381AA141EFE730B40124E407634030BC5F
:1084900056E730B40124E407614030BC50E70000E7
:1084A0000000E0FFF0B51FB488B00B9909980024D4
:1084B00048400999C00F490049080991C0070B9924
:1084C0000090490049080B9109990898A64608436D
:1084D00003D00B990A98084303D1002001460DB040
:1084E000F0BD099801244000420D4800410D099853
:1084F00024050003000B204309900B980003000B98
:1085000020430B9050181A4940180022019014463D
:10851000104601E0032801DA034600E003239C46ED
:10852000C11A0AAE0AE05F0008ADED5B4F00F75BD1
:108530007D430027AA187C415B1E491C6145F2DD82
:10854000410004AB5A522104120C0A43240C401C73
:108550000828DFDB01980290009970460191009095
:10856000059B049A0799069800F0F3F8B7E7000016
:108570000DFCFFFFF0B50C465C4085B0E40FE4074E
:1085800003944C00002664085900944649080246AA
:108590000296224321D062460A431ED06200570D44
:1085A0004A000E032303550D012402462C492405DD
:1085B000781B1B0B360B4018234326436146009063
:1085C0001C46501AB44103D30098401C009002E0AE
:1085D000921800985B41002803DA0020014605B09C
:1085E000F0BD0020012109050746864611E06446DA
:1085F0001D46141BB54106D36546521BB341744654
:1086000007430C43A646CD07400849082843921863
:108610005B4105460D43EAD11046184313D060462E
:10862000194650407140084303D100220123DB0763
:1086300009E06046101AB34102D20122002302E091
:108640000122D2435310009874460105381C614141
:10865000029C039D0019694100F06EF8BFE700001D
:10866000FD0300004A0009030123090B1B05194300
:108670000A4B10B5520D9A4202DA0020014610BD95
:10868000064B34339A4203DC9A1A00F031F810BDDD
:10869000034BD218FFF743FE10BD0000FF0300009C
:1086A000CDFBFFFF10B5002904DB0124E4074042A5
:1086B0008C412146002B04DB1C460123DB07524280
:1086C000A341994200D1904210BD0000064C012503
:1086D000064E05E02046E36807C82B439847103450
:1086E000B442F7D3FFF7F0FC504D0200704D02008A
:1086F00010B5202A04DB0846203AD040002110BDE6
:108700000B46D340D0402024A21A9140084319467A
:1087100010BD10B5202A06DBCB170846203A1041C1
:10872000C1170B4306E00B461341D0402024A21A88
:1087300091400843194610BD10B5002B08DA0024FB
:10874000401C614192185B411A4301D1400840002E
:1087500010BDF0B51FB482B005460C0003D008462A
:1087600002F048FC02E002F045FC20300246009096
:1087700021462846FFF7D3FD049B059A04460F4681
:1087800018431143084303D12046394607B0F0BDD2
:108790001846104317D0009840210A1A1846059928
:1087A000FFF7A6FF05460E46009A05990498FFF7C5
:1087B000B6FD084301D0012000E00020C1170543A9
:1087C0000E432C43374300990E986305401A7905F0
:1087D000E40A0A3000220C43FD0A002802DA0020D5
:1087E0000146D3E70105101969410C9C0D9D001944
:1087F0006941FFF7A1FFC9E770B58C180578401CE7
:108800006B075B0F01D10378401C2A1106D1027857
:10881000401C03E00678401C0E70491C5B1EF9D119
:108820002B0705D40023521E0DD40B70491CFAE708
:108830000378401CCB1A921C03E01D785B1C0D7062
:10884000491C521EF9D5A142D8D3002070BD70B585
:1088500004460D461646202C51D37F2C4FD82B00B2
:1088600002F0DFFB0649040F1D2B3A49214620394F
:10887000C9000122920488183246082109F03EFFFF
:108880003AE021462039C900032212028918012248
:10889000920488183246082109F030FF2CE0214666
:1088A00020390901032252028918012292048818F2
:1088B0003246102109F022FF1EE0214620392222F3
:1088C00051430322920289180122920488183246E9
:1088D000222109F013FF0FE02146203922225143C3
:1088E00063229201891801229204881832462221BB
:1088F00009F004FF00E000BF00BF012070BD0C21A3
:108900003046FFF7BDFC0020F8E7000010B502F08C
:10891000ADF90149088010BDBC21002000B52A49ED
:108920008BB003C9099108901F226946002007F007
:1089300087F968460078AA283AD1684640785528D1
:1089400036D16846C078002802D0FF2815D028E02C
:1089500068460079002824D168464079002820D153
:108960006846807900281CD16846C079002818D153
:108970006846007A00281BD013E068460079FF287B
:108980000FD168464079FF280BD168468079FF28CF
:1089900007D16846C079FF2803D16846007AFF28CE
:1089A00006D000A908A8062203310130FFF74FFCCA
:1089B00008A9002070DF002803D00022114603F030
:1089C0001FFB0BB000BD00002045020004480069F9
:1089D0004006C00F01D00020704701207047000002
:1089E0000005005010B50E2004F008FE002810D13C
:1089F00001F0A6FC00280DD0094CA078012808D170
:108A000000202056002105F0BDFE0020A0700AF0D5
:108A100033FD10BD02490120891D487010BD0000C2
:108A200056210020014900204871704794220020FF
:108A30000FB400B5C1B043AA6846429902F0C8FA23
:108A400068460AF0DBFA41B008BC04B018470FB41E
:108A500030B5C1B0002545AA6C4601A8449902F082
:108A6000B7FAAA2269460A70DD224A7000228A708B
:108A7000C8700121421C03E0635C5B19DDB2891CF4
:108A80009142F9DB2118EA430A7155224A71801D8F
:108A900081B268460AF0CAFA41B030BC08BC04B0E2
:108AA0001847000010B5A2B004F076FD002832D1BE
:108AB000192004F0A3FD00282DD0002001ACFF21D7
:108AC0002154401CC0B28028FAD3012008F09CF841
:108AD00005F026FF0022802301211046009405F0B6
:108AE0001DFE0121802300220846009405F016FE99
:108AF0008023002201210220009405F00FFE802334
:108B0000002201210320009405F008FE03481921EA
:108B100001700221417022B010BD00005C210020D4
:108B200010B50446FF281ED01D480078012803D147
:108B30000021084601F020FA0F2C27D0552C15D023
:108B4000AA2C07D0F02C0ED104F01CFD00281BD05D
:108B5000F02020E004F016FD002805D0AA2009F03E
:108B6000DEFF06F05DFA10BDAA200AE004F00AFD5F
:108B7000002805D0552009F0D2FF05F08FFF10BD69
:108B8000552000F003F910BDF020FAE704F0FAFCDC
:108B9000002803D00F2009F0C2FF10BD0F20F0E71E
:108BA00018210020F8B50746012008F02DF800F044
:108BB000EFFD054602F0B0F90026304C012805D043
:108BC000A6806670142D47D8002052E0FFF7FEFE05
:108BD0000146042001293AD101220A2D07D8217823
:108BE0000025012901D3257021E0491C1EE0192D23
:108BF00005D8217801250129F7D3267017E0322DF9
:108C000005D8217802250229EFD322700FE0552DD7
:108C100005D8217803250329E7D3022106E0642D36
:108C200005D8217804250429DFD303212170617838
:108C3000A94202D06570A68002E0A188491CA180EB
:108C4000052D00D12070A1880D4A914200D92070D5
:108C5000207804280CD80CE01E2D01D8012008E053
:108C60003C2D01D8022004E0552D01D8032000E05E
:108C70000420394600F036FAF8BD000050210020EB
:108C80006810000070B500251A490F2829D00A463F
:108C900056680223F2B2D41E552817D0AA2808D04D
:108CA000F02809D1230002F0BCF9051C1C1C1C1E75
:108CB0001C00022A01D20B7170BD521CD0B20A7185
:108CC000092801D202280CD20B710AE0022AF2D341
:108CD000521E0A71D2B20820022A01D3092A00D3F7
:108CE00008714D7170BD3004000EFBD10120487138
:108CF00070BD00005C21002010B58AB000216846DC
:108D0000017020A40A46084601F0E0FE00231A463E
:108D10000421204605F0D4FE694601A800F08CFD30
:108D200000222821104601F0D1FE68460023017878
:108D30001A4601A805F0C4FE00222821022001F0F5
:108D4000C5FE202201A9282006F07AFF6846007996
:108D5000AA2803D16846407955280CD0694601A855
:108D600000F032FD6846002301781A4601A805F09C
:108D7000A7FE0AB010BD6846002381791A46C01DBF
:108D8000F5E70000B0E6B1BE00000000F0B58BB022
:108D9000024604F0F7FB00284DD1BC4C6168080680
:108DA000000E02D10804000E3FD0FF2A43D0104627
:108DB000FFF768FF60680104090E012904D0C0B202
:108DC000072801D000F0C0FD60680104090E34D00E
:108DD000C0B207282FD100F0EBFD0E2824D00022CE
:108DE00080230421104604F0E9FC012007F00CFF69
:108DF0000E20207001F0A4FA00287DD0A4A5012047
:108E000001F09AF900221146012001F05FFE284688
:108E1000FFF741FA014600231A46284605F050FEA6
:108E20003C2060700AF028FB29E100F0A7F905203A
:108E30006070012020710BB0F0BDC0B2801E030035
:108E400002F0EFF807061A2F4398BFF90500F2E782
:108E500000F0AEFD06280BD000228023042110462E
:108E600004F0ACFC012007F0CFFE022005F04CFF1F
:108E700005206070062012E000F09AFD07280BD054
:108E8000002280230421104604F098FC012007F002
:108E9000BBFE032005F038FF05206070072020701E
:108EA000C9E700F085FD08280BD0002280230421AB
:108EB000104604F083FC012007F0A6FE042005F014
:108EC00023FF052060700820E9E773A600F070FD1D
:108ED00009283AD0002280230421104604F06EFCB9
:108EE000012007F091FE3046FFF7D5F9C5B22946BB
:108EF000304600F04EFD00E0B0E000220146104692
:108F000001F0E4FD00231A462946304605F0D8FD5D
:108F100028226946002006F093FE68460078AA28B9
:108F200003D168464078552813D00E2529465BA00A
:108F300000F02FFD01460022022001F0C7FD0023B2
:108F40001A46294655A005F0BBFD1E206070092079
:108F5000A5E7684681780930054600F01AFD01460C
:108F60000022022001F0B2FD6846817800231A46F3
:108F70002846E8E700F01CFD0A281ED000228023C6
:108F80000421104604F01AFC484800880004000E32
:108F9000012812D0012007F037FE03A80AF080FC58
:108FA0006846827C417C007C6B4607C36846C37C74
:108FB000C27B817B808905F0C7FC052060700A2098
:108FC0006DE73BA73DA600F0F3FC0C282ED0002255
:108FD00080230421104604F0F1FB012007F014FE69
:108FE0003046FFF758F9C5B22946304600F0D1FCAB
:108FF00000220146104601F069FD00231A46294669
:10900000304605F05DFD3846FFF745F9C5B2294603
:10901000384600F0BEFC01460022022001F056FD59
:1090200000231A462946384605F04AFD052060709F
:109030000C2034E7FFE700F0BBFC0B280AD000222D
:1090400080230421104604F0B9FB012007F0DCFD69
:10905000FFF752FE052060700B2020E700221AA5C2
:109060001146012001F032FD2846FFF714F90023D4
:1090700001461A46284605F023FD0520607000F0E1
:1090800097FC014613A0FFF7D3FCD4E65C21002037
:10909000B2E2C1BFD6D00000494400004253423181
:1090A000353032303230303031310000182100207C
:1090B000B0B44F4BB2E9D1AF00000000B2E9D5D255
:1090C000CAD6BBFA00000000CEB4C1ACCAD6BBFA07
:1090D00000000000736574206469737461673D2546
:1090E000780D0A0008B5030001F09BFF0504061087
:1090F00013160F000A4801E0094820380A460221E9
:1091000000901023084605F009FB08BD04484038CC
:10911000F4E703486038F1E701488038EEE70000E3
:109120004C4A020010B51448018809040A0E21D0E7
:10913000090E491E417000880004000E1AD100F08B
:1091400037FC052803D000F033FC182803D1002198
:10915000084600F011FF00F02BFC0E2801D100F0B2
:10916000F3FB04F00FFA002804D101F0D5FE002033
:1091700007F04AFD10BD00005C210020F0B589B069
:10918000002504F009FA002802D0002009B0F0BD43
:1091900002F0A2FE03AE06900A21FEF7F1FF715520
:1091A0006D1CEDB20028F7D10790012007F02CFDCF
:1091B000172004F023FA002801D005F0B1FB01A824
:1091C0000AF06EFB6846007A0A21FEF7D9FF800795
:1091D000564C574F800F04D030214843001900905F
:1091E00000E000970C2304210020079A05F096FA6E
:1091F0006846007A0A21FEF7C3FF30204143081970
:109200000C2300901A460421002005F087FA4948F3
:10921000009018220C230421002005F07FFA6846F4
:10922000407A0A21FEF7ACFF0007000F30214843C7
:10923000001900900C2324220421002005F06EFA6E
:109240006846407A0A21FEF79BFF30204143081907
:1092500000900C2330220421002005F05FFA3C240A
:10926000062D07D20823224604210020009705F08E
:1092700055FA4424002004E0315C30313154401C64
:10928000C0B2A842F8D300206A080AE0335C291A69
:1092900089199C462039CB7F33546346401CCB77D9
:1092A000C0B28242F2D82846202102E03154401C4C
:1092B000C0B20628FAD3204800901023224602218B
:1092C000002005F02BFA214600221031104601F053
:1092D000FDFB1A490698884204D900231A46062144
:1092E00017A009E0062D03D200231A46052102E04B
:1092F00000231A46062103A805F0E2FBA01CFFF795
:1093000051FC01F01DF801280DD0009722460221E2
:1093100012321023084605F001FA0B491720087095
:109320000120087132E709480090EFE76C4A02001B
:109330004C4602004C4C0200CC4702003F420F005A
:1093400039393939392B00005C2100202C490200C1
:1093500038B5FF242D340C4A00210C4808F010FACF
:10936000002803D00022114602F04AFE2146074899
:1093700008F07EFA01210B460246009100210348C5
:1093800008F0E6F938BD0000153C0200384602003E
:1093900010B507F029F90149488010BD8822002046
:1093A000FFB5064681B00020009002981D46471B7D
:1093B000002412E00022104605E021184900715AED
:1093C0008A18401C80B2A842F7D329461046FEF7FF
:1093D000D7FE6100641C7052A4B2A742EADCBCB2A2
:1093E00012E00022104605E0211A4900715A8A183D
:1093F000401C80B2A842F7D329461046FEF7C0FEB3
:109400006100641C7052A4B202988442E9D30098AF
:10941000401CC0B200900228CAD305B0F0BDF0B520
:10942000964600240A22059D84460A2906D84A0841
:10943000022901D80846F0BD012A04D9500840008D
:10944000401E80B200E00120401E891A80B2491EF1
:1094500017E046009F5F002F11DBF7180222BA5E6B
:10946000002A0CDA6746BF5B774508D967002A688F
:10947000641CD0536246965B6A68A4B2D653401C03
:1094800080B28142E5DC2C812046F0BDF0B59646E5
:1094900000240A22059D84460A2906D84A08022982
:1094A00001D80846F0BD012A04D950084000401EEA
:1094B00080B200E00120401E891A80B2491E17E0E8
:1094C00046009F5F002F11DAF7180222BA5E002AC9
:1094D0000CDB6746BF5B774508D967002A68641CC8
:1094E000D0536246965B6A68A4B2D653401C80B2E1
:1094F0008142E5DC2C812046F0BDC17882780902EA
:109500001143427809021143007809020843704769
:10951000F3B581B00C46002301980002020C0198BB
:10952000C1B27F2901D10020FEBDA12A0BD3A32AFD
:1095300009D8A12907D31046A1385E2670430E46EC
:10954000A13E83190CE0A92A0AD1A12908D3901AB7
:109550005E2670430E46A13E80190346FF331B333F
:10956000B02A0ED3F72A0CD8A1290AD31046B03856
:109570005E2670430E46A13E80190346FF337933C1
:1095800052E0A12A13D2812A11D340290FD37F2977
:1095900001D9481E81B210468138BE2670430E465E
:1095A000403E8019FF307930204E83193CE0AA2AD2
:1095B00011D3A1290FD27F2901D9481E81B21046AB
:1095C000AA38602670430E46403E8019FF3079303D
:1095D000174E831928E0812A10D139290ED3200291
:1095E000050CE0B200902846EE380A267043114E72
:1095F0008619009830180346393B15E0822A13D1AA
:109600002002050CE0B20090084630380A4E704344
:10961000084E10368619284681380A2778433618AE
:10962000009830180346303B18467DE7701A00005A
:109630003032000088530000EC040000F8B500252B
:10964000FF24013401262F460095204608F0C8F972
:10965000002808D034484068304204D03348002104
:10966000201835430160241D76007F1CA4B2042F0E
:10967000EBD3FF207D3008F0B3F9002807D02C4849
:1096800000210160400705432A48006900902A4EE6
:10969000280713D001270024384628420AD027483B
:1096A000A200111808690969C004C00E8903B258E4
:1096B000890F90477F00641C042CEDD3002D30DA15
:1096C00000241D4E0821301940304156491C25D038
:1096D000077ABD06AD0E284603F04CFF80003658D1
:1096E000002E1BD0BF090121A940154AA8008018EF
:1096F0000068009A8003800F114202D0022802D035
:109700000CE003280AD1032F05D102280AD0022138
:10971000284608F055F939462846B047641C062CFF
:10972000CFD3F8BD0321F3E70063004000600040A1
:109730007C610040000500503C280020006500408E
:1097400000070050704770470949087800280DD17C
:109750000948084A8261094A0C2313600222826088
:1097600004228260C20582600120087070470000F8
:109770001121002006000080000500500007005065
:10978000024A0F21800080180160704700070050D6
:1097900010B5002403F08CF80A21FEF7F1FCFF213C
:1097A0004B3188420DD3FF21A531884201D9642471
:1097B00007E0FF384B38642148435A21FEF7E0FCAC
:1097C000C4B2204610BD0000F8B50A4D06460F464B
:1097D00000242868FEF75FFD387004E02868005D0B
:1097E0003055641CE4B22868FEF755FDA042F5D858
:1097F000F8BD0000402100200448C0790007000F98
:10980000042801D0002070470120704794220020D6
:1098100001484079704700009422002010B50022D2
:10982000134604E0845CE318521CDBB292B28A4215
:10983000F8D3D843C0B210BDF8B50A4D06460F465E
:1098400000246868FEF727FD387004E06868005D52
:109850003055641CE4B26868FEF71DFDA042F5D8DF
:10986000F8BD000040210020F3B5044689B0FD207A
:10987000344E20700027B068FEF70DFD60700225A1
:1098800006E0B068C05D60556D1C7F1CEDB2FFB294
:10989000B068FEF700FDB842F3D8FC2060556D1C9F
:1098A000EDB27068FEF7F7FC60556D1CEDB2002755
:1098B00006E07068C05D60556D1C7F1CEDB2FFB2A4
:1098C0007068FEF7E8FCB842F3D8FE2060556D1CC6
:1098D000EDB23068FEF7DFFC60556D1CEDB2202262
:1098E0006946282006F0ACF968460078AA2803D11A
:1098F00068464078552801D0002719E069468978E4
:109900000020002919D96A461118C97861556D1CC3
:109910009178EDB2401CC0B281420ED92028F3D319
:10992000F8E73068C05D60556D1C7F1CEDB2FFB27A
:109930003068FEF7B0FCB842F3D80A9805700BB057
:10994000F0BD00004021002010B5064C60780128D1
:1099500007D10548408885DF0020607003A0FFF72D
:1099600067F810BD56210020002000204765745F75
:10997000527373695F73746F700D0A003EB50446CD
:10998000684600F01BF822460C21684600F0A6FF4E
:109990003EBD10B504F018FE802806D88021081AB4
:1099A000C10F0818C005000E10BD002010BD00003A
:1099B00001480078704700005C21002010B50C229F
:1099C0000149FEF744FC10BDC921002000BF00BFC3
:1099D00000BF00BF704700BF00BF00BF00BF00BF97
:1099E00000BF00BF704700BF00BF00BF00BF00BF87
:1099F00000BF00BF00BF00BF704700BF00BF00BF77
:109A000000BF00BF70470000F8B50026104C0125CC
:109A10000746ED0338060F4801D5A06000E0E0607E
:109A20007806070EFFF7E9FFA560FFF7DCFFE560AA
:109A3000761CF6B2082EEDD3FFF7D5FF0548A060DF
:109A4000A560FFF7D0FFE560FFF7C0FFF8BD00009D
:109A5000000500500000010070B50125074C2D04E1
:109A6000A560FFF7C0FF6E10A660FFF7BCFFE560C2
:109A7000FFF7B9FFE660FFF7B6FF70BD00050050C5
:109A800070B50125064C2D04E560FFF7ACFF6810AA
:109A9000A060FFF7A8FFA560FFF7A5FF70BD00005D
:109AA0000005005010B5022007F014F802F07EFB0C
:109AB00002F036FB0121022007F01AF810BD0170F8
:109AC0000A1242700A148270090EC1707047017048
:109AD0000A1242700914817070470000F0B587B017
:109AE00000241C221AA16846FEF7B1FB19250320A9
:109AF0001E4E4003B06101204003F0604700F76054
:109B0000052007F0E9FCB7606E466D1E07E0325D88
:109B100001230021782006F016F9641CE4B2AC425F
:109B2000F5DB134C00256570257003F087FD0123DC
:109B3000AF220021782006F006F925716571FFF744
:109B40001DFB052060700120207107B0F0BD0000F2
:109B5000AE001000B0818FA1A6A81FC8D300D58089
:109B6000D91FDA00DB408D14AF0000000005005063
:109B70005C21002008B500216A46117004280DD030
:109B800000280BD0012810D002281AD003282DD08D
:109B90002AE068460078C106C90E1EE011462E2054
:109BA00000F06AF8002820D0F3E711462E2000F0DC
:109BB00063F8002819D068460078C006C00E40211E
:109BC0000AE011462E2000F057F800280DD0684614
:109BD0000078C006C00E80210143684601702E2027
:109BE00000F08DF9002800D0012008BD11462E207C
:109BF00000F042F80028F8D068460078C006C00E91
:109C0000C021E9E710B501462F2000F035F8002803
:109C100000D0012010BD10B50146312000F02CF815
:109C2000002800D0012010BD10B501460F2000F023
:109C300023F8002800D0012010BD10B501460622EF
:109C4000A82007F04CF810BD38B50446002069463E
:109C50000870212000F010F800280CD06946087820
:109C60004008400020430870C1B2212000F047F9AD
:109C7000002800D0012038BD10B5012207F02FF8D0
:109C8000012010BD38B50446002069460870232025
:109C9000FFF7F2FF00280ED068460178CF20014080
:109CA00020010843C1B268460170232000F027F963
:109CB000002800D0012038BD10B57F2801D9002030
:109CC00010BD0146332000F01AF90028F8D0012019
:109CD00010BD38B50D4604460020694608702220A4
:109CE000FFF7CAFF002810D0002D0FD0684600787B
:109CF0000146214208D1204369460870C1B22220A2
:109D000000F0FDF8002800D0012038BD6946087831
:109D1000A043F2E710B57F2801D9002010BD01460D
:109D2000322000F0ECF80028F8D0012010BD38B542
:109D3000044600256846057069462520FFF79CFF0C
:109D4000002809D0254368460570E9B2252000F0B7
:109D5000D6F8002800D0012038BD38B504460020D0
:109D6000694608703020FFF787FF00280DD069464C
:109D7000087840210840204369460870C1B230206D
:109D800000F0BDF8002800D0012038BD38B50446E9
:109D90000020694608703020FFF76EFF00280ED0C3
:109DA00068460078A1018006800E0143C9B268466A
:109DB0000170302000F0A3F8002800D0012038BD49
:109DC0001CB5044600206946087008712020FFF782
:109DD00053FF002819D001A92320FFF74DFF0028C9
:109DE00013D0684601781D480A0905D18278120906
:109DF00012010A4369460A70002C07D0F721082394
:109E0000012C13D0022C09D000201CBD6946097812
:109E100081700807000F694608700FE068460278F5
:109E20000A40027002790A401A4306E06846027846
:109E30000A401A43027002790A40027168460178AA
:109E4000202000F05CF80028DFD06846017923204C
:109E500000F055F80028D8D001201CBD4C2200206D
:109E600038B504460020694608702020FFF704FF3B
:109E700000280ED06846007821010007000F01433A
:109E8000C9B268460170202000F039F8002800D0DF
:109E9000012038BD38B504460020694608702E20E0
:109EA000FFF7EAFE00280ED068460178DF20014067
:109EB00060010843C1B2684601702E2000F01FF80F
:109EC000002800D0012038BD38B50446002069467E
:109ED00008701F2C00D938BD2E20FFF7CDFE0028BA
:109EE000F9D0694608784009400120430870C1B2A2
:109EF0002E2000F004F80028EDD0012038BD13B565
:109F0000014601AA0123322008F0C0FE01201CBD39
:109F100010B509F049FD00282BD009F03FFD05F0F0
:109F2000C1FEFFF7FFF8FEF75DFD00F0F5FF114CF5
:109F3000012803D02078012811D014E000F000FAA5
:109F4000012807D0002009F019F8FFF717F90128B8
:109F500002D00CE02820F6E70120207007E0002066
:109F6000207006F051FE05F0CDFD05F0E1FD03F097
:109F70004FFB10BD80210020F8B50025164C0F4680
:109F800000280CD003F0FEFA002815D10720012686
:109F9000002F12D0012F13D0022F15D119E004F099
:109FA00007FB257020880004000E012802D165708F
:109FB00004F0B6FC04F0FCFAF8BDE070A57001E016
:109FC000E070A67000F050F82670044807F0B6FB69
:109FD000F8BD0220F4E700001821002038460200F6
:109FE000054808218161816004490020487088800B
:109FF000C88008707047000000050050182100203C
:10A0000010B517480168CAB2012A0CD1090E22D036
:10A0100041680A04120C07D0491E81800804000C14
:10A0200001D104F0C5FA10BD0D4A0B0C1268120ED6
:10A03000521E002B05D0090C491EC1804168090C35
:10A04000F1D1C2700068000EEDD000F00DF80548A7
:10A0500007F074FB10BD00210846FFF78DFF10BD0F
:10A0600018210020384602000648016809020A0E3D
:10A070000221002A03D0012A01D0022A01D18180C5
:10A08000C1807047182100208307FF22DB0E9A4011
:10A090008907090E994000280BDA0007000F0838DD
:10A0A000830808489B001B18D86990430843D8616F
:10A0B0007047830804489B001B18186890430843A6
:10A0C0001860704700ED00E000E400E010B51848AB
:10A0D00009F090FE00280BD1164C0120607103F0AE
:10A0E0006DFA13490028487805D0012108F0F8FCE2
:10A0F00003F07AFD10BD5C280BD0DD2814D03C287D
:10A1000012D07C2810D06C280ED0002108F0E8FC7A
:10A110000AE04879002807D108790649083109780A
:10A12000814201D10020607006F07CFAE0E7000077
:10A13000983500209422002010B5034600221146D5
:10A140001C2000F043F910BD10B50A46014600F08E
:10A15000F7F8002803D000230D2000F037F910BDD8
:10A16000024802220168914301607047503200208A
:10A17000F0B585B0002200920192029203236C4652
:10A1800003922370134B11468C001C59250713D5DD
:10A19000E50602D508250D4300E00D4697006E4602
:10A1A000BE19757025042D0EB57025022D0E240ED6
:10A1B000F570521C3471D2B2491CC9B20329E3D3E1
:10A1C00092000346521C6946072000F0FFF805B0D4
:10A1D000F0BD00001032002008B5437868460370D7
:10A1E0004170134602226946FE2000F0EFF808BDD8
:10A1F00010B51F4A03791168012B09D0022B14D026
:10A20000032B0CD144790123DB04012C29D011E06C
:10A21000437901200005012B02D08143116010BD5C
:10A220000143012080050143F8E7447901235B05E0
:10A23000012C01D09943F1E7194311600D4A012126
:10A2400011708179C47909022143047A09022143FA
:10A25000407A00220902084B014308481960027045
:10A2600010BD1943116006498079087010BD0000C7
:10A270008C22002045220020482200204622002077
:10A2800047220020F0B50546C07800249DB0164650
:10A29000870832E0032C49D22848A300C058102276
:10A2A00090435A1911790907C90F09010843234935
:10A2B000C8500146C006084602D50421084301E003
:10A2C000042188431D49C8500846C058E0218843EE
:10A2D0006107090E08431949C850184851791818E0
:10A2E000417091798170D179C17014480821C058AA
:10A2F00008431249641CC850E4B2BC42CAD36E225F
:10A300006946002005F09CFCAA2110A84176E97856
:10A310008176EA78291D1B30FDF799FF6E22694688
:10A32000002005F0AFFC3246002101E03246042156
:10A330002846FFF751FF1DB0F0BD0000103200208D
:10A3400003480068C00301D5012070470020704712
:10A350008C22002030B50023062918D30278AA2ABF
:10A3600015D14418203CE27F552A10D10122891EC4
:10A3700004E0855CEB18521CDBB292B28A42F8DB37
:10A38000D843A17FC0B2814201D1012030BD00205D
:10A3900030BD000070B50C460546FFF7DBFF002816
:10A3A0000BD009480068C00301D400F0ABFA0022CA
:10A3B0002146284607F0CAFE70BD00220221284629
:10A3C000FFF70AFF70BD00008C220020FFB583B0AC
:10A3D0001446FFF7C5FE394F01253B687A78DE0346
:10A3E000A11D2046002E30DA91422ED9801A801D00
:10A3F00080B26D1C861DEDB2964201D9FE2DF5D3BB
:10A40000012D22D00120000403433B6078780290A4
:10A41000801F87B2200A694608714C712146049852
:10A42000FFF7FCF96946887101A8009003232449CD
:10A43000C020039A00F0E1F9012209212048069B7F
:10A4400000F0FEF900266D1E1FE004988DB200900A
:10A4500023461B490020039A00F0CFF90022294629
:10A46000069B25E0384604997043401800903B460F
:10A4700013498020039A00F0C0F901221048069B7E
:10A48000029900F0DDF9761CF6B2AE42EADBAE428C
:10A4900011D17743E01B84B204982346381800900A
:10A4A00007494020039A00F0A8F90022069BA11D4D
:10A4B000034800F0C5F907B0F0BD00008C22002071
:10A4C00038320020F0B50E460446417801270020BE
:10A4D000C1B0154617297CD010DCC04A0B001268A9
:10A4E00000F09FFD16575957798496A4AAAEB4AED2
:10A4F000BC57C5AE57AE57AEE4AEF057262969D06B
:10A500000BDC18390B0000F08CFD0D9C9C9C9C44CE
:10A51000F8FDEFEEED4444EC4400A82975D02BDCA7
:10A52000322973D01ADC302971D0312931D16B46F0
:10A5300018702079324603066079214600041843DA
:10A54000A3790A3A1B020343E0790831184305F066
:10A5500037FB01222B466946312018E0A02970D034
:10A56000A72916D1694608706846FFF75DFB0122EE
:10A570002B466946A7200AE0FB290AD0FC2908D00F
:10A58000FD2906D11346B61FB2B2211DFD20FFF7EB
:10A590001DFF41B0F0BD92A412CC2B460494039150
:10A5A00002246D462C7003246C7000218B4CD20366
:10A5B00002D5A8706078E87003A82A46445C551854
:10A5C000491CC9B22C710729F8D30B226946012016
:10A5D000DDE736E0FEE06946087001A8FFF744F9C0
:10A5E00069460A782B4601A90320D0E720796179D2
:10A5F000000609040143A07900020843E1790843F9
:10A6000009F082FA09F020F91AE0DBE0B8E0A4E0F2
:10A6100009F040F9020E69460A70020C4A70020AFB
:10A620008A70C87004222B460520B0E72A463146BE
:10A630002046FFF727FEACE72846FFF799FDA8E77D
:10A640002A4600212046FFF7C7FDA2E769460870A9
:10A650004870887003222B46092098E769460870E5
:10A660002B46500300D50F7001220B208FE70B2ED5
:10A670000ED12079FF280BD16079002808D1A0796C
:10A68000002805D1E079002802D1207A002880D066
:10A69000FFF7BEF8002804D03146204603F0B0FA98
:10A6A00077E7514801683943016072E750206946F5
:10A6B0000870FFF76DF86946087001222B461320D9
:10A6C00065E7FFE72079083E214601280FD00328DF
:10A6D0000DD04A79002A0ED0A11D012003F0A8FF59
:10A6E000AEE772E01AE01FE015E00BE005E0E11DC7
:10A6F000F2B20020F2E7F2B2EEE702210120FFF70A
:10A700003BFC9DE700212046FFF766FD31462046D1
:10A71000FFF76EFD3DE72079012801D0002000E021
:10A72000282008F02BFC8BE70090FFF771F8002839
:10A7300004D168460770282008F020FCFFF75CF879
:10A74000012805D1022069460870282008F016FC6F
:10A7500001222B466946202019E7694608702079B6
:10A760000106607900040843A17909020143E079F8
:10A77000084305F049FA01222B466946302006E7D6
:10A780002079627A01066079FF2600040843A179E6
:10A79000013609020143E0790843217A09028C1845
:10A7A000B44206D93246694605F04AFA2B4632468B
:10A7B00005E02246694605F043FAA2B22B466946F7
:10A7C0003220E4E6FEF76EF93AE73146204608F01B
:10A7D00065F835E71046FFF7D1F8DAE68C2200205D
:10A7E0004554313530324200F433002010B502793F
:10A7F000222A01D108F0CCF910BD70B5AA26049D1B
:10A800000E701E0A06434A70B01818188E70CB706E
:10A81000C2B2002404201B041B0C08D109E02E5DE9
:10A820000E54B218401C641CD2B280B2A4B29C4236
:10A83000F5D3D2430A54401C80B255220A5470BD4D
:10A84000FFB581B01F4615460E460024FFF788FC71
:10A85000B1B23A46019802F037FE002809D0032031
:10A8600006F03AFE641CE4B205F01CFA1E2CEFD38D
:10A870001AE01E2C18D20024012D1BD10E4D0021F0
:10A880000020401C80B26428FBD30846491E89B2D0
:10A890000028F5D1641CE4B205F004FA287880079A
:10A8A000C00F04D01E2C05D3002005B0F0BD1E2C17
:10A8B000E5D3F9E70120F8E75032002013460A46B5
:10A8C00010B501462720FFF781FD10BD13460A464B
:10A8D00010B501462220FFF779FD10BD13460A4648
:10A8E00010B501462620FFF771FD10BD10B50448D4
:10A8F0000122016812049143016004F019F810BDAF
:10A900008C220020044801220168120411430160D6
:10A9100014214170704700008C220020024802225E
:10A92000016811430160704750320020044901233F
:10A930005B040A68C0079A43800B02430A607047B1
:10A940008C22002010B5064900200860486088600D
:10A95000C860034940390860486009F073F910BDC8
:10A9600040110140FEB50020C043124D02906869BD
:10A97000019068462E6905F0A5F8074606F0B8F97B
:10A980000446002F08D002AA0199009805F0F4F9B6
:10A99000029806F0F7F906E0029806F0F3F90028AD
:10A9A00001D1002C02D0304603F004F80020687179
:10A9B000FEBD0000D020002010B5074840680028E8
:10A9C00007D08047002803D00022114601F018FB71
:10A9D00010BD05F091FF10BDFC200020F0B589B03E
:10A9E000012005F0F3FD30A217680546121D07CAC5
:10A9F0000026009601960296039604AB07C32E4CE0
:10AA00002088F02804D902212680480308F058F84D
:10AA10000520000310226946079007F0FFFE04227C
:10AA200026496846FDF73EFC002805D0268004A88C
:10AA300007C8009701AB07C3079805F0E5F869461A
:10AA4000C8791022401CC0B2C8712080079809F054
:10AA500023FD10221A496846FDF7F9FB20881949A1
:10AA6000000140181022694609F016FD142116480D
:10AA7000FDF706FC14490320087410211048FDF767
:10AA8000FFFB10212868FDF7FBFBF0216868FDF74C
:10AA9000F7FB03200121400308F012F8012005F024
:10AAA000C7F909B0F0BD00001A2B3C4D01100000A1
:10AAB0000000000000000000F0210020D54C020042
:10AAC000202E0020F03F0000D8210020034B002A58
:10AAD00001D01A785118197058707047522100200F
:10AAE00001490120C8707047942200200149087074
:10AAF000704700005C21002001700912417070470E
:10AB0000064A1179091889B2FF2900D3FF21117172
:10AB10000349CA881018C88070470000003200201E
:10AB200050220020F0B50025022684460B4A01275A
:10AB300011E000231C465B061B0ED6601069C0079F
:10AB4000C00F00D03B439660641CE4B2082CF2D3E3
:10AB5000604643556D1C8D42EBD3F0BD000500509F
:10AB6000FCB58C460DA206CA002501920224009174
:10AB70000C4A6E460FE00023D460475DF15C0F4243
:10AB8000094F01D0976000E0D76094605B1CDBB296
:10AB9000082BF1D36D1C6545EDD3FCBD8040201022
:10ABA0000804020100050050000000807CB50BA2E3
:10ABB00006CA0192009101240021E407094A6D466A
:10ABC0000223D3606E5C064201D0946000E0D46042
:10ABD0009360491CC9B20829F3D37CBD8040201082
:10ABE000080402010005005010B505F0D3FE00284E
:10ABF00005D00E490C484860C8130D4988610D48BE
:10AC0000018CC9B201290ED1818C09070BD1018DAC
:10AC10000906090F042906D1808D0006000F02D114
:10AC200005490120886010BDDFFF07C00005004016
:10AC3000006C0040C00F00F00006004010B500217D
:10AC4000014806F0F1FD10BD0080004010B5012163
:10AC5000014806F0E9FD10BD0090004010B502214A
:10AC6000014806F0E1FD10BD00A0004041780078E9
:10AC70000902014308B27047FEB5044600270020D0
:10AC80000090774E7748844208D8A02C06D3002540
:10AC90002046A03840004019801900907248844234
:10ACA00008D87248844205D3714D201A40004019DB
:10ACB000801900906F48844209D803200003844221
:10ACC00005D36D4D201A40004019801900906B4843
:10ACD000844209D827204002844205D3684D201AB7
:10ACE00040004019801900906648844209D86548A0
:10ACF0003B38844205D3644D201A40004019801926
:10AD000000906048F33084420AD85E48963084420E
:10AD100006D35D4D7835201A400040198019009007
:10AD20005A48844208D8401F844205D3584D201AFF
:10AD30004000401980190090564884420AD855486E
:10AD4000FD38844206D3524DAA35201A40004019DE
:10AD5000801900905048844209D84F484E388442A8
:10AD600005D34E4D201A40004019801900904C48E0
:10AD700084420AD84A484938844206D3474D9E3512
:10AD8000201A40004019801900904648844209D892
:10AD900044487038844205D3434D201A400040197E
:10ADA000801900904148844209D84148844206D322
:10ADB0003D4DE235201A40004019801900903D4871
:10ADC000844209D82B487230844205D33A4D201A68
:10ADD00040004019801900903848844208D838480B
:10ADE000844205D3374D201A400040198019009045
:10ADF00001AA0221009807F081FC6846007901024F
:10AE000068464079081887B22F48844200D12F4FF6
:10AE10002148CE38844200D12D4F2E48844206D39B
:10AE20002C480B30844202D82B48201887B21A488D
:10AE3000D738844206D3801D844203D820485E3030
:10AE4000201A87B21448D038844206D3401C84426A
:10AE500003D81B485230201A87B23846FEBD000086
:10AE600043A50E00510400004226000010200000FF
:10AE700064070000D5330000CA130000A59F00003E
:10AE8000761B00006BFE0000C2BE0000E5FF000064
:10AE9000F6BF000029FA000064E800009CC2000030
:10AEA000CA2E0000B7490000CEC30000AE4D00001E
:10AEB000774C0000E03C000020C700008D470000F8
:10AEC0005640000054D800003F1E0000BCA80000FF
:10AED000F3A60000F02F00009A79000010B50A4890
:10AEE000816800290FD000228260084883690948E0
:10AEF000074C41886354491C89B201235B0241809D
:10AF0000994200D3428010BD00210040002500403E
:10AF1000B82900203A21002010B50C480069002211
:10AF20008006C40F0B480A4B0178002C06D000297C
:10AF300002D11A6001210170012010BD012902D146
:10AF4000042119600270002010BD000000050050AF
:10AF500018070050102100200149002008607047A8
:10AF6000140700500A498A884B889A420DD0094B31
:10AF70009B5C0370521C90B2012252028880904266
:10AF800001D3002088800120704700207047000016
:10AF90003A210020B829002002480078012800D07A
:10AFA000002070473A21002006484068C107C90FB9
:10AFB0000020002904D00449086004484068004784
:10AFC000704700000003014000010140AC20002058
:10AFD00037B514460846064B6A46214600F0EAF8A3
:10AFE00004466946002000F087FC20463EBD000074
:10AFF000F9B801002021020C01D010211046020AEC
:10B0000001D008391046020901D0091F10468208F4
:10B0100001D0891E1046420801D0881E7047081AC8
:10B02000704730B47446641E2578641CAB4200D26D
:10B030001D46635D5B00E31830BC184702E008C89A
:10B04000121F08C1002AFAD170477047002001E0A2
:10B0500001C1121F002AFBD170470000F0B51FB4D8
:10B0600084B007980699020D01430FD10F9801246F
:10B0700049A3012807D004980F9A84600360C26036
:10B08000416009B0F0BD0E98C143F4E7434844491C
:10B090001018484305140F9801280E980BD0281A51
:10B0A000401C00243F4E404900940191029000282A
:10B0B00003DA474216E04042F3E7074612E0F8079A
:10B0C00007D02246334601990098FDF7EBF901912C
:10B0D00000902246334610461946FDF7E3F9044630
:10B0E0000E467F10002FEAD10298019B0028009A9B
:10B0F0000799069802DAFDF7D5F901E0FDF73AFA6B
:10B1000004460E460022294BFDF7CCFA03D8002056
:10B11000C043014607E00022254B20463146FDF79B
:10B120000FF9FDF79FFA102409E0002C0ADB0A2230
:10B130000023FDF7C4F8059B30321A55641E024601
:10B140000A43F2D1641C1122059B121B1C190F9B90
:10B15000012B08D00123084302D10E9882420DDD55
:10B1600000236D1C0EE0084303D10E98151A6D1EC6
:10B170000AE011200E9000200F908CE7824201DA45
:10B1800000236D1E002B86D004980F994560046043
:10B190008260C16075E700003000000001FCFFFF25
:10B1A000104D0000000024400000F03F0000F0437C
:10B1B0000000E03FFFB597B0064600251FE22528B6
:10B1C00079D10024F9492746761C0494327801206D
:10B1D000203A904002460A4202D00443761CF5E72A
:10B1E00030782A280ED002223078014630390929D9
:10B1F00016D804990A235943303940181443761C51
:10B200000490F1E7189802C804911890002904DA14
:10B210000120400304434842049002200443761C6A
:10B2200030782E2814D104200443761C30782A2844
:10B2300009D11898761C80C8189009E00A214F435C
:10B24000303FC719761C3078014630390929F5D9C5
:10B2500030786C2810D006DC4C281AD068280ED024
:10B260006A2817D104E0742813D07A2812D110E08C
:10B270000120400504430CE00121090501E0032100
:10B2800009050C437178814203D10120761C000529
:10B290002418761C3078119066280BD013DC5828BF
:10B2A0007ED009DC00287CD04528F6D04628F4D092
:10B2B00047281AD1AAE118E0632836D0642871D053
:10B2C000652812D1A2E170286DD008DC6728F1D082
:10B2D00069287CD06E280DD06F2806D1BDE0732878
:10B2E0002FD0752872D078285AD01A9A1999904779
:10B2F0006D1C83E16002400F022809D003280DD0A5
:10B300000428189801680DD0001D0D60189075E193
:10B310001898EA1702C80D604A60F7E7189802C843
:10B320000D80F3E7001D0D70F0E718986A4601786C
:10B33000001D117218900020507202A80090012088
:10B3400005E0189802C8189000200091C0436107DA
:10B350000DD5002101E00199491C0191B94212DA91
:10B360008142F8DB009A515C0029F4D10BE0002106
:10B3700001E00199491C01918142FADB019A00998F
:10B38000895C0029F5D1019904981A9B471A214636
:10B390003846199A00F09AFA0199401945180BE0BD
:10B3A00051E030E113E050E0009800990078491C2A
:10B3B00000911A9A199990470198401E0190401CDB
:10B3C000F2D1214638461A9B199A14E139E00A2035
:10B3D0000021009001916002410F022907D0189AC4
:10B3E00001CA1892C217944603290AD00CE0189893
:10B3F000C01DC108C9004A68086808319446189100
:10B4000007E000B2C2179446042902D140B2C11726
:10B410008C4600226146944506DA0A4600214042E5
:10B4200091418C462D2102E0210504D52B216A464D
:10B430001173012103E0E10701D02021F7E7029118
:10B4400051E00A200AE0102008E0102000900021BE
:10B45000042004430191082703E008200021019102
:10B4600000906002410F022907D0189A01CA189271
:10B470000022944603290AD00AE01898C01DC1088A
:10B48000C9004A68086808319446189103E080B200
:10B49000042900D1C0B200210291210723D51199BE
:10B4A000702928D0009A1021019B4A401A4309D1E3
:10B4B0006146014306D030216A46117311995173D8
:10B4C00002210291009A0821019B4A401A430AD1A5
:10B4D0006146014301D1610705D530216A461173E8
:10B4E00001217F1E02911199582909D030A10E9196
:10B4F0000DA90D9112E040216A4611730121E0E788
:10B5000030A1F4E76146019B009AFCF7D8FE0E9B40
:10B510008C469B5C0D9A521E0D921370614601433E
:10B52000F0D10D9805A9081A20300190600703D5C5
:10B5300001200004844300E001270198874201DDD7
:10B54000381A00E00020019900904118029809186B
:10B550000498401A0490E00306D421461A9B199AD5
:10B56000049800F0B3F94519002706E003A81A9AD9
:10B57000C05D199990476D1C7F1C02988742F5DBCE
:10B58000E0030CD521461A9B199A049800F09EF905
:10B59000451904E01A9A3020199990476D1C0099BA
:10B5A000481E00900029F5DC1FE00000092801007A
:10B5B0003031323334353637383961626364656629
:10B5C00000000000303132333435363738394142EB
:10B5D00043444546000000000D980D990078491C31
:10B5E0000D911A9A199990476D1C0199481E019066
:10B5F0000029F1DC4CE100F059F94519761C30784E
:10B60000002800D0DBE528461BB0F0BD600700D461
:10B6100006271898C01DC108C90048680A68083183
:10B62000C30FDB071891190001D09CA108E0210588
:10B6300001D59BA104E0E10701D09AA100E09AA105
:10B64000430011985B08109165280CD006DC452852
:10B6500009D046281DD0472841D141E0662818D09E
:10B6600067283CD13CE00021112F01DB112000E0D4
:10B67000781C0191009008A911A8FFF7EFFC13991D
:10B6800005910021119A15927F1C12980197009143
:10B6900050E00120C00703900120019008A9009705
:10B6A00011A8FFF7DBFC139A149905920022119B55
:10B6B000009212981593059A0192002901D0104624
:10B6C00002E0791C40180190381A01D5019804E075
:10B6D0004042401E0090781C0190C01B029043E045
:10B6E000012F00DA01270021112F01DD112000E0D8
:10B6F00038460191009008A911A8FFF7AFFC1399F3
:10B700000591119A00211298159200910197210735
:10B710000CD40599B94201DB019900E0019101299E
:10B7200004DD159A491E515C302906D0B84201DA71
:10B73000011D05DA0121029115E00199491EEDE78D
:10B74000002805DC0099411800910199091A03E0CD
:10B75000019A411C914200DD01910099401A401C60
:10B7600002900120C0070390200706D40299019897
:10B77000814202DB0020C043029000206946C87766
:10B7800007AF012103980337C907884224D002205C
:10B7900011902B201290039800280CDA404203905D
:10B7A0002D20129007E00A210398FCF7E9FC3031C4
:10B7B0007F1E039039701199481E11900029F2DC08
:10B7C00003980028EFD1791E129808703078202154
:10B7D00008404530BF1E387006A8C01BC01D03902E
:10B7E00010980078002800D0012001994118029893
:10B7F000C0170918039809180498401A401E0490AD
:10B80000E00306D421461A9B199A049800F05EF8CA
:10B81000451910980078002803D01A9A1999904772
:10B820006D1CE00323D521461A9B199A049800F059
:10B830004DF845191BE00098002807DB0099059892
:10B84000884203DD1598405C199901E01999302070
:10B850001A9A904700986D1C401C00900298401E58
:10B86000029004D11A9A2E20199990476D1C0199C3
:10B87000481E01900029DEDC05E038781A9A7F1C0A
:10B88000199990476D1C0399481E03900029F4DC18
:10B8900021461A9B199A0498ADE600002D0000007D
:10B8A0002B0000002000000000000000F8B5044656
:10B8B00000251E461746880404D405E0394620209A
:10B8C000B0476D1C641EF9D52846F8BDFFB5044687
:10B8D000002581B01E46C80301D5302700E020278F
:10B8E000880404D505E038460399B0476D1C641EF2
:10B8F000F9D5284605B0F0BD0A68531C0B601070DE
:10B900007047F7B582B000260546167000781446D9
:10B91000002805D02846039905F0B2FB060008D19F
:10B92000A87800281ED02078039F001D1F2802D968
:10B930000C2005B0F0BD684679DF0028F9D12178E8
:10B940000322481C20707A5421781922481C207048
:10B950007A542078C1196846008808F0E7FA2178FF
:10B9600040182070E8780223002810D02078039A2D
:10B97000411C2170135420780399471C0122277021
:10B980000A542078EA78471C039927700A5468689B
:10B99000002815D00021415620788C460246C01C54
:10B9A00003991F28C4D8501C20708B5422780A2376
:10B9B000501C20708B5420786246431C23700A541C
:10B9C0002889002809D02846009406220221083040
:10B9D000039B08F0AFFC0600ABD1288A002809D0F1
:10B9E00028460094072203211030039B08F0A2FC94
:10B9F00006009ED1288B002809D0284600941522E5
:10BA000014211830039B08F095FC060091D1286A98
:10BA1000002805D02246039902F01EF8060088D1BE
:10BA2000686A002805D02246039905F0F7FA060057
:10BA300084D12C20405D002806D022462846039958
:10BA400007F0CCF90600C7D1304672E710B596B0C2
:10BA5000302101A8FCF714FC022168460171012481
:10BA600084710621C17184821148069024210DA899
:10BA7000FCF706FC10A80470FF20413011900A204A
:10BA8000129010A804730520000214901420159041
:10BA9000002001460090074B0DAA01A800F06CFFA2
:10BAA000002803D00022114600F0AAFA16B010BDFB
:10BAB00004200020011A0200F0B59DB000246E227F
:10BAC0006946204604F0BCF810A8417E10270423E4
:10BAD0002B48E022AA2920D001687F24B94399434A
:10BAE000914301604470112585703121C170416816
:10BAF000B9439943914320314160447185713321A9
:10BB0000C1718168B9439943914340318160447266
:10BB100087723521C1721DB0F0BD10A9897E8D08D4
:10BB2000002D02D8F7E7032C24D2A1006B46CB18D6
:10BB30004033DE7E42583607F60FBA4336013243B1
:10BB40004250D60602D50426324301E00426B24311
:10BB50004250E026B2436607360E324342501E7F03
:10BB60000A1856705E7F96709B7FD37042580823E8
:10BB70001A434250641CE4B2AC42D4D3CBE7000079
:10BB800010320020F8B55B4F002538463C38009550
:10BB90000468057145712E463621801DFCF770FB47
:10BBA000A4E0785D014620395F2931D901282FD0E2
:10BBB0000D284DD00A2857D0C0B281387D286FD8C3
:10BBC000641E6D1C002C6BD0785D01464039BE2987
:10BBD00068D8B61CF6B2641E6D1C102E0FD90098E2
:10BBE0000226401CC0B20090022808D341483C38CD
:10BBF0000179491C12297BD20171002000903D4837
:10BC00003C3801794A00891808188179891C6CE050
:10BC1000761C641E6D1CF6B2102E0FD900980126FA
:10BC2000401CC0B20090022808D332493C39087940
:10BC3000401C12285CD20871002000902D483C382E
:10BC400001794A00891809188879401C88714DE0EB
:10BC500028486D1C3C3801794A00891808188179F8
:10BC6000491C8171641E41E02249641E3C390879F7
:10BC70006D1C42008018421890790026401C90717B
:10BC80000098401CC0B2009002282FD30879401CB5
:10BC900012282DD2002C2BD008710020009080E7B4
:10BCA00026E0FFE73038092822D8ED1C032C1FD3EB
:10BCB000B61CF6B2E41E102E0FD900980226401CC6
:10BCC000C0B20090022808D30A493C390879401CC8
:10BCD00012280DD208710020009006483C380179E6
:10BCE0004A00891808188179091D8171002CD6D164
:10BCF000F8BD0000F42B002000B587B000200290B2
:10BD00000390694604908882087604F06FFC6946C7
:10BD1000087606A901200191009000230C2205A9B4
:10BD200002A805F07AFF6946898A02A801F068FF37
:10BD300000210C2007F0D4F807B000BDF8B50025AD
:10BD40006846057026486A464188406801F0A4FFAD
:10BD50000646234801F098FC07F09CFD204C183C57
:10BD600020612189411A09B2002E28D06570A2787D
:10BD7000002A07D06846017801230022304600F0EF
:10BD80007BF8F8BD052E00D90526A288B21812B29C
:10BD9000A280082901DC0A2A01DA142A0ADB012020
:10BDA00000F0ACF96946A37820790122097800F007
:10BDB00063F812E00829E4DDA580A060F8BD607892
:10BDC000401CC0B260700228F8D3002000F07CFA5A
:10BDD0002069A060A0780028F0D1A580F8BD0000FF
:10BDE000A42100207CB50E460446002069461D466D
:10BDF00008808880002C31DDA1B2304607F04EFC6F
:10BE000069460880A1B22A46304607F0EBFB694636
:10BE10008880A0B2FEF774FE12488168091981601B
:10BE20006946098802685118016069468988426834
:10BE300051184160067481890122491981810A489B
:10BE400092050168114301600848018808480268AA
:10BE5000881A83B20349002007F0C8FA054806F0A3
:10BE6000ABFE7CBDD82100208C2200209C2100202C
:10BE700098210020202E0020F8B51C4615460E46BD
:10BE8000074607F007FD0A490A4A4B6812689342C1
:10BE900001D31A4600E04A60831A4860002C04D09F
:10BEA0002A4631463846FFF79DFF3846F8BD000068
:10BEB000C02100209421002010B50348642140686F
:10BEC000FCF75EF910BD0000D82100200148006891
:10BED00070470000D82100200148806870470000AA
:10BEE000D821002070B50024064D06E06968E00006
:10BEF000085C012105F02EFB641C28788442F5D3F0
:10BF0000002070BDB8200020F8B515460C46064646
:10BF1000052A01D20720F8BD05F0E8FB002803D16F
:10BF200005F0BAFB0028F6D1114900204E600C70D4
:10BF300008618D6048610F4D0DE0E00029688019AF
:10BF4000009181786A46517000780B4A694605F085
:10BF500051FB0028DFD12046641EE4B20028ECD15A
:10BF60000348064A00210C3000F0E0F9F8BD00005B
:10BF7000B820002034460200F1060200E9DF01008B
:10BF80003EB50446042001901848029069462046B8
:10BF900003F0A0F8002807D01549884203D00022FA
:10BFA000114600F02DF83EBD10480838017AC90747
:10BFB00016D0104A0C214088A7DF002810D00E4967
:10BFC00088420DD008280BD0891C884208D011283F
:10BFD00006D00A49884203D00022114600F010F82A
:10BFE000204603F02DF80028D9D13EBD08200020BE
:10BFF00040800000FFFF000002300000013400001C
:10C00000BFF34F8F03490248C860BFF34F8FFEE76D
:10C010000400FA0500ED00E038B50024684604701D
:10C02000FDF7F9FD6846007800280DD0002004F0E7
:10C030008FF800F02BF90121002004F059FD0320B6
:10C0400004F048FD07F050F868460470FDF7DAFD8B
:10C0500068460078400601D504F044F838BD000079
:10C06000014B1B6818470000182800201CB507F07A
:10C0700011FC04466846FDF7E0FD2146684606F0DF
:10C08000EDFF0648417AFF2901D2491C00E0FF215B
:10C0900041720349032004F02BFD1CBD0032002037
:10C0A000DC05000001488078704700008C210020EA
:10C0B00038B50C46A2680C235A43064B09789D58A4
:10C0C000054A126A00920246204608302369A847B2
:10C0D00038BD0000582900208420002010B50649F2
:10C0E00014230A785A435118091DFFF7E1FF042071
:10C0F00007F07AF810BD00008C28002006490028BF
:10C1000006D00120887005494879401C4871704765
:10C1100000208870704700008C2100200032002031
:10C120007CB50024684607F0BBFB6846007906280A
:10C1300001D8032407E0142801D3022403E0C01F20
:10C14000022800D801240A4D2878A0420ED02C7075
:10C1500006204443284620302018E86001784078C3
:10C1600004F062F8E868001DFCF7D0FB7CBD00001D
:10C170005022002010B50B4CE068616980784118AE
:10C18000A069814206D8606100F03AF800F00EF82C
:10C19000FFF7C6FFA0690449401CA061022004F01B
:10C1A000A7FC10BD502200207017000070B507F0EA
:10C1B00071FB114D0024AC806C800646EC802C8114
:10C1C00010210E48FCF75CF831460C48FDF777FC6F
:10C1D0000A48A021A038FCF753F808486C810021D8
:10C1E0000C302C61FEF788FCFFF75CFF002802D0C2
:10C1F00002490120487170BD502200200032002009
:10C20000F8B5204DA8886988884200D96880002642
:10C21000F64300201C4F04460096E100C9198979B5
:10C22000002907D0002803D00094401C00B20AE087
:10C230002646FAE7002806DD022803DB304600998F
:10C2400006F09AFF0020641C24B2142CE5DB0028C1
:10C2500003DD3046009906F08FFF0B49E888A031D6
:10C260008A79824203D2FF2800D3FF208871688830
:10C27000FF2800D3FF20C87203490220A03108F034
:10C28000C7F8F8BD502200206031002010B50D4CD9
:10C290002078002814D1012020702046183001F0A9
:10C2A000F3F92046203001F0EFF903F00DFF0120F3
:10C2B00003F012FF07F0EEFAA060E060002060706B
:10C2C00010BD00008C210020F8B5164C2078002805
:10C2D00026D00025684605702570284603F0FCFE30
:10C2E00020461830418840686A4601F0D5FC064671
:10C2F0002046183001F0C8F968460178A378012279
:10C300003046FFF7B9FD03F0DFFE0020FFF7F6FE31
:10C310006570A58006F0D4FE0349032004F0E8FB15
:10C32000F8BD00008C210020DC05000070B5114C28
:10C33000A568002D06D0002A06D0002804D00023CE
:10C34000247809E0082070BD072070BD24265E43D4
:10C35000AE5D002E04D05B1CA342F7DB042070BD51
:10C36000242401265C432E5564196170A261036088
:10C37000002070BDD0200020FFB59807002481B0B8
:10C380001E4615460F4600280BD1002E09D006F098
:10C39000E1FA22490A9888610F70324600208E60C7
:10C3A00008E0072005B0F0BD24234343D4549B1874
:10C3B0001C75401CB842F7DB24204743BB190320FF
:10C3C00048700F461846CB601946183000221823D3
:10C3D0002E465E43D3005B181C705C709D705860E5
:10C3E0003018521C032AF5DB0020C0433861BC70B2
:10C3F000FC7001240A482405046003211420FDF781
:10C4000043FE08480460084C0198A06003211120F5
:10C41000FDF73AFE606878610020C3E7D020002075
:10C4200080E200E000E100E000150140FEB50446B6
:10C430001D48174682680D46002A0CD001788C42B0
:10C4400001D2052D01D20720FEBD214624235943E8
:10C45000535C012B01D00820FEBD881840780128CC
:10C460001DD0002607F046FEC0000F490190C968A4
:10C470004018694607F068FE002812D001210170BB
:10C480000A49446049680830E2C007490198C96810
:10C4900041180098487007F04BFB0020FEBD2E4667
:10C4A000E0E70420FEBD0000D02000200015014080
:10C4B000F8B5144D0446A868002809D029788C42A4
:10C4C00001D30720F8BD24216143405C012801D03D
:10C4D0000820F8BD07F00EFEC600E868694630186F
:10C4E00007F032FE00280AD0022101704460E8689B
:10C4F00031180098487007F01BFB0020F8BD04209D
:10C50000F8BD0000D0200020F3B5184E002530788B
:10C5100083B00F46002823D0002005B0F0BD0620D0
:10C520000399684344182046FEF7A0FB0190A01C25
:10C53000FEF79CFB0090201DFEF798FB0246019839
:10C54000009940434943401852438018C10F0818CE
:10C55000401006F071FF6A0071686D1C8852EDB2E0
:10C56000BD42DCD3778001203070D6E7AC210020BB
:10C5700070B5104C2078002801D0002070BD618873
:10C5800060680C4D49004018083569884A006968A0
:10C59000FBF75DFE6088698840186080284601F0DE
:10C5A00073F86088402803D901202070FFF7C6FB8C
:10C5B000012070BDA421002070B505460A480C4634
:10C5C000007800280ED02846FFF79EFF002807D1EC
:10C5D000FFF7CEFF002805D021462846FFF794FF3D
:10C5E000FFF7C6FF70BD00008C210020F8B5364C67
:10C5F000A079002801D11E20A071207A002801D145
:10C600003C202072E079002801D1AA20E071A079B5
:10C610000A21FBF7B5FD0300FEF703FD0705070937
:10C62000090B070D0500462506E05A2504E06425A0
:10C6300002E05F2500E055256679002E05D05F20D9
:10C6400068436421FBF79CFD85B21F48C479A62C82
:10C6500001D3152104E020468C381A2802D20E217D
:10C66000204601E060001521FBF78AFD201AC10F6A
:10C670000818C003070C002E0AD05E2C06D96420CF
:10C6800044431248FF212018473108E012200BE0F4
:10C69000832C08D9642044430D488D212018FBF7D2
:10C6A00085FD80B200E00F20874201D9381A87B299
:10C6B0000548054C007A083C20706F4338466421D9
:10C6C000FBF774FD6070F8BDC821002075DBFFFF2B
:10C6D00003CDFFFF70B5C4B0FF21013104A8FBF703
:10C6E000CFFD0020009001900290039003F0CAFE5D
:10C6F0000126F604264C002844D02068000341D5CA
:10C70000052000031022694606F088F86846007884
:10C710001A280BD0684640782B2807D168468078C5
:10C720003C2803D16846C0784D282BD0194DE878B5
:10C73000002803D06946C979814202D26846C0798F
:10C74000E8706846C079E9780122401A0001920336
:10C7500080180A0108A906F061F8E9786846C171F5
:10C7600068460FC804AD0FC56846C07D01220101AF
:10C77000103104A8FEF7A2F82068B0432060012021
:10C7800044B070BD2068B04320600020F8E700008E
:10C790008C2200204422002070B50C460849134624
:10C7A0000A68D5020AD5550208D50125AD05AA4368
:10C7B0000A60014622462520FDF708FE70BD0000F4
:10C7C0008C220020F0B5C1B0FF2101316846FBF793
:10C7D00057FD012003F0FAFE064603F053FE002841
:10C7E0003FD003F047FE00283BD0284C607800285B
:10C7F00037D0A0780127264D7F0510283FD203218E
:10C800000002490340187A13694606F007F8A07839
:10C81000401CA070684600781A280BD16846407802
:10C820002B2807D1684680783C2803D16846C07819
:10C830004D2818D02868B84328600020A070607088
:10C840003068C17900290CD001F0DEF9306801228E
:10C85000C17909011031FEF739F80421052004F0EF
:10C8600047F941B0F0BD6846C0790122010110319D
:10C870006846FEF72BF82868B8432860EDE728687B
:10C88000B84328600020A070EBE70000442200209D
:10C890008C220020044903484860044900200860B5
:10C8A0007047000002200000007500400071004049
:10C8B00010B500F023F80A2004F00EFE0B4C02E045
:10C8C0000A2004F009FE20680028F9D0002020602A
:10C8D00007488068074A012151604B21890148437C
:10C8E0000549FBF74DFC80B210BD0000007100400F
:10C8F0000075004000700040FF0300000449012063
:10C900000860044A00211160034908607047000074
:10C9100000750040007100400070004070B50C468A
:10C9200092B000216A46117007251171002809D0C4
:10C93000C17849070CD502A9FEF7E3FF002808D10A
:10C9400002AE00E00026002C0ED0E078002802D0D5
:10C95000284612B070BD01AA0AA92046FEF7D1FFF1
:10C960000028F6D10AAA00E000226846037901787F
:10C97000304672DFEDE7000070B50D4604991646AB
:10C98000040042D0002E40D0424800224271C360D1
:10C990000161242231464048FBF759FC00F0D0F8F1
:10C9A0003D49343108461038016020318160302122
:10C9B0005438FBF765FC3848217830380170A1788D
:10C9C0008170E178C170617841706269216942616A
:10C9D0000161E268A168C26081600146E369A26901
:10C9E000CB618A61616A002919D00146A4310246EF
:10C9F000B03241628A60636A1B880B80616A436A55
:10CA0000898899800021436A06E00E2070BD666A1D
:10CA1000B668765C5654491C9E888E42F7D8A16A47
:10CA200000291CD01C4AAC3211460C398A60816244
:10CA3000A36A9B888B80A16A836A09881980002178
:10CA4000836A04E0A66AB668765C5654491C9E88E0
:10CA50008E42F7D82C210A5D0F4910390A73216ADA
:10CA6000002909D00B4914310162226A52884A8098
:10CA7000216A026A098811806168002904D0054989
:10CA8000891D416061684160034829463038FFF7DD
:10CA900045FF70BD2C2000200426002010B5028820
:10CAA0001A4C102A17D00021112A17D0192A11D197
:10CAB000807900280ED1607901281BD002281FD070
:10CAC00003281FD0042805D12171E2680846002AF6
:10CAD00000D0904710BD8088208110BD6170808893
:10CAE00021898842F9D1012005E021690029F4D08B
:10CAF000884710BD022000F04BF80028F5D110BD8A
:10CB00000420F8E703202071FAE700002C20002021
:10CB100010B5022801D003280ED1084C2078002837
:10CB20000AD000202070607900F032F8002803D08D
:10CB30002169002900D0884710BD00002C2000206A
:10CB400010B507210148FBF79BFB10BD44200020D6
:10CB500010B50D480078012814D10C4C60780028DD
:10CB600010D16079002802D074DF00280BD1012099
:10CB70006070607900F00CF8002803D0216900296A
:10CB800000D08847002010BD042600202C20002063
:10CB9000F0B5754C87B06071002606A8069605F0C2
:10CBA0007BFB0127082806D000286FD106980028B3
:10CBB00002D02770D4E00696FFF7C2FF6B4D68786D
:10CBC000002802D06079012805D0A87800280AD072
:10CBD0006079022807D1E168002903D0E7700820B6
:10CBE000884700E0E6706079012808D1687800285D
:10CBF00009D05D48193005F05BFA002803D0607950
:10CC0000022802D00CE002206071A878002805D02C
:10CC10005548193005F04CFA002801D10320607105
:10CC2000287B002804D16079032801D10420607199
:10CC3000287E002804D16079042801D1667126710C
:10CC4000E16800290AD06079032801D0042805D1C1
:10CC50002878002802D06078002818D0A670182103
:10CC60006846FBF70DFB6846067001960672039650
:10CC7000607901280FD0022816D03C4E2436374662
:10CC8000543F03281CD004285ED13BE069E0A77024
:10CC900007208847E3E7344818300190684607705A
:10CCA00046820682277152E02F481830019068466C
:10CCB000077029894182A98801820220207146E0FB
:10CCC000A88A69464882288A08822848243007F0C2
:10CCD00096FB002805D02878002802D0607800282C
:10CCE00001D003202FE00220694608720420039639
:10CCF000F8701E4800213038FFF710FE002830D1B0
:10CD0000052020E0A88B69460882288C48821748B5
:10CD1000243007F074FB002805D02878002802D0C2
:10CD20006078002801D004200DE0022069460872D6
:10CD300004200396F8700D4800213038FFF7EEFD0F
:10CD400000280ED1062020716079002803D06846A3
:10CD500073DF002805D1E168002901D020798847D8
:10CD6000002007B0F0BD00002C2000200426002089
:10CD700070B5054601461C220F48FBF768FA0F4CB8
:10CD8000002626702968002907D00822A018FBF782
:10CD90005EFA204608307ADF02E0084808307BDF80
:10CDA000002808D1401E608004486670044A0021B3
:10CDB000001DFFF7BBFA70BDD02600204C200020DC
:10CDC00091400200F8B5224C028800271F4DE689E9
:10CDD000102A16D029464968112A21D0122A2DD0AE
:10CDE000502A1CD1801D0288B24218D1028B022A1F
:10CDF00015D1C27E837E10021843C007C00F0CD12C
:10CE000012E08188698001461048082216311030EE
:10CE1000FBF71DFA6F70002E01D100F065FEF8BD22
:10CE20000020C04368806F700846FFF741FB002870
:10CE3000F5D0A1690029F2D08847F8BD811D0348CB
:10CE400008221030FBF703FAE7E700004C2000202F
:10CE5000D026002010B502484068FFF729FB10BD1E
:10CE60004C20002030B585B00D46040039D0002D8F
:10CE700037D06868002834D00020C0431A4B208087
:10CE80000FCB049301AB07C3184869460880891C7F
:10CE900001A863DF002822D1221D69460120A0DFFE
:10CEA00000281CD168468078A071204601F0FAFA6B
:10CEB000002814D1204601F0B1FA00280FD12946EC
:10CEC000204601F02FFB002809D16868A062A868FD
:10CED000002800D0E062064901200870002005B05B
:10CEE00030BD0E20FBE70000A44502003015000015
:10CEF000642000203EB5002828D0002926D0826A70
:10CF0000002A23D00A88102A21D0112A30D0502A92
:10CF10001FD0512A1AD10A460446891D08780228D2
:10CF200014D14888238A984210D1907A04280DD0D1
:10CF300006280BD0052809D0891C204604F0FAFDEC
:10CF4000002803D0E16A002900D088473EBD8988C7
:10CF500010E0CB8802899342F8D108226B461A7000
:10CF60008A7F1A7220310191826A694690473EBDDC
:10CF70000021C94301803EBD30B585B0002822D0D4
:10CF80000388134CA34220D0124B1B78002B1CD0DB
:10CF9000104B10255B1C1D705970002401259A70E0
:10CFA000032269460A820094019402940394028A3F
:10CFB0000A808D708C8004A90291039300886946D1
:10CFC000A6DF05B030BD0E20FBE70820F9E7000022
:10CFD000FFFF00006420002010B5044602F05EF957
:10CFE0002046FFF7EFFE204600F07EF921460A4872
:10CFF00000F04CF8084821461C3004F0A1F906481E
:10D0000021463830FFF776FF204604F00DFD20461C
:10D01000FFF744FD10BD00005C25002030B5194B22
:10D020000D4604009A6A596A186A85B0DB6A039350
:10D030006B4607C324D0002D22D00020C043A0821D
:10D040002868A0610020A0752146684663DF00289B
:10D0500014D12178684681740B490182A21C04A96D
:10D060000120A0DF002809D12946204606F02AFE2B
:10D07000002803D12946204605F08EFC05B030BDBE
:10D080000E20FBE7644502004342000000281ED04A
:10D0900000291CD00A88102A14D0112A14D0502A32
:10D0A00015D1891D0A88038A9A4202D10B8B022B63
:10D0B0000ED083889A420AD18369002B07D00A8B4D
:10D0C0001A311847898801E00021C94381827047DD
:10D0D000CA7E8B7E11021943C907C90F00D00121F6
:10D0E0008175704707B584B000280DD0828A114B36
:10D0F0009A420BD0827D002A08D06A46128B142AED
:10D1000006D9072007B000BD0E20FBE70820F9E78D
:10D110000022009201920292039282896B461A8049
:10D12000039106A9029101219970808A6946A6DFC0
:10D13000E8E70000FFFF00001CB500234822154966
:10D14000082006F031F9002803D000221146FEF72E
:10D1500057FF002000900190012069460870684642
:10D1600060DF002803D000221146FEF749FF0A487D
:10D1700006F010F9002803D000221146FEF740FF08
:10D18000064806F029F9002803D000221146FEF7D0
:10D1900037FF1CBDAC220020D9CF01003938020076
:10D1A0001CB5044681786A460C4805F089F80028C9
:10D1B00012D160781C21484309491C2340181A46A3
:10D1C000694605F037F9064806494C30807A8000F8
:10D1D0000A582146684690471CBD00007C2000206C
:10D1E000CC270020C8450200F8B50546082069464E
:10D1F000088001236A4620492846AADF02F052FD32
:10D200001EA0FBF715FC204800688047B12044DFD2
:10D21000002803D000221146FEF7F2FE11DF00289D
:10D2200003D000221146FEF7EBFE184C606913DFB5
:10D23000002803D000221146FEF7E2FE284601F046
:10D2400091F80121124A8805106012480268114BBA
:10D25000002080330D468540154204D0C606F60EE8
:10D260000D46B5401D60401C2028F3D302F01AFD86
:10D27000606900F011F8F8BDB0290020636C6F738D
:10D2800065205744540D0A00F420002000100010BF
:10D2900080E200E000E100E010B5FAF73BFF10BDCE
:10D2A0007CB50C460F4900250860002C18D0694653
:10D2B000002000F075F8002813D101A9012000F02A
:10D2C0006FF800280DD1684601790020002901D0AF
:10D2D000022004E069460978002900D00B20207064
:10D2E00028467CBD20200020054902884868102A75
:10D2F00004D0112A01D1401E48607047401CFBE752
:10D3000020200020F8B507460024214802E0641CD4
:10D31000052C19D2A2008258BA42F8D1052C13D29A
:10D320001C4E1D4DB068002925D001290DD00229C1
:10D330000AD16000201840194578002D04D071688A
:10D34000002901D028468847F8BD610062182946A7
:10D35000AD5C511800914978002906D00D4A0F495B
:10D36000FFF764F8002800D13770009881780948E9
:10D370000C300155E1E7FFF79BF8064861006118A2
:10D380000C304919005D8D78A842D6D0F8BD000058
:10D39000284502000C200020C42500200280000047
:10D3A00005280CD2074A1269074B80001B5C01203C
:10D3B0009840904300D00120087000207047002062
:10D3C000FAE70000000500502845020010B5001FD4
:10D3D0000300FDF726FE0D08131314131313131384
:10D3E000191B1D1F13000D481321408876DF08E02C
:10D3F000002803D000221146FEF702FE10BDFFF701
:10D40000A7FB0828F4D110BD0F2004E0F02002E0B3
:10D41000552000E0AA2007F05FF810BD0020002092
:10D4200070B50023052811D2440004190D4D012ABE
:10D4300002D101290DD0002246008019094E801921
:10D4400000290CD0012906D0022906D0072318464E
:10D4500070BD0D30C2B22A55F9E74270F7E782700D
:10D46000F5E70000C42500200020704770B50D4688
:10D470000146124B00205A6089070AD50024012278
:10D4800011462046FFF7CCFF641C052C02D2002871
:10D49000F5D070BD0028FCD16A0805210848FEF7C8
:10D4A00033FD0028F5D1FEF71DFD0028F1D103481A
:10D4B000044A00210830FEF739FF70BD0C2000201F
:10D4C0003C450200E9D40100002A10B50A46014695
:10D4D00003D0044803F00AFF10BD02481C38FFF7D0
:10D4E00001FE10BD7825002010B500780221FFF75D
:10D4F00009FF10BD0548002202704178891CC9B29D
:10D500004170032900D94270704700005221002069
:10D510000022D243830004490428CA5002D30818C9
:10D5200040300271704700003C280020F0B5002513
:10D53000ED43002A02D00023042601E004230A263A
:10D540000B4C04E09F00E7597F1C04D05B1CB342E6
:10D55000F8D32846F0BD26185DB2203635729E00FD
:10D56000A151002AF5D1E11840310871F1E700001E
:10D570003C2800200249091828200856704700005E
:10D580003C28002000B5FCF713FA132801D0002036
:10D5900000BD012000BD000000B5FCF709FA13280A
:10D5A00008D0FCF705FA0C2804D0034800880004D2
:10D5B000000E00D0012000BD5C21002030B50D4BD5
:10D5C0000120597CDA8A552913D10B494C788D7882
:10D5D0006419CD78641903E0521E55182D792C1961
:10D5E000E4B2002AF8D1E1431A7CC9B28A4200D1E0
:10D5F000002030BDB83600209835002000B5014627
:10D60000FCF7D6F9884201D1002000BD012000BD01
:10D6100010B50948417801290DD1817800290AD037
:10D62000491E0906090E817005D1FDF7B5FC0028D9
:10D6300001D006F029FC10BD9422002038B510A0BE
:10D6400000680024009003236A460021782002F03D
:10D6500061FB694608788023401C08700022402145
:10D66000782002F070FB641CE4B2042CEBD30020A1
:10D670000449024648700146FDF728FA38BD00000B
:10D68000B01000001821002010B504464088410069
:10D690006068FAF7F5FD00202070608010BD000082
:10D6A000F8B53B481422017851430C18241DA0689A
:10D6B0000C2148433649E768CC3140180589418937
:10D6C0000091466804F08AFE01463846FAF758FD94
:10D6D000002940D000200099A2884D436188AE19EE
:10D6E0008918CD1900222B4900280A6109D004F0BD
:10D6F00075FE6188884230D0B54202D1A0880028EA
:10D700002BD0A068022828D004F068FE0146A0882B
:10D71000C019FAF735FD1F4C8808E06004F05EFE82
:10D7200001462846FAF72CFD00292CD0B5422AD014
:10D73000ADB2B6B204F052FE01463046FAF720FD13
:10D74000074604F04BFE01462846FAF719FD8742CA
:10D750000DD1701B15E00120BDE704F03FFE01462E
:10D760003846FAF70DFD0B49486103200CE004F040
:10D7700035FE064604F032FE01462846FAF700FD63
:10D78000701A80082061022005F02EFDF8BD00000F
:10D790008C2800208420002010B50748142201782E
:10D7A000514308180079042802D000F0E5F810BDB4
:10D7B000012005F019FD10BD8C280020FFB507469B
:10D7C0001AA081B000680090684600780E46C11922
:10D7D0006846017040781109411868464170154645
:10D7E00080782907090F411868468170002411E0EC
:10D7F00003236A460021782002F08CFA69460878F3
:10D800000022401C087040217820049B02F09BFA03
:10D81000641CE4B2B442EBD30020054902464870D0
:10D8200029463846FDF752F905B0F0BDB0100000AA
:10D8300018210020FEB51E200025009001950295BC
:10D8400001A806F02DF806F025F820490968204CBB
:10D8500088420CD305F0F8FF0420A90062586D1C23
:10D860000243EDB26250032DF7D3FDF7B7F86946D6
:10D87000C87A002201238340087A497A9600A55984
:10D880002F043F0E1F421AD0EF0618D56F0716D58A
:10D890002F023F0E874212D12D0E8D420FD19200E2
:10D8A000A2580425AA43A2511204150E2D0603D432
:10D8B000120E9A4333195A7000F0E4FF03E0521C31
:10D8C000D2B2032ADAD30098FEBD00002C2100203A
:10D8D0001032002010B50B4814220178514308186B
:10D8E000094AC18811620079012806D0032801D0B5
:10D8F000042801D1FFF7D4FE10BD012005F074FC0F
:10D9000010BD00008C2800208420002014225043E9
:10D91000054A002180180171C18001220161C260A5
:10D9200041610181704700008C280020F8B5104C3F
:10D93000069E65780A2D19D027787D190A2D00D307
:10D940000A3D14277D432D1928716A6103C9296195
:10D95000E860EB802E816078401C6070054800789C
:10D96000002801D1FFF7B6FF0020F8BD0420F8BD64
:10D970008C2800208420002010B50D4C1421207824
:10D9800048430119091D0020FEF792FB2078FFF79C
:10D99000BDFF6078401E60702078401CC0B22070CF
:10D9A0000A2801D100202070002005F01DFC10BDC8
:10D9B0008C280020F8B5224801694A1C3DD0242259
:10D9C0005143826889184E681E494C68476900793E
:10D9D000E11B0D022D0AED1C002814D101201A4A6A
:10D9E00000045060184A403A5060184940000860EE
:10D9F000174908601749012008602F20FAF77AFBC1
:10DA00000F4901200871B54200D23546E8190002DD
:10DA10000C49000A403108600A494968001B091B8B
:10DA20000902090A0002C91C000A814204D9012026
:10DA30000649400480390860F8BD04F08BFFF8BD4A
:10DA4000D0200020001501404013014080E200E09A
:10DA500000E100E000100140F8B50D4611780646DF
:10DA6000881D14461F2801D90C20F8BD33880720D3
:10DA7000062BFAD31927FF01BB4202D9164A93425B
:10DA8000F3D17288062AF0D3BA4202D9124FBA42B1
:10DA9000EBD1114FBB4203D0BA4201D09342E4D83C
:10DAA000481C052220706A5420781222411C2170E3
:10DAB0002A5420784119308806F038FA2178401825
:10DAC000C0B220704119708806F030FA21784018F1
:10DAD00020700020F8BD0000FFFF000010B50022FC
