:020000040001F9
:10800000A03B0020158101002F810100318101007A
:108010000000000000000000000000000000000060
:10802000000000000000000000000000338101009B
:1080300000000000000000003581010037810100D0
:1080400039810100398101001DA801003981010039
:1080500039810100000000006592010039810100B2
:108060007DA501008DA501009DA5010039810100BC
:108070003981010039810100398101003981010014
:10808000E1A801006DA301003981010039810100DF
:108090008DA3010039810100E1A3010039810100B4
:1080A000398101003981010000000000000000005A
:1080B00000000000000000000000000000000000C0
:1080C0000348854600F070FA0048004799E5010032
:1080D000A03B0020401E00BF00BF00BF00BF00BF8C
:1080E00000BF00BF00BF00BF00BF00BF00BFF1D195
:1080F00070470000401E00BF00BF00BF00BF00BFB0
:1081000000BF00BF00BF00BF00BF00BF00BFF1D174
:10811000704700000321094802680A4302600848CA
:1081200002680A4302600748804707480047FEE7A5
:10813000FEE7FEE7FEE7FEE7FEE70000240500405D
:108140005405004029A50100C180010030B50B464F
:10815000014600202022012409E00D46D5409D4221
:1081600005D31D469540491B2546954040191546A7
:10817000521E002DF1DC30BD70B5002425460028CC
:1081800001DA01244042002901DA01254942FFF7C2
:10819000DDFFAC4200D04042002C00D0494270BD0F
:1081A000F0B51FB486B000200090019002900698B0
:1081B000069980B204900798090C02040014114338
:1081C00007900027089D099806913E463C4603907B
:1081D0000398A9B20204000C039004982D0C1543D7
:1081E00048430021224600F05DF9C719714110345F
:1081F0000E46402CECDB3846029A00F053F9009A08
:10820000019B801800905941029801911030029012
:108210004028CCDB00980BB0F0BD03460B439B0716
:1082200003D009E008C9121F08C0042AFAD203E0EB
:108230000B78491C0370401C521EF9D27047D2B211
:1082400001E00270401C491EFBD270470022F6E795
:1082500010B513460A4604461946FFF7F0FF2046BC
:1082600010BD421C0178401C0029FBD1801A7047C8
:1082700030B504460020034600E05B1C934203D265
:10828000E05CCD5C401BF8D030BD0000F0B51FB401
:1082900088B00B990998002448400999C00F4900FB
:1082A00049080991C0070B990090490049080B91B2
:1082B00009990898A646084303D00B990A980843E1
:1082C00003D1002001460DB0F0BD09980124400003
:1082D000420D4800410D099824050003000B20437E
:1082E00009900B980003000B20430B9050181A497B
:1082F0004018002201901446104601E0032801DADC
:10830000034600E003239C46C11A0AAE0AE05F0060
:1083100008ADED5B4F00F75B7D430027AA187C4159
:108320005B1E491C6145F2DD410004AB5A52210439
:10833000120C0A43240C401C0828DFDB0198029031
:108340000099704601910090059B049A0799069840
:1083500000F0D6F8B7E700000DFCFFFFF0B50C46C3
:108360005C4085B0E40FE40703944C0000266408E9
:1083700059009446490802460296224321D062469B
:108380000A431ED06200570D4A000E032303550D09
:10839000012402462C492405781B1B0B360B401880
:1083A00023432643614600901C46501AB44103D330
:1083B0000098401C009002E0921800985B41002851
:1083C00003DA0020014605B0F0BD002001210905B7
:1083D0000746864611E064461D46141BB54106D388
:1083E0006546521BB341744607430C43A646CD076E
:1083F00040084908284392185B4105460D43EAD1DD
:108400001046184313D06046194650407140084347
:1084100003D100220123DB0709E06046101AB341B3
:1084200002D20122002302E00122D243531000981D
:1084300074460105381C6141029C039D0019694185
:1084400000F051F8BFE70000FD0300000EB505493C
:108450000291002100910A460B46019100F050F86C
:1084600003B000BD330400004A0009030123090BD7
:108470001B051943094B10B5520D9A4201DA002031
:1084800010BD064B34339A4203DC9A1A00F01AF8F6
:1084900010BD03495118884010BD0000FF030000C3
:1084A000CDFBFFFF10B5202A04DB0146203A9140A6
:1084B000002010BD914020239C1A0346E34019433D
:1084C000904010BD10B5202A04DB0846203AD04069
:1084D000002110BD0B46D340D0402024A21A914069
:1084E0000843194610BD10B5002B08DA0024401CC3
:1084F000614192185B411A4301D14008400010BD10
:10850000F0B51FB482B005460C0003D0084602F057
:10851000FBF902E002F0F8F9203002460090214613
:108520002846FFF7BFFF049B059A04460F461843F1
:108530001143084303D12046394607B0F0BD184621
:10854000104317D0009840210A1A18460599FFF7E2
:10855000B9FF05460E46009A05990498FFF7A2FF59
:10856000084301D0012000E00020C11705430E435D
:108570002C43374300990E986305401A7905E40AA5
:108580000A3000220C43FD0A002802DA00200146CE
:10859000D3E70105101969410C9C0D9D0019694133
:1085A000FFF7A1FFC9E70000064C0125064E05E0D4
:1085B0002046E36807C82B4398471034B442F7D3EA
:1085C000FFF782FD6C1502008C15020070B58C1847
:1085D0000578401C6B075B0F01D10378401C2A1102
:1085E00006D10278401C03E00678401C0E70491C3E
:1085F0005B1EF9D12B0705D40023521E0DD40B703E
:10860000491CFAE70378401CCB1A921C03E01D7842
:108610005B1C0D70491C521EF9D5A142D8D3002015
:1086200070BD70B504460D461646202C51DB7F2CDC
:108630004FDC2B0002F07FF90649040F1D2B3A494D
:1086400021462039C90005229204881832460821A3
:1086500006F04AFF3AE021462039C90003221202FF
:1086600089180522920488183246082106F03CFF3A
:108670002CE02146203909010322520289180522E3
:10868000920488183246102106F02EFF1EE0214683
:108690002039222251430322920289180522920492
:1086A00088183246222106F01FFF0FE021462039AC
:1086B00022225143632292018918052292048818CC
:1086C0003246222106F010FF00E000BF00BF01206B
:1086D00070BD0C213046FFF7B9FD0020F8E700001F
:1086E00010B501F063FF0149088010BDA0210020F2
:1086F0000149002048717047602200207047000047
:1087000010B50446FF283DD021480078012803D148
:108710000021084601F0A8F9002007F073F90F2C9A
:1087200026D0552C10D0AA2C02D0F02C27D117E03F
:1087300003F012FD002805D0AA2007F0C9F804F0C4
:1087400087FD1CE0AA201FE003F006FD002805D0ED
:10875000552007F0BDF804F059FB10E0552013E058
:1087600003F0FAFC002801D0F02006E0F0200BE036
:1087700003F0F2FC002806D00F2007F0A9F8012032
:1087800007F040F910BD0F2000F046F9F7E70000B0
:10879000EC20002070B50546012005F0BDFD00F07D
:1087A00005FE044602F058F8002833D00A2C01D800
:1087B000002210E0192C01D801220CE0322C01D843
:1087C000022208E04B2C01D8032204E05F2C01D2E6
:1087D000042200E005221A48C178914202D0C270FA
:1087E000002101E00189491C01818178914201D277
:1087F000491C00E0491E81700421052A00D18170C6
:108800000289E123DB009A4200D981708078042834
:1088100010D810E00A2C01D800200CE0192C01D847
:10882000012008E0322C01D8022004E04B2C01D8B2
:10883000032000E00420294600F05EFA70BD00002D
:1088400024210020F0B5002523490F283CD00A46FA
:1088500093880227DEB2F21E1C04552820D0AA28D5
:1088600008D0F02812D1130002F065F8052E2E2E44
:108870002E302E00130002F05EF8050606060604F0
:108880000600200E02D1022E01D20F71F0BD761C1F
:10889000F0B20E710A2801D2022815D20F7113E02E
:1088A000130002F048F80506060606040600200E2E
:1088B000ECD1022EE9D3761EF2B209200E71022A03
:1088C00001D30A2A00D308714D71F0BD200EFCD1EE
:1088D00001204871F0BD000040210020F8B523A020
:1088E000002200901DA51FA423A726A6114610460E
:1088F00001F088FD00231A460421284604F098FA66
:1089000000221146022001F07DFD00231A460421B9
:10891000204604F08DFA00222821104601F072FD55
:1089200001F09AFA002804D000231A460821009882
:1089300003E000231A460821384604F079FA0022A1
:108940002821022001F05EFD00231A460421304652
:1089500004F06EFA5020FFF71DFFF8BDCFB5CDB380
:1089600000000000D7B4CCAC00000000D2D1C1ACF4
:10897000CAD6BBFA00000000CEB4C1ACCAD6BBFA5E
:1089800000000000B5E7C1BF0000000030B589B0AD
:108990000021684601701CA51DA40A46084601F086
:1089A00031FD00231A460421284604F041FA002232
:1089B0001146022001F026FD00231A46042120461C
:1089C00004F036FA694601A800F020FD00222821B3
:1089D000104601F017FD6846002301781A4601A8E9
:1089E00004F026FA694601A800F08AFD0022282139
:1089F000022001F007FD6846002301781A4601A80D
:108A000004F016FA09B030BDCFB5CDB300000000B8
:108A1000B0E6B1BE00000000F0B585B0054603F039
:108A20009BFB00283BD1A64C60680106090E02D1D1
:108A30000004000E2DD0FF2D31D02846FFF702FF95
:108A400060680104090E012904D0C0B2072801D0D2
:108A500000F04AFD60680104090E22D0C0B2072868
:108A60001DD100F073FD0E287DD00022802304214B
:108A7000104603F0FFFB012005F04EFC01F0ECF97D
:108A8000002871D00025284600F026FD68570021F7
:108A90000FE100F067F9052060700120207105B03A
:108AA000F0BDC0B2801E030001F045FF08061A2F7A
:108AB000437BA2DBEE05F2E700F048FD06280BD071
:108AC000002280230421104603F0D4FB012005F08E
:108AD00023FC022004F0D6FA05206070062012E084
:108AE00000F034FD07280BD000228023042110461B
:108AF00003F0C0FB012005F00FFC032004F0C2FAD4
:108B00000520607007202070C9E700F01FFD0828CD
:108B10000BD0002280230421104603F0ABFB012080
:108B200005F0FAFB042004F0ADFA0520607008207F
:108B3000E9E764A500F00AFD09282ED00022802371
:108B40000421104603F096FB012005F0E5FB2846C2
:108B5000FFF787FBC6B23146284600F0E9FC002249
:108B60000146104601E0A6E0A1E001F04BFC002325
:108B70001A463146284604F05BF90E25294652A0D4
:108B800000F0D6FC01460022022001F03BFC00234D
:108B90001A4629464CA004F04BF9052060700920C4
:108BA000B1E700F0D3FC0A281ED000228023042164
:108BB000104603F05FFB484800880004000E0128BF
:108BC00012D0012005F0A8FB03A807F0D1FA6846EF
:108BD000827C417C007C6B4607C36846C37CC27BB9
:108BE000817B808904F064F8052060700A208AE7A0
:108BF0003AA53DA700F0AAFC0C282ED00022802325
:108C00000421104603F036FB012005F085FB3846B1
:108C1000FFF727FBC6B23146384600F089FC002238
:108C20000146104601F0EEFB00231A463146384655
:108C300004F0FEF82846FFF714FBC6B2314628467A
:108C400000F076FC01460022022001F0DBFB00234D
:108C50001A463146284604F0EBF8052060700C20D7
:108C600051E700F073FC0B280AD000228023042176
:108C7000104603F0FFFA012005F04EFBFFF786FED9
:108C8000052060700B203EE700F060FC0D280AD044
:108C9000002280230421104603F0ECFA012005F0A5
:108CA0003BFBFFF71BFE052060700D202BE7022128
:108CB000002003F0FDFE052060700E2023E7000079
:108CC00040210020494400004253423632313130C5
:108CD0003031303931340000EC200020B0B44F4B3B
:108CE000B2E9D1AF00000000CAD6BBB7D3EBCAD6F9
:108CF000BBFABEE0C0EB000008B5030001F01BFEAC
:108D00000504061013160F000A4801E00948203830
:108D10000A46022100901023084603F095FE08BD84
:108D200004484038F4E703486038F1E701488038E8
:108D3000EEE70000BC11020010B5094801880904E3
:108D40000A0E0BD0090E491E417000880004000E67
:108D500004D101F081FD002005F0DEFA10BD000015
:108D600040210020F0B587B0002403F0FFF900286F
:108D700002D0002007B0F0BD02F006F904AD0A21D0
:108D8000FFF7E4F92955641CE4B20028F7D1E000AC
:108D900003904C30C0B2802806D28021081AC10F3F
:108DA0000818C005060E00E00026012005F0B4FA00
:108DB000172003F00DFA002801D003F055FF01A899
:108DC00007F0D6F96846007A0A21FFF7BFF9800755
:108DD000544F800F03D030214843C01900E052485F
:108DE00000900C2332460421002003F02DFE0C36A7
:108DF0006846F6B2007A0A21FFF7A8F9302041430D
:108E0000C81900900C2332460421002003F01CFEF8
:108E10000C364648F6B200900C233246042100205E
:108E200003F012FE0C366846F6B2407A0A21FFF7CC
:108E30008DF90007000F30214843C01900900C2322
:108E400032460421002003F0FFFD0C366846F6B2DE
:108E5000407A0A21FFF77AF930204143C81900907F
:108E60000C2332460421002003F0EEFD0C3630487E
:108E7000F6B20090102332460221002003F0E4FDF8
:108E8000002004E0295C30312954401CC0B2A042CB
:108E9000F8D30020620808E0211A491920392B5C18
:108EA000CF7F2F54401CCB77C0B28242F4D83546D6
:108EB00010350022E9B2104601F0A4FA062C06D3C0
:108EC00000231A46062104A803F0B2FF15E0002390
:108ED0001A46214604A803F0ABFF172003F078F9E7
:108EE00000280AD10398022180191030C2B28020D4
:108EF000801AC3B2002003F0BDF93046FFF74AFCE8
:108F0000172003F065F9002805D10221EAB22023D9
:108F1000084603F0AFF907491720087001200871CF
:108F200028E70000DC1102009C0E0200BC130200C6
:108F30001C1002004021002038B5FF242D340C4ABB
:108F400000210C4805F0DCFD002803D0002211466A
:108F500002F06EF82146074805F055FE01210B4648
:108F6000024600910021034805F0B2FD38BD000023
:108F7000D9040200880E020038B50A2404F000FF6C
:108F80000E490F4A488000210E4805F0B9FD00281F
:108F900003D00022114602F04BF82146094805F0A3
:108FA00027FE01210B46024600910021054805F0ED
:108FB0008FFD044805F082FD38BD00005C220020D2
:108FC000E1030200CC140200FFB5064681B0002088
:108FD000009002981D46471B002412E00022104614
:108FE00005E021184900715A8A18401C80B2A84235
:108FF000F7D329461046FFF7A9F86100641C7052A8
:10900000A4B2A742EADCBCB212E00022104605E09E
:10901000211A4900715A8A18401C80B2A842F7D31D
:1090200029461046FFF792F86100641C7052A4B202
:1090300002988442E9D30098401CC0B200900228F4
:10904000CAD305B0F0BDF0B5964600240A22059DAE
:1090500084460A2906D84A08022901D80846F0BDE4
:10906000012A04D950084000401E80B200E00120CF
:10907000401E891A80B2491E17E046009F5F002FEC
:1090800011DBF7180222BA5E002A0CDA6746BF5BD2
:10909000774508D967002A68641CD0536246965BFE
:1090A0006A68A4B2D653401C80B28142E5DC2C81B0
:1090B0002046F0BDF0B5964600240A22059D844660
:1090C0000A2906D84A08022901D80846F0BD012A13
:1090D00004D950084000401E80B200E00120401E2C
:1090E000891A80B2491E17E046009F5F002F11DAEF
:1090F000F7180222BA5E002A0CDB6746BF5B774591
:1091000008D967002A68641CD0536246965B6A6877
:10911000A4B2D653401C80B28142E5DC2C812046AB
:10912000F0BDC178827809021143427809021143E7
:109130000078090208437047F3B581B00C4600235C
:1091400001980002020C0198C1B27F2901D10020D0
:10915000FEBDA12A0BDBA32A09DCA12907DB1046EF
:10916000A1385E2670430E46A13E83190CE0A92A61
:109170000AD1A12908DB901A5E2670430E46A13E53
:1091800080190346FF331B33B02A0EDBF72A0CDCB1
:10919000A1290ADB1046B0385E2670430E46A13E78
:1091A00080190346FF33793352E0A12A13DA812A6A
:1091B00011DB40290FDB7F2901DD481E81B21046FB
:1091C0008138BE2670430E46403E8019FF3079300C
:1091D000204E83193CE0AA2A11DBA1290FDA7F294E
:1091E00001DD481E81B21046AA38602670430E4643
:1091F000403E8019FF307930174E831928E0812ACC
:1092000010D139290EDB2002050CE0B2009028466F
:10921000EE380A267043114E86190098301803461E
:10922000393B15E0822A13D12002050CE0B20090F0
:10923000084630380A4E7043084EA1368619284633
:1092400081380A2778433618009830180346303B97
:1092500018467DE7701A0000303200008853000085
:10926000EC040000F8B50025FF24013401262F4648
:109270000095204605F088FD002808D03448406855
:10928000304204D033480021201835430160241DAA
:1092900076007F1CA4B2042FEBD3FF207D3005F0B5
:1092A00073FD002807D02C480021016040070543CA
:1092B0002A48006900902A4E280713D0012700246D
:1092C000384628420AD02748A200111808690969BF
:1092D000C004C00E8903B258890F90477F00641CF8
:1092E000042CEDD3002D30DA00241D4E0821301956
:1092F00040304156491C25D0077ABD06AD0E2846A0
:1093000002F022FF80003658002E1BD0BF09012139
:10931000A940154AA80080180068009A8003800FB1
:10932000114202D0022802D00CE003280AD1032FF8
:1093300005D102280AD00221284605F015FD39463C
:109340002846B047641C062CCFD3F8BD0321F3E7B1
:1093500000630040006000407C6100400005005058
:109360007C260020006500400007005070477047D1
:109370000A490878002810D10A48094A82610A4B34
:109380000C221A6001221206826052018260D21100
:10939000826052108260012008707047E420002033
:1093A00000006021000500505C07005010B500244B
:1093B00002F0BAF90A21FEF7C9FEFF214B318842BB
:1093C0000DD3FF21A531884201D9642407E0FF387D
:1093D0004B38642148435A21FEF7B8FEC4B22046F8
:1093E00010BD000001484079704700006022002055
:1093F00010B50022134604E0845CE318521CDBB273
:1094000092B28A42F8D3D843C0B210BDF8B50A4D23
:1094100006460F4600246868FEF723FF387004E014
:109420006868005D3055641CE4B26868FEF719FF97
:10943000A042F5D8F8BD000014210020F3B5054680
:1094400081B0FD20234C28700027A068FEF709FF9B
:109450006870022606E0A068C05DA855761C7F1CD7
:10946000F6B2FFB2A068FEF7FCFEB842F3D8FC20CB
:10947000A855761CF6B26068FEF7F3FEA855761C78
:10948000F6B2002706E06068C05DA855761C7F1C18
:10949000F6B2FFB26068FEF7E4FEB842F3D8FE20F1
:1094A000A855761CF6B22068FEF7DBFEA855761CA0
:1094B000F7B2002606E02068805DE8557F1C761C28
:1094C000FFB2F6B22068FEF7CCFEB042F3D80298A5
:1094D0000770FEBD1421002002480A2203210088E3
:1094E00084DF70470020002010B50E2002F070FECF
:1094F000002802D10148008885DF10BD002000202F
:10950000F8B50A4D06460F460024A868FEF7A9FEE6
:10951000387004E0A868005D3055641CE4B2A868A7
:10952000FEF79FFEA042F5D8F8BD000014210020F0
:1095300010B503F039FA802806D88021081AC10F27
:109540000818C005000E10BD002010BD01480078AD
:10955000704700004021002000BF00BF00BF00BFD7
:10956000704700BF00BF00BF00BF00BF00BF00BF0B
:1095700000BF00BF70470000F8B50026114C012560
:109580000746ED033806104801D5A06000E0E06012
:109590007806070E00BF00BF00BF00BF00BFA56078
:1095A000FFF7DFFFE560761CF6B2082EEAD3FFF77F
:1095B000D8FF0548A060A560FFF7D3FFE560FFF77F
:1095C000CBFFF8BD000500500000010070B501257B
:1095D000074C2D04A560FFF7C4FF6E10A660FFF7CF
:1095E000C0FFE560FFF7BDFFE660FFF7BAFF70BDA3
:1095F0000005005070B50125064C2D04E560FFF70D
:10960000B0FF6810A060FFF7ACFFA560FFF7A9FFEF
:1096100070BD00000005005010B5022004F0F0FD00
:1096200001F0B0FD01F068FD0121022004F0F0FD21
:1096300010BD01700A1242700A148270090EC170C6
:1096400070470000F0B587B000241C221AA16846BC
:10965000FEF7E3FD192581201E4E4003B061012075
:109660000005F060C711F760052005F0F5F8B76058
:109670006E466D1E07E0325D01230021782004F064
:1096800020F8641CE4B2AC42F5DB134C0025657095
:10969000257002F0BDFD0123AF220021782004F0E7
:1096A00010F825716571FFF75DFB052060700120E2
:1096B000207107B0F0BD0000AE001000B0818FA196
:1096C000A6A81FC8D300D580D91FDA00DB408D14AF
:1096D000AF000000000500504021002008B5002127
:1096E0006A46117004280DD000280BD0012810D034
:1096F00002281AD003282DD02AE068460078C10637
:10970000C90E1EE011462E2000F061F8002820D07E
:10971000F3E711462E2000F05AF8002819D06846C9
:109720000078C006C00E40210AE011462E2000F04D
:109730004EF800280DD068460078C006C00E802183
:109740000143684601702E2000F085F9002800D002
:10975000012008BD11462E2000F039F80028F8D06D
:1097600068460078C006C00EC021E9E710B5014682
:109770002F2000F02CF8002800D0012010BD10B5DB
:109780000146312000F023F8002800D0012010BD50
:1097900010B501460622E82004F036FE10BD38B5AB
:1097A0000446002069460870212000F010F80028C7
:1097B0000CD0694608784008400020430870C1B2C8
:1097C000212000F048F9002800D0012038BD10B554
:1097D000012204F019FE012010BD38B50446002016
:1097E000694608702320FFF7F2FF00280ED0684674
:1097F0000178CF20014020010843C1B268460170C2
:10980000232000F028F9002800D0012038BD10B531
:109810007F2801D9002010BD0146332000F01BF93C
:109820000028F8D0012010BD38B50D4604460020B0
:10983000694608702220FFF7CAFF002810D0002DCB
:109840000FD0684600780146214208D1204369467E
:109850000870C1B2222000F0FEF8002800D00120DC
:1098600038BD69460878A043F2E710B57F2801D9D2
:10987000002010BD0146322000F0EDF80028F8D09D
:10988000012010BD38B504460025684605706946BC
:109890002520FFF79CFF002809D025436846057066
:1098A000E9B2252000F0D7F8002800D0012038BD0B
:1098B00038B504460020694608703020FFF787FF5E
:1098C00000280DD0694608784021084020436946A9
:1098D0000870C1B2302000F0BEF8002800D001208E
:1098E00038BD38B504460020694608703020FFF7BF
:1098F0006EFF00280ED068460078A1018006800E19
:109900000143C9B268460170302000F0A4F8002875
:1099100000D0012038BD00001CB504460020694677
:10992000087008712020FFF752FF002819D001A904
:109930002320FFF74CFF002813D0684601781D480C
:109940000A0905D10278120912010A4369460A7010
:10995000002C07D0F7210823012C13D0022C09D0AA
:1099600000201CBD6946097801700807000F694690
:1099700008700FE0684602780A40027002790A40D7
:109980001A4306E0684602780A401A4302700279D8
:109990000A40027168460178202000F05CF8002837
:1099A000DFD068460179232000F055F80028D8D090
:1099B00001201CBD2322002038B504460020694642
:1099C00008702020FFF703FF00280ED068460078BB
:1099D00021010007000F0143C9B268460170202031
:1099E00000F039F8002800D0012038BD38B5044611
:1099F0000020694608702E20FFF7E9FE00280ED0EF
:109A000068460178DF20014060010843C1B2684622
:109A100001702E2000F01FF8002800D0012038BD72
:109A200038B504460020694608701F2C00D938BD9F
:109A30002E20FFF7CCFE0028F9D0694608784009AF
:109A4000400120430870C1B22E2000F004F8002825
:109A5000EDD0012038BD13B5400601A90122400E0A
:109A600003F0D2FC01201CBD70B50025124C00286B
:109A700005D00126002910D0012917D111E002F0EC
:109A800087FF257020880004000E012802D1657030
:109A900003F0EAF802F07CFF70BD0620E070A570CC
:109AA00002E00320E070A67000F04EF82670034834
:109AB00005F004F870BD0000EC200020880E0200C4
:109AC00005484021816181600449002048708880F8
:109AD000C88008707047000000050050EC2000208E
:109AE00010B517480168CAB2012A0CD1090E22D05C
:109AF00041680A04120C07D0491E81800804000C3A
:109B000001D102F045FF10BD0D4A0B0C1268120E78
:109B1000521E002B05D0090C491EC1804168090C5A
:109B2000F1D1C2700068000EEDD000F00DF80548CC
:109B300004F0C4FF10BD00210846FFF795FF10BDDB
:109B4000EC200020880E0200064801680902090E78
:109B500005D0012902D1FA218180C1807047FF21FF
:109B60009131F9E7EC2000208307FF22DB0E9A40B9
:109B70008907090E994000280BDA0007000F083802
:109B8000830808489B001B18D86990430843D86194
:109B90007047830804489B001B18186890430843CB
:109BA0001860704700ED00E000E400E010B51848D0
:109BB00006F07CFD00280BD1164C0120607102F0EC
:109BC000E7FA13490028487805D0012105F050FE36
:109BD00002F0D8FC10BD5C280BD0DD2814D03C2846
:109BE00012D07C2810D06C280ED0002105F040FE49
:109BF0000AE04879002807D1087906490831097830
:109C0000814201D10020607004F0C8F8E0E7000054
:109C10006432002060220020F0B500231A4600299B
:109C20003ED045781F499400A4460C592604360EB0
:109C3000AE4211D126028778360EBE420CD1C778CB
:109C4000260EBE4208D19000085C000728D40820E8
:109C5000044360460C5023E0521CD2B2032AE2D3E4
:109C6000002294000C5D240701D55B1CDBB2521C62
:109C7000D2B2032AF5D3032B01D30120F0BD9C00FF
:109C80000A5908252A43F0251B07AA431B0E1A432D
:109C90000A51427861184A7082788A70C078C87018
:109CA0000020F0BD6030002010B50A46014600F0EB
:109CB000D3F8002802D00D2000F008F910BD0000F4
:109CC00070B50D4604460B290ED12079FF280BD123
:109CD0006079002808D1A079002805D1E079002812
:109CE00002D1207A002807D0FFF77CFB002804D09F
:109CF0002946204602F052FC70BD0348FF2241680D
:109D000001321143416070BDA03000207FB50021B9
:109D100000910191029103226B460391114D084677
:109D20001A708200AA58130711D513061C0F0823B6
:109D30001C438E006B46F3185C701404240E9C7058
:109D40001402240E120EDC70491C1A71C9B2401C98
:109D5000C0B20328E5D38A00521C6946072000F0F0
:109D6000B5F87FBD6030002008B507486946006837
:109D7000020E0A70020C4A70020A8A70C87004222D
:109D80000C2000F0A3F808BD3C32002008B5427852
:109D900068460270417002226946FE2000F096F883
:109DA00008BD0000F8B50546E97800208E080AE0F5
:109DB0008100491909794907490F032901D3042171
:109DC00044E0401CC0B2B042F2D300243BE0A0000B
:109DD000401902793021114004D010291ED02029C9
:109DE0002FD128E053075B0F9F001A49BC46C95981
:109DF00012070827D20FB943D2001143F022914332
:109E00001A011143134A6746D151124942796144FC
:109E10004A7082798A70C079C87012E05007400F8A
:109E2000032806D20B4980000B58082293430B509D
:109E300007E001210AE0001D0421FFF7EDFE0028E4
:109E4000BDD1641CE4B2B442C1D300212846FFF75F
:109E50009DFFF8BD603000200348C068C00301D5F5
:109E600001207047002070473C32002070B5044646
:109E700000200B46062921D32278AA2A1ED1651874
:109E8000203DEA7F552A19D10122991E04E0A65CE3
:109E90003018521CC0B292B28A42F8DBC043A97F8C
:109EA000C0B281420AD10848C068C00301D400F0A2
:109EB00045FA1946204605F061FA70BD0221204698
:109EC000FFF764FF70BD00003C320020F7B5504939
:109ED00014461046CF684A7B00260125FB03A11DCE
:109EE00084B0002B33DA914231D9801A801D80B2C0
:109EF0006D1C831DEDB2934201D9FE2DF5D3012DCA
:109F000025D00121090442480F43C760407B0390DC
:109F1000801F80B20290200A694608714C71214668
:109F20000598FFF765FA6946887101A80090032338
:109F30003849C020049A00F0B7F90921354800F0EB
:109F4000E4F900281ED01E2002F0A0FCF5E70598D9
:109F50008DB2009023462F490020049A00F0A4F906
:109F600029462C4800F0D1F92A48002118300180F8
:109F700041800499017101224168520211434160FC
:109F800007B0F0BD0921234800F0BFF900276D1E7E
:109F900020E0029805997843401800901D498020E0
:109FA000029B049A00F080F9761CF6B2022E03D9C7
:109FB000462002F06BFC00261648039900F0A5F934
:109FC000002803D01E2002F061FCF5E7761C7F1C00
:109FD000F6B2FFB2AF42DCDBAF42D1D10298049AB5
:109FE0007843211A8CB205992346401800900949FC
:109FF000402000F059F9761CF0B2022802D9462020
:10A0000002F044FCA11D034800F07FF9B8E700000E
:10A010003C32002088300020F0B5044647789F4845
:10A020000A4601250021C6689BB0162F48D00EDCD9
:10A030003B0000F080FC164547636E7986969BF5E1
:10A040009EA6AEB8ABBBBDC9CBD7D9F5DF45212F96
:10A0500076D009DC173F3B0000F06DFC0AE2E2E23B
:10A06000E2E232E7EBE2F532A02FF1D01CDC232F45
:10A0700074D0242F73D0302F72D0312F20D1684666
:10A08000017020790A3A0106607900040843A17939
:10A0900009020143E07908432146083103F026FA1A
:10A0A00001226946312009E0FB2F6ED0FC2F6DD0D4
:10A0B000FD2F05D1921F92B2211DFD20FFF706FF53
:10A0C0001BB0F0BD76A30CCB0493039202246B4625
:10A0D0001C70032400225C70F30303D56B46997057
:10A0E000407BD87003A86946835C8C18521CD2B29E
:10A0F0002371072AF8D30B220120DFE768A103C9E7
:10A10000009001916846FEF7ACF882B269460220E1
:10A11000D4E768460170694601A8FFF78FF96846E1
:10A12000027801A90320C9E72079617900060904B2
:10A130000143A07900020843E179084306F04AF997
:10A140006EE006F00FF8020E69460A70020C4A70C3
:10A15000020A8A70C87004220520AFE793E097E0F6
:10A160007EE011462046FFF71DFEA9E7FFF7CEFD72
:10A17000A6E7684601704170817003226946092094
:10A180009CE701212279890456E071E076E0C660FF
:10A1900046E068460170700301D5684605700122EB
:10A1A00069460B208AE7FFF7DFFD89E7016037E0AA
:10A1B00040686946020E0A70020C4A70020A8A70F0
:10A1C000C87004220F2079E7416029E08068694661
:10A1D000020E0A70020C4A70020A8A70C8700422C9
:10A1E00011206BE781601BE0502069460870012256
:10A1F000132063E72379104608382146012B06D047
:10A20000032B04D04A79002A05D0A11D05E0C2B273
:10A21000E11D002002E0C2B2E11D012002F0F8FBC6
:10A2200000212046FFF7B2FD4AE7002211461D201B
:10A2300044E722790121C904012A02D08E43A6E70E
:10A2400001E00E43A3E70091FFF7CCF8002803D10B
:10A250006846057005F054FC0122694620202DE770
:10A260006846017003F01EF901226946302025E797
:10A270006846017001226946FB201FE7114620460F
:10A28000FFF71EFD1CE71146204605F041FA17E7CF
:10A290001146204605F0FCF912E700003C32002090
:10A2A000455431353032410070B5AA26049D0E70F8
:10A2B0001E0A06434A70B01818188E70CB70C2B2CE
:10A2C000002404201B041B0C08D109E02E5D0E5451
:10A2D000B218401C641CD2B280B2A4B29C42F5D326
:10A2E000D2430A54401C80B255220A5470BD0A461B
:10A2F00010B501462320FFF7E9FD10BD0A4610B551
:10A300000146FE20FFF7E2FD10BD10B589B201F055
:10A31000CBFE10BD0A4610B501462220FFF7D6FD40
:10A3200010BD000010B504480122C1681204914319
:10A33000C16002F0B1FC10BD3C3200200448012293
:10A34000C16812041143C1601421417370470000B9
:10A350003C320020044901235B04CA68C0079A43C9
:10A36000800B0243CA6070473C32002010B506499A
:10A370000020086048608860C86003494039086070
:10A38000486006F0C1F810BD40110140FEB5002044
:10A39000C043124D02906869019068462E6902F030
:10A3A00067FF074604F036F80446002F08D002AADB
:10A3B0000199009803F09EF9029804F075F806E000
:10A3C000029804F071F8002801D1002C02D0304628
:10A3D00001F0E8FF00206871FEBD0000AC20002005
:10A3E00010B507484068002807D08047002803D0F0
:10A3F0000022114600F01CFE10BD03F03BFE10BD14
:10A40000D0200020034B002A01D01A78511819706F
:10A41000587070472921002001490120C8707047F9
:10A420006022002001490870704700004021002090
:10A430000170091241707047064A1179091889B2F2
:10A44000FF2900D3FF2111710349CA881018C88061
:10A45000704700005030002024220020F0B5012673
:10A460000025360684460C4A012711E000231C46CD
:10A470005B061B0ED66010690002C00F00D03B4384
:10A480009660641CE4B2082CF2D3604643556D1C00
:10A490008D42EBD3F0BD000000050050FCB58C46AA
:10A4A0000EA206CA002501240192240600910D4A3D
:10A4B0006E460FE00023D460475DF15C0F420A4F07
:10A4C00001D0976000E0D76094605B1CDBB2082B82
:10A4D000F1D36D1C6545EDD3FCBD0000804020101C
:10A4E0000804020100050050000040007CB50BA2EA
:10A4F00006CA0192009101240021A405094A6D4673
:10A50000A300D3606E5C064201D0946000E0D4608A
:10A510009360491CC9B20829F3D37CBD8040201048
:10A52000080402010005005010B503F0F1FD0028F9
:10A5300005D00E490C484860C8130D4988610D4884
:10A54000018CC9B201290ED1818C09070BD1018D73
:10A550000906090F042906D1808D0006000F02D1DB
:10A5600005490120886010BDDFFF07C000050040DD
:10A57000006C0040C00F00F00006004010B5002144
:10A58000014804F011FB10BD0080004010B501210E
:10A59000014804F009FB10BD0090004010B50221F5
:10A5A000014804F001FB10BD00A000404178007894
:10A5B0000902014308B27047FEB504460027002097
:10A5C0000090774E7748844208D8A02C06D3002507
:10A5D0002046A038400040198019009072488442FB
:10A5E00008D87248844205D3714D201A40004019A2
:10A5F000801900906F48844209D8032000038442E8
:10A6000005D36D4D201A40004019801900906B4809
:10A61000844209D827204002844205D3684D201A7D
:10A6200040004019801900906648844209D8654866
:10A630003B38844205D3644D201A400040198019EC
:10A6400000906048F33084420AD85E4896308442D5
:10A6500006D35D4D7835201A4000401980190090CE
:10A660005A48844208D8401F844205D3584D201AC6
:10A670004000401980190090564884420AD8554835
:10A68000FD38844206D3524DAA35201A40004019A5
:10A69000801900905048844209D84F484E3884426F
:10A6A00005D34E4D201A40004019801900904C48A7
:10A6B00084420AD84A484938844206D3474D9E35D9
:10A6C000201A40004019801900904648844209D859
:10A6D00044487038844205D3434D201A4000401945
:10A6E000801900904148844209D84148844206D3E9
:10A6F0003D4DE235201A40004019801900903D4838
:10A70000844209D82B487230844205D33A4D201A2E
:10A7100040004019801900903848844208D83848D1
:10A72000844205D3374D201A40004019801900900B
:10A7300001AA0221009804F0D7FE684600790102C0
:10A7400068464079081887B22F48844200D12F4FBD
:10A750002148CE38844200D12D4F2E48844206D362
:10A760002C480B30844202D82B48201887B21A4854
:10A77000D738844206D3801D844203D820485E30F7
:10A78000201A87B21448D038844206D3401C844231
:10A7900003D81B485230201A87B23846FEBD00004D
:10A7A00043A51E00510400004226000010200000B6
:10A7B00064070000D5330000CA130000A59F000005
:10A7C000761B00006BFE0000C2BE0000E5FF00002B
:10A7D000F6BF000029FA000064E800009CC20000F7
:10A7E000CA2E0000B7490000CEC30000AE4D0000E5
:10A7F000774C0000E03C000020C700008D470000BF
:10A800005640000054D800003F1E0000BCA80000C5
:10A81000F3A60000F02F00009A79000010B50A4856
:10A82000816800290FD000228260084883690948A6
:10A83000074C41886354491C89B201235B02418063
:10A84000994200D3428010BD002100400025004005
:10A85000BC2700200E21002010B50021132004F099
:10A8600073FA012003F0EDFF084800690003C00FF0
:10A8700005D00121132004F067FA012010BD012149
:10A88000132004F061FA002010BD00000005005004
:10A8900010B50021132004F057FA10BD0A498A8828
:10A8A0004B889A420DD0094B9B5C0370521C90B2AE
:10A8B000012252028880904201D30020888001202A
:10A8C00070470020704700000E210020BC270020A8
:10A8D00002480078012800D0002070470E21002097
:10A8E00006484068C107C90F0020002904D0044968
:10A8F00008600448406800477047000000030140BA
:10A9000000010140882000202021020C01D01021EC
:10A910001046020A01D008391046020901D0091F69
:10A920001046820801D0891E1046420801D0881EB8
:10A930007047081A704730B47446641E2578641C4A
:10A94000AB4200D21D46635D5B00E31830BC184784
:10A9500002E008C8121F08C1002AFAD170477047E8
:10A96000002001E001C1121F002AFBD17047F7B59A
:10A9700082B000260546167000781446002805D0DF
:10A980002846039903F028FF060008D1A87800287C
:10A990001ED02078039F001D1F2802D90C2005B06F
:10A9A000F0BD684679DF0028F9D121780322481CE0
:10A9B00020707A5421781922481C20707A5420780B
:10A9C000C1196846008805F00DFF217840182070F5
:10A9D000E8780223002810D02078039A411C2170C7
:10A9E000135420780399471C012227700A542078B9
:10A9F000EA78471C039927700A546868002815D024
:10AA00000021415620788C460246C01C03991F281D
:10AA1000C4D8501C20708B5422780A23501C2070FC
:10AA20008B5420786246431C23700A5428890028DE
:10AA300009D028460094062202210830039B06F024
:10AA4000E4F80600ABD1288A002809D028460094F3
:10AA5000072203211030039B06F0D7F806009ED191
:10AA6000288B002809D0284600941522142118307C
:10AA7000039B06F0CAF8060091D1286A002805D089
:10AA80002246039901F0E0FC060088D1686A00289C
:10AA900005D02246039903F06DFE060084D12C20D8
:10AAA000405D002806D022462846039904F06CFF3A
:10AAB0000600C7D1304672E710B5012202210020FE
:10AAC00001F09EFA002801D0072809D107220221AF
:10AAD000012001F095FA002801D0072800D10020BC
:10AAE00010BD000070B5A2B0302101A8FDF7AEFB8B
:10AAF000022168460171002585710526C671302145
:10AB000016A8FDF7A3FB012410A8048510481B908C
:10AB100024210DA8FDF79AFB10A80470B001119034
:10AB2000129610A804730F2080011490082015902D
:10AB3000084B0DAA16A9009501A800F067FE002891
:10AB400003D00022114600F073FA22B070BD00005D
:10AB500002200020A9ED010030B51048082401684A
:10AB6000F022A143914301607F234370112585703A
:10AB70003121C1704168A14391431031416043715B
:10AB800085713321C1718168A14391432031816076
:10AB90004372102181723521C17230BD60300020B6
:10ABA000F8B55B4F002538463C38009504680571C0
:10ABB00045712E463621801DFDF748FBA4E0785DE7
:10ABC000014620395F2931D901282FD00D284DD0D9
:10ABD0000A2857D0C0B281387D286FD8641E6D1CFA
:10ABE000002C6BD0785D01464039BE2968D8B61C70
:10ABF000F6B2641E6D1C102E0FD900980226401C60
:10AC0000C0B20090022808D341483C380179491C61
:10AC100012297BD20171002000903D483C38017917
:10AC20004A00891808188179891C6CE0761C641E1A
:10AC30006D1CF6B2102E0FD900980126401CC0B230
:10AC40000090022808D332493C390879401C122868
:10AC50005CD20871002000902D483C3801794A00F0
:10AC6000891809188879401C88714DE028486D1CA6
:10AC70003C3801794A00891808188179491C81718A
:10AC8000641E41E02249641E3C3908796D1C420073
:10AC90008018421890790026401C90710098401C42
:10ACA000C0B2009002282FD30879401C12282DD260
:10ACB000002C2BD008710020009080E726E0FFE7F1
:10ACC0003038092822D8ED1C032C1FD3B61CF6B24D
:10ACD000E41E102E0FD900980226401CC0B200902E
:10ACE000022808D30A493C390879401C12280DD2A1
:10ACF00008710020009006483C3801794A00891804
:10AD000008188179091D8171002CD6D1F8BD000089
:10AD1000F829002010B588B00020049005906946FD
:10AD200006908881FFF798F80124002803D00320BB
:10AD30006946087201E068460472FFF78DFD00283D
:10AD400005D06946087AF02108436946087202A8CE
:10AD5000019000230C2203A9009404A804F096F8A3
:10AD60006846818904A801F019FC00210C2004F038
:10AD700079FE08B010BD0000F8B5002568460570E2
:10AD800026486A464188406801F00CFC0646234884
:10AD900001F064FA05F0E6F9204C183C20612189A5
:10ADA000411A09B2002E28D06570A278002A07D077
:10ADB0006846017801230022304600F085F824E03F
:10ADC000052E00D90526A288B21812B2A280082941
:10ADD00001DC0A2A01DA142A0BDB012000F07AF9DF
:10ADE0006946A37820790122097800F06DF8A580E2
:10ADF0000BE0082911DDA5800EE0A178002901D122
:10AE0000A580A0606078401C60706078022804D340
:10AE1000002000F045FA2069A060F8BD88210020DC
:10AE2000FFB583B00446002069461E46088088802E
:10AE3000214F224D002C2ADDA1B2049805F0F2F832
:10AE400069460880A1B23246049805F08FF8694639
:10AE50008880A0B2FFF7F0FA19488168091981606B
:10AE60006946098802685118016069468988426804
:10AE70005118416004990174818989198181388848
:10AE80002A680F49801A83B2002005F027F802F0E3
:10AE9000E3FE002804D00B4804F068FD07B0F0BDC5
:10AEA00005980028F7D138682968401A4B21C90055
:10AEB0008842F0D2F2E70000802100207C210020AF
:10AEC000B8210020242C0020F8B51C4615460E465B
:10AED000074605F047F90A490A4A4B681268934247
:10AEE00001D31A4600E04A60831A4860002C04D05F
:10AEF0002A4631463846FFF793FF3846F8BD000032
:10AF0000A421002078210020F8B5154D0746A86837
:10AF1000144E154C00280ADD308822682946801A14
:10AF200083B2002004F0DAFF104804F01FFD142162
:10AF30000B48FDF78BF90320287410210B48FDF70F
:10AF400085F9002F0AD0308822680549801A83B21B
:10AF5000002004F0C3FF054804F008FDF8BD000020
:10AF6000B8210020802100207C210020242C0020FA
:10AF70000148406870470000B8210020014800687F
:10AF800070470000B8210020014880687047000029
:10AF9000B821002070B50024064D06E06968E00085
:10AFA000085C012103F096FC641C28788442F5D3E8
:10AFB000002070BD94200020F8B515460C460646CA
:10AFC000052A01D20720F8BD03F050FD002803D167
:10AFD00003F022FD0028F6D1114900204E600C70CC
:10AFE00008618D6048610F4D0DE0E000296880190F
:10AFF000009181786A46517000780B4A694603F0E7
:10B00000B9FC0028DFD12046641EE4B20028ECD150
:10B010000348064A00210C3000F074F9F8BD000026
:10B0200094200020840E0200CDDE010001C9010041
:10B03000BFF34F8F03490248C860BFF34F8FFEE74D
:10B040000400FA0500ED00E038B5002468460470FD
:10B05000FEF795FB6846007800280DD0002002F02E
:10B0600066FD00F0FFF86421002003F0D1F8032012
:10B0700003F0C6F804F0DEFD68460470FEF776FBC8
:10B0800068460078400601D502F01CFD38BD00007E
:10B090001CB505F067F804466846FEF779FB2146C3
:10B0A000684604F081FD0648417AFF2901D2491C17
:10B0B00000E0FF2141720349032003F0A9F81CBD01
:10B0C00050300020DC050000014880787047000007
:10B0D000702100200649002806D00120887005490B
:10B0E0004879401C48717047002088707047000004
:10B0F00070210020503000207CB50024684605F007
:10B1000037F868460079062801D8032407E0142898
:10B1100001D3022403E0C01F022800D801240A4DF5
:10B120002878A0420ED02C700620444328462030B8
:10B130002018E8600178407802F058FDE868001DAA
:10B14000FDF7CEFA7CBD00002422002010B50B4C88
:10B15000E068616980784118A069814206D8606121
:10B1600000F03AF800F00EF8FFF7C6FFA0690449B6
:10B17000401CA061022003F04BF810BD24220020E7
:10B180007017000070B504F0EDFF114D0024AC8085
:10B190006C800646EC802C8110210E48FDF756F895
:10B1A00031460C48FEF745FA0A48A021A038FDF7C1
:10B1B0004DF808486C8100210C302C61FFF738F9FC
:10B1C000FFF782FF002802D002490120487170BDBC
:10B1D0002422002050300020F8B5204DA88869882E
:10B1E000884200D968800026F64300201C4F0446A0
:10B1F0000096E100C9198979002907D0002803D0F9
:10B200000094401C00B20AE02646FAE7002806DD5A
:10B21000022803DB3046009904F054FD0020641C32
:10B2200024B2142CE5DB002803DD3046009904F03D
:10B2300049FD0B49E888A0318A79824203D2FF2870
:10B2400000D3FF2088716888FF2800D3FF20C872D0
:10B2500003490220A03105F045FDF8BD242200205D
:10B26000B02F002010B50D4C2078002814D10120FB
:10B2700020702046183000F0F1FF2046203000F00A
:10B28000EDFF02F011FC012002F016FC04F06AFF51
:10B29000A060E0600020607010BD00007021002000
:10B2A000F8B5164C2078002826D000256846057091
:10B2B0002570284602F000FC20461830418840687E
:10B2C0006A4601F06FF906462046183000F0C6FFC6
:10B2D00068460178A37801223046FFF7F5FD02F0B9
:10B2E000E3FB0020FFF7F6FE6570A58004F08EFCFE
:10B2F0000349032002F08CFFF8BD000070210020FC
:10B30000DC05000070B5114CA568002D06D0002AA0
:10B3100006D0002804D00023247809E0082070BD5E
:10B32000072070BD24265E43AE5D002E04D05B1C5A
:10B33000A342F7DB042070BD242401265C432E5574
:10B3400064196170A2610360002070BDAC20002010
:10B35000FFB59807002481B01E4615460F46002809
:10B360000BD1002E09D004F0F5F922490A98886122
:10B370000F70324600208E6008E0072005B0F0BD57
:10B3800024234343D4549B181C75401CB842F7DB5C
:10B3900024204743BB19032048700F461846CB6052
:10B3A00019461830002218232E465E43D3005B183E
:10B3B0001C705C709D7058603018521C032AF5DBBD
:10B3C0000020C0433861BC70FC7001240A48240589
:10B3D000046003211420FEF7C7FB08480460084CF2
:10B3E0000198A06003211120FEF7BEFB6068786120
:10B3F0000020C3E7AC20002080E200E000E100E094
:10B4000000150140FEB504461D48174682680D46EA
:10B41000002A0CD001788C4201D2052D01D20720E0
:10B42000FEBD214624235943535C012B01D0082043
:10B43000FEBD8818407801281DD0002605F0C4FA0A
:10B44000C0000F490190C9684018694605F0E6FA46
:10B45000002812D0012101700A494460496808306F
:10B46000E2C007490198C96841180098487004F083
:10B47000C1FF0020FEBD2E46E0E70420FEBD000017
:10B48000AC20002000150140F8B5144D0446A86812
:10B49000002809D029788C4201D30720F8BD242147
:10B4A0006143405C012801D00820F8BD05F08CFA0A
:10B4B000C600E8686946301805F0B0FA00280AD0DE
:10B4C000022101704460E86831180098487004F067
:10B4D00091FF0020F8BD0420F8BD0000AC20002042
:10B4E000F3B5184E0025307883B00F46002823D0DE
:10B4F000002005B0F0BD062003996843441820469B
:10B50000FFF754F80190A01CFFF750F80090201DA1
:10B51000FFF74CF802460198009940434943401810
:10B5200052438018C10F0818401004F0FFFC6A0055
:10B5300071686D1C8852EDB2BD42DCD3778001206A
:10B540003070D6E79021002070B5104C207800288C
:10B5500001D0002070BD618860680C4D4900401822
:10B56000083569884A006968FCF757FE6088698871
:10B5700040186080284600F071FE6088402803D99A
:10B5800001202070FFF7F8FB012070BD882100200A
:10B5900070B505460A480C46007800280ED02846AB
:10B5A000FFF79EFF002807D1FFF7CEFF002805D048
:10B5B00021462846FFF794FFFFF7C6FF70BD000045
:10B5C00070210020F8B5364CA079002801D11E204A
:10B5D000A071207A002801D13C202072E079002857
:10B5E00001D1AA20E071A0790A21FCF7AFFD030088
:10B5F000FFF7A1F907050709090B070D0500462507
:10B6000006E05A2504E0642502E05F2500E05525A8
:10B610006679002E05D05F2068436421FCF796FD13
:10B6200085B21F48C479A62C01D3152104E0204619
:10B630008C381A2802D20E21204601E06000152124
:10B64000FCF784FD201AC10F0818C003070C002E58
:10B650000AD05E2C06D9642044431248FF212018EA
:10B66000473108E012200BE0832C08D964204443C2
:10B670000D488D212018FCF77FFD80B200E00F20DF
:10B68000874201D9381A87B20548054C007A083C30
:10B6900020706F4338466421FCF76EFD6070F8BD82
:10B6A000AC21002075DBFFFF03CDFFFF30B5C1B03B
:10B6B000FF21013101A8FCF7C9FD0025684605807E
:10B6C00002F0CAFA104C00281AD06A4601A90120DB
:10B6D00002F07EF86070022807D36A4601A90220B2
:10B6E00002F076F8607002280AD26846018801A844
:10B6F000FEF710FEC821052002F08AFD41B030BDE2
:10B700006421A5700420F7E72022002004490348A3
:10B7100048600449002008607047000002200000D3
:10B72000007500400071004010B500F031F80A20AB
:10B7300003F092F8104C02E00A2003F08DF8206824
:10B740000028F9D0002020600C4880680C4A0121B4
:10B7500051604B2109014843FCF778FE094A0A4B26
:10B76000FCF794FD0022094BFCF7F8FDFCF77CFE8A
:10B770003C3080B210BD00000071004000750040F8
:10B78000007000409A9999999999134000F88F4058
:10B79000044901200860044A00211160034908603F
:10B7A00070470000007500400071004000700040CC
:10B7B00070B50C4692B000216A46117007251171D0
:10B7C000002809D0C17849070CD502A9FFF7CFF8A6
:10B7D000002808D102AE00E00026002C0ED0E07850
:10B7E000002802D0284612B070BD01AA0AA920463E
:10B7F000FFF7BDF80028F6D10AAA00E0002268464B
:10B8000003790178304672DFEDE7000070B50D4630
:10B8100004991646040042D0002E40D0424800222F
:10B820004271C3600161242231464048FCF7F5FCB7
:10B8300000F0B8F83D493431084610380160203135
:10B84000816030215438FCF701FD384821783038C8
:10B850000170A1788170E178C1706178417062698E
:10B86000216942610161E268A168C26081600146AC
:10B87000E369A269CB618A61616A002919D0014636
:10B88000A4310246B03241628A60636A1B880B8031
:10B89000616A436A898899800021436A06E00E2024
:10B8A00070BD666AB668765C5654491C9E888E42A6
:10B8B000F7D8A16A00291CD01C4AAC3211460C39B9
:10B8C0008A608162A36A9B888B80A16A836A0988E7
:10B8D00019800021836A04E0A66AB668765C565433
:10B8E000491C9E888E42F7D82C210A5D0F491039D9
:10B8F0000A73216A002909D00B4914310162226AB6
:10B9000052884A80216A026A098811806168002988
:10B9100004D00549891D416061684160034829469A
:10B920003038FFF745FF70BD282000209425002007
:10B9300010B502881A4C102A17D00021112A17D0EE
:10B94000192A11D1807900280ED1607901281BD0E5
:10B9500002281FD003281FD0042805D12171E268D6
:10B960000846002A00D0904710BD8088208110BD75
:10B970006170808821898842F9D1012005E0216920
:10B980000029F4D0884710BD022000F033F80028C9
:10B99000F5D110BD0320F8E7032020710420F4E75F
:10B9A0002820002010B507210148FCF74FFC10BDEE
:10B9B0004020002010B50D480078012814D10C4C0F
:10B9C0006078002810D16079002802D074DF002848
:10B9D0000BD101206070607900F00CF8002803D0D2
:10B9E0002169002900D08847002010BD942500203F
:10B9F00028200020F0B5754C87B06071002606A89D
:10BA0000069603F05DFD0127082806D000286FD1B7
:10BA10000698002802D02770D4E00696FFF7C2FFF0
:10BA20006B4D6878002802D06079012805D0A8788D
:10BA300000280AD06079022807D1E168002903D0E4
:10BA4000E7700820884700E0E6706079012808D197
:10BA50006878002809D05D48193003F061FC00289F
:10BA600003D06079022802D00CE002206071A8782F
:10BA7000002805D05548193003F052FC002801D1A8
:10BA800003206071287B002804D16079032801D14C
:10BA900004206071287E002804D16079042801D137
:10BAA00066712671E16800290AD06079032801D007
:10BAB000042805D12878002802D06078002818D002
:10BAC000A67018216846FCF7C1FB6846067001960F
:10BAD00006720396607901280FD0022816D03C4EDA
:10BAE00024363746543F03281CD004285ED13BE05F
:10BAF00069E0A77007208847E3E7344818300190D1
:10BB00006846077046820682277152E02F48183037
:10BB100001906846077029894182A9880182022024
:10BB2000207146E0A88A69464882288A0882284807
:10BB3000243005F0CFF8002805D02878002802D05E
:10BB40006078002801D003202FE0022069460872A7
:10BB500004200396F8701E4800213038FFF728FEB5
:10BB6000002830D1052020E0A88B69460882288C67
:10BB700048821748243005F0ADF8002805D0287811
:10BB8000002802D06078002801D004200DE00220B7
:10BB90006946087204200396F8700D480021303879
:10BBA000FFF706FE00280ED10620207160790028DC
:10BBB00003D0684673DF002805D1E168002901D071
:10BBC00020798847002007B0F0BD00002820002021
:10BBD0009425002070B5054601461C220F48FCF74D
:10BBE0001CFB0F4C002626702968002907D008226C
:10BBF000A018FCF712FB204608307ADF02E0084864
:10BC000008307BDF002808D1401E60800448667041
:10BC1000044A0021001DFFF775FB70BD602600205F
:10BC20004820002065090200F8B5224C0288002750
:10BC30001F4DE689102A16D029464968112A21D0BD
:10BC4000122A2DD0502A1CD1801D0288B24218D150
:10BC5000028B022A15D1C27E837E10021843C007D0
:10BC6000C00F0CD112E0818869800146104808227B
:10BC700016311030FCF7D1FA6F70002E01D100F0B0
:10BC80002BFCF8BD0020C04368806F700846FFF7AA
:10BC9000FBFB0028F5D0A1690029F2D08847F8BD48
:10BCA000811D034808221030FCF7B7FAE7E70000CF
:10BCB000482000206026002010B50446FFF7B4FF9E
:10BCC0002146064800F046F8204603F07BF820465F
:10BCD000FFF72EFE204600F0C9F810BD28250020F1
:10BCE00030B51A4B0D4604009A6A596A186A85B035
:10BCF000DB6A03936B4607C325D0002D23D00020B9
:10BD0000C043A08428680021A06226200155214656
:10BD1000684663DF002814D12178684681740C4995
:10BD20000182A21C04A90120A0DF002809D1294614
:10BD3000204604F029FC002803D12946204603F0C0
:10BD40002BFD05B030BD0E20FBE70000300E0200D9
:10BD50004342000010B5002819D0002917D00A88E6
:10BD6000102A15D0112A15D0502A10D1891D0A8801
:10BD7000038A9A4202D10B8B022B0FD083889A42FE
:10BD800005D1836A002B02D00A8B1A31984710BD67
:10BD9000898801E00021C943818410BDCA7E8B7E61
:10BDA00011021943C907C90F2030002903D001210E
:10BDB0008171084602E0002181710846FEF7CAFA47
:10BDC00010BD000007B584B000280ED0828C114B46
:10BDD0009A420CD02622125C002A08D06A46128BA6
:10BDE000142A06D9072007B000BD0E20FBE7082063
:10BDF000F9E70022009201920292039283896A4637
:10BE00001380039106A9029101219170808C6946EB
:10BE1000A6DFE8E7FFFF00007CB5134E00250C46C7
:10BE20003060002918D06946002000F0A9F80028E9
:10BE300019D101A9012000F0A3F8002813D1684608
:10BE400001790020002901D0022004E06946097828
:10BE5000002900D00B2020707068002802D1FEF766
:10BE60002BFE054628467CBD1C20002010B51C4C2E
:10BE70000188606810290DD011290AD1401E606028
:10BE800007D1FEF719FE002803D02168002900D051
:10BE9000884710BD00281ED100210122084600F06D
:10BEA000AFF8002801D0072811D107220221012074
:10BEB00000F0A6F8002801D0072808D104220221AA
:10BEC000002000F09DF8002805D0072803D0216845
:10BED000002900D088476068401C606010BD0000E9
:10BEE0001C200020F8B507460024214802E0641C0D
:10BEF000052C19D2A2008258BA42F8D1052C13D2CF
:10BF00001C4E1D4DB068002925D001290DD00229F5
:10BF10000AD16000201840194578002D04D07168BE
:10BF2000002901D028468847F8BD610062182946DB
:10BF3000AD5C511800914978002906D00D4A0F498F
:10BF4000FFF760FA002800D137700098817809481F
:10BF50000C300155E1E7FFF797FA064861006118D8
:10BF60000C304919005D8D78A842D6D0F8BD00008C
:10BF7000F40D02000820002054250020028000005B
:10BF800005280CD2074A1269074B80001B5C012070
:10BF90009840904300D00120087000207047002096
:10BFA000FAE7000000050050F40D020010B5001F74
:10BFB0000300FEF7C0FC0D0813131413131313131F
:10BFC000191B1D1F13000D481321008876DF08E0A0
:10BFD000002803D000221146FFF72AF810BDFFF712
:10BFE000E9FC0828F4D110BDF02004E00F2002E0A5
:10BFF000AA2000E0552004F0D5FE10BD002000204E
:10C0000070B50023052811D2440004190D4D012AF2
:10C0100002D101290DD0002246008019094E801955
:10C0200000290CD0012906D0022906D00723184682
:10C0300070BD0D30C2B22A55F9E74270F7E7827041
:10C04000F5E70000542500200020704770B50D462C
:10C050000146124B00205A6089070AD500240122AC
:10C0600011462046FFF7CCFF641C052C02D20028A5
:10C07000F5D070BD0028FCD16A0805210848FEF7FC
:10C080009BFF0028F5D1FEF785FF0028F1D103487A
:10C09000044A00210830FFF735F970BD0820002060
:10C0A000080E0200BDC001000A4610B50146024854
:10C0B000FFF788FE10BD00002825002010B500788D
:10C0C0000221FFF70FFF10BD0548002202704178E2
:10C0D000891CC9B24170032900D942707047000021
:10C0E000292100200022D243830004490428CA5099
:10C0F00002D3081840300271704700007C260020EF
:10C10000F0B50025ED43002A02D00023042601E00B
:10C1100004230A260B4C04E09F00E7597F1C04D03F
:10C120005B1CB342F8D32846F0BD26185DB220361A
:10C1300035729E00A151002AF5D1E11840310871F5
:10C14000F1E700007C260020024909182820085643
:10C15000704700007C26002010B5FDF7F7F9132882
:10C1600001D0002010BD012010BD000010B5FDF76A
:10C17000EDF9132808D0FDF7E9F90C2804D003489D
:10C1800000880004000E00D0012010BD40210020D6
:10C1900030B50D4B0120597CDA8A552913D10B4952
:10C1A0004C788D786419CD78641903E0521E5518C7
:10C1B0002D792C19E4B2002AF8D1E1431A7CC9B2D6
:10C1C0008A4200D1002030BD843300206432002038
:10C1D00010B50446FDF7BAF9A04201D1002010BD08
:10C1E000012010BD10B50948417801290DD1817891
:10C1F00000290AD0491E0906090E817005D1FEF7F3
:10C2000067FB002801D004F09BFA10BD60220020DB
:10C2100038B510A000680024009003236A4600216E
:10C22000782001F035FA694608788023401C0870B0
:10C2300000224021782001F044FA641CE4B2042C6E
:10C24000EBD300200449024648700146FEF7DAF8B5
:10C2500038BD0000B0100000EC20002010B50446EE
:10C26000408841006068FBF7F1FF0020207060808B
:10C2700010BD0000FFB507461AA081B0006800900D
:10C28000684600780E46C119684601704078110969
:10C29000411868464170154680782907090F4118F2
:10C2A00068468170002411E003236A46002178204B
:10C2B00001F0EEF9694608780022401C0870402120
:10C2C0007820049B01F0FDF9641CE4B2B442EBD386
:10C2D000002005490246487029463846FEF792F884
:10C2E00005B0F0BDB0100000EC200020FEB5002627
:10C2F0001E250096019601A8029603F039FF03F06F
:10C3000031FF254904460968884204D303F004FF3D
:10C310000020FEF7F9FD2148B1000B181A6810043F
:10C320008446010E6846C77A0120B8400F4686460B
:10C33000074223D0170721D51702E1203F0E000145
:10C34000474317480068120E3F183C204243B81874
:10C3500084420DD302461E32944209D2012000903D
:10C360006046000E000609D470468143597005E00E
:10C37000844203D2001BA84200D20546761CF6B2C6
:10C38000032EC8D30098002804D06846417A007A6A
:10C3900000F01EFCE8B2FEBD00210020603000204D
:10C3A000FC200020F8B5224801694A1C3DD0242217
:10C3B0005143826889184E681E494C684769007964
:10C3C000E11B0D022D0AED1C002814D101201A4A90
:10C3D00000045060184A403A506018494000086014
:10C3E000174908601749012008602F20FBF782FEDB
:10C3F0000F4901200871B54200D23546E819000204
:10C400000C49000A403108600A494968001B091BB1
:10C410000902090A0002C91C000A814204D901204C
:10C420000649400480390860F8BD03F093F9F8BD6F
:10C43000AC200020001501404013014080E200E0E4
:10C4400000E100E000100140F8B50D461178064605
:10C45000881D14461F2801D90C20F8BD33880720F9
:10C46000062BFAD31927FF01BB4202D9164A934281
:10C47000F3D17288062AF0D3BA4202D9124FBA42D7
:10C48000EBD1114FBB4203D0BA4201D09342E4D862
:10C49000481C052220706A5420781222411C217009
:10C4A0002A5420784119308804F09CF921784018EA
:10C4B000C0B220704119708804F094F921784018B6
:10C4C00020700020F8BD0000FFFF000010B5002222
:10C4D0001146FEF7ADFD10BDF8B5164801F00AFE95
:10C4E000144D0026103D144C002807D06169002926
:10C4F0001BD001206A461070684615E02878002895
:10C5000005D06169002910D0684606700CE0687893
:10C5100000280CD0A16800226868FEF773FF00288D
:10C5200003D0A169002900D088472E70F8BD61684A
:10C53000F1E700005820002060260020F3B5002518
:10C5400081B00E46002919D00D4CFF2720682D37E9
:10C55000B84213D2002801D101F08EFA20463C30B7
:10C560000AE02168B94205D2019A525D0A54216855
:10C57000491C21606D1CADB2B542F2D3FEBD000076
:10C58000BC290020044900204882FF392139087065
:10C590008870C870704700008433002010B503F025
:10C5A000EBFA10BDF7B5FFB000209FB00C900190E2
:10C5B000029003900990044607900890049005901B
:10C5C0000690C0210DA8FBF741FEC0213DA8FBF756
:10C5D0003DFEC0216DA8FBF739FE9F980DAD4700C9
:10C5E00039462846FBF732FE0A232A469F999E9831
:10C5F000FCF7EAFC3DAD39462846FBF727FE2A4604
:10C600009E999F9800F050F96DAE39463046FBF781
:10C610001DFE33462A4600219F9803F08BFB0DA890
:10C62000019025A802903DA8079055A808909F99D1
:10C630000198FBF70BFE9F990298FBF707FE9F9965
:10C640000798FBF703FE9F990898FBF7FFFD6846E4
:10C65000848101A80090334600229F999E98FCF7A0
:10C66000F2FC68468089002822D06846848407A8A6
:10C670000090334600229F999E98FCF71BFD684668
:10C68000808C002814D06DA804906030059004AA16
:10C6900007A901A802F0CEFC04A802F019FC684624
:10C6A000008B012804D904A8A09902F033FD0C9056
:10C6B0000C987FB022B0F0BDF3B59BB00D46724927
:10C6C0000968481C05AA012102F00EFF6E4909689D
:10C6D000481C05AA012102F007FF6B4904AA08685B
:10C6E000012102F001FF6846007C002801D11020E2
:10C6F00004906846007D002809D1002403E0002151
:10C700001B980155641C202CF9D31DB0F0BD5E4967
:10C710000968081D08AA042102F0E6FE08A9C878E5
:10C72000002101221991179218911A900A46179B1D
:10C73000FBF736FD08A989780904421808A948784A
:10C74000000212180878101801904F49096808462D
:10C75000083008AA042102F0C7FE08A9C878002101
:10C76000012215911392149116900A46139BFBF720
:10C7700017FD08A989780904421808A94878000219
:10C780001218087816180296029E3F490968084652
:10C790000C3008AA042102F0A7FE08A9C8780021DD
:10C7A000012211910F92109112900A460F9BFBF7F4
:10C7B000F7FC08A989780904411808A84078000204
:10C7C000091808A800780F180297029F2846E91751
:10C7D000090F0918091109910999890089192A4A2B
:10C7E0001268881807AA042102F07EFE6846C07FFE
:10C7F000002101220D910B920C910E900A460B9B89
:10C80000FBF7CEFC6946897F090442186946487FD8
:10C81000000211186846007F08180A90099908015B
:10C82000C01919490968401803902846E917090FEB
:10C830000918091109016C1A0DE003994A1C0846F0
:10C84000039206AA012102F04FFE6946097E0A986A
:10C8500040180A90641E002CEFD16846007E002824
:10C860000AD100BF03E000211B980155641C6846F3
:10C87000007D8442F7D305E06846027C0A991B9844
:10C8800003F0B6FF00BF40E7702200207D22D200F7
:10C8900004E00021491C89B29142FBD30146401EAD
:10C8A00080B20029F5D1704770B50023022823D942
:10C8B0004B880C881B1B138044006318203BDD8BC6
:10C8C0009B8BA418EB1A203CE3830123801E0BE012
:10C8D0005D006C186688203CE48B341BE60F34192D
:10C8E00064105B1C54539BB28342F1DB70BD5C004F
:10C8F0000D5B5B1C15539BB28342F8D370BD0000E7
:10C90000F8B500260124154D24E06968F0004718A9
:10C910003878214681406A690B46134218D08A4311
:10C920006A6102F06FF83A7821462B69914019400C
:10C930000346934099420BD17978012901D0012116
:10C9400000E000217B684140002B01D01046984751
:10C95000761CF6B228788642D7D3F8BD9420002002
:10C9600010B500F065FEFDF7ABF8FEF7CFFEFEF761
:10C97000F3F803F087FCFCF7FFFAFDF789FF01F0FD
:10C980002FF9FCF7D9FA00F075FEFCF75BFE10BD3D
:10C9900010B5034802F088F802494020886010BDB5
:10C9A000880E02000005005030B5044600221046F3
:10C9B0002BE0A35C1D46203D5F2D17D9012B15D020
:10C9C000813B7D2B1BD8022921D3A3185B781D4600
:10C9D000403DBE2D0FD9303B092B0CD8042916D36E
:10C9E000121DD2B2091FC9B210300DE0521C491EEF
:10C9F000D2B2C9B207E0921CD2B2891EF3E7491E37
:10CA0000521CC9B2D2B20830C0B20029D1D130BD57
:10CA100070B50546FFF7A0FB002809D1094C002D91
:10CA200007D0012001F078FC3220607005202070D2
:10CA300070BDFCF78BFD0528FAD10020207001F0B5
:10CA40006BFC70BD40210020F8B50E4617A10968A7
:10CA500000916946097800240818694608704878EA
:10CA6000110940186946487088781107090F401865
:10CA700069461F462546887014E00A4603230021B4
:10CA8000782000F005FE06983B46421940217820A8
:10CA900000F0FEFDE81985B269460878401C641C68
:10CAA0000870E4B2B442E8D3F8BD0000B010000052
:10CAB000F3B5002491B0C7B22646FFF74DFB00281E
:10CAC00025D102900390202104A8FBF7BFFB129808
:10CAD0003E4D00281DD002286DD06869FBF7C1FBD0
:10CAE000024604A86969FBF798FB6869FBF7B9FB84
:10CAF000C4B2012001F010FC002211460120FDF714
:10CB000081FC00231A46214604A800F091F913B0D5
:10CB1000F0BD802F0DD97F1EF843C7B22B480126E8
:10CB20001C30016803460A0E123B9F5432068918D6
:10CB300001600A213846FBF709FB02AA1155641C63
:10CB40000746E4B20028F4D104E0115C30311154FE
:10CB5000401C80B2A042F8D3002063080AE0175CB2
:10CB6000211A8918BC462039CF7F17546746401CCC
:10CB7000CF7780B28342F2D82869FBF772FB024676
:10CB800004A82969FBF749FB04AF002E04D02869EB
:10CB9000FBF767FB2D2139542869FBF762FBC019AD
:10CBA000801C224602A9FBF738FB2869FBF759FBDA
:10CBB0000019801C9CE7A869FBF753FB024604A8F8
:10CBC000A969FBF72AFBA86990E70000242100204F
:10CBD000FEB50E460446FFF7BFFA002838D1FFF72E
:10CBE00017FB012001F098FB1C4800220090202335
:10CBF00004211046FFF728FF002228210120FDF71D
:10CC000001FC0A212046FBF7A1FA04073A206A46F4
:10CC10000D469071240F0A213046FBF797FA03075F
:10CC2000084630346A462946147130311B0F517161
:10CC30003033D3713030107200231A46052101A819
:10CC400000F0F6F8064901204870064918200870DF
:10CC500000210120FCF708FFFEBD00001C0F0200B0
:10CC6000EC2000204021002010B50A4948688201CC
:10CC7000920F012A06D00022802304211046FFF7DC
:10CC8000F9FA10BD0322120690434860FFF7C0FA7C
:10CC900010BD00004021002004480178132903D171
:10CCA00000210170052141707047000040210020E3
:10CCB000FFB585B014460D460646FFF74DFA00282D
:10CCC0007ED10A213046FBF741FA0A46014630324E
:10CCD0006846C27108460A21FBF738FA0A4601463F
:10CCE00030326846827108460A21FBF72FFA024665
:10CCF00030316846417110460A21FBF727FA30317E
:10CD000068462D26017130270672092D07D90A21A0
:10CD10002846FBF71BFA30306946487200E047723C
:10CD20000A212846FBF712FA303168468172C67232
:10CD3000092C07D90A212046FBF708FA303069464A
:10CD4000087300E007730A212046FBF7FFF9303132
:10CD5000684641732B48002200900A2420230421B6
:10CD60001046FFF771FE002220211046FDF74AFB16
:10CD700000231A46214601A800F05AF80A210E980D
:10CD8000FBF7E4F90207120F3032684602713031C6
:10CD900041713A2484710A210F98FBF7D7F90207F1
:10CDA000120F30326846C2713031017244720A216A
:10CDB0001098FBF7CBF90207120F3032684600E0FB
:10CDC0001EE082723031C172002220210220FDF764
:10CDD00019FB00231A46082101A800F029F80022B7
:10CDE00060210220FDF70EFB0898074C8500605972
:10CDF000FBF737FA0146002360591A4600F018F88D
:10CE000009B0F0BDEC1302004821002010B507491D
:10CE10000A79012A08D94879521E904204DA401C46
:10CE2000C0B2487100F0F2F810BD0000BC2900202B
:10CE3000FFB58BB00E460025202101A8FBF706FAAE
:10CE40000127002002F0DEFD474C81E00B98405D99
:10CE5000014620395F292CD901282AD061397D2942
:10CE60006AD80027022E77D30B9840190990407892
:10CE700001464039BE2936D820781030C0B280280B
:10CE800001D9FFF721F901A80090099820234178E2
:10CE900002780802104341BA0022104601F046F819
:10CEA0002178607801AA00F061F8207810302070B5
:10CEB0003EE0207800270830C0B2802801D9FFF773
:10CEC00003F90B9801AA405D0321FBF7AAFB217827
:10CED000607801AA00F072F86D1C2078761E083088
:10CEE000EDB2207034E03038092821D8042E33D335
:10CEF00020781030C0B2802801D9FFF7E5F801A8EA
:10CF0000009009982023417802780802104342BA21
:10CF100041BA002001F00AF82178607801AA00F0F7
:10CF200025F820782D1D10302070EDB2361F0FE04F
:10CF3000AD1CEDB2B61E0BE00A2806D1002F02D1BF
:10CF4000207800280DD0FFF7BFF8761E6D1CEDB2DB
:10CF5000002E01D07AE7FFE7012002F053FD0FB069
:10CF6000F0BD0127F1E700002921002038B5B030DD
:10CF70006B4618700809103058700807000F987039
:10CF8000144603236A460021782000F081FB102319
:10CF900022464021782000F07BFB6B4618786A46D9
:10CFA000401C187003230021782000F071FB10232F
:10CFB000E2184021782000F06BFB38BD38B5B03066
:10CFC0006B4618700809103058700807000F9870E9
:10CFD000144603236A460021782000F059FB0823F9
:10CFE00022464021782000F053FB6B4618786A46B1
:10CFF000401C187003230021782000F049FB08230F
:10D00000E2184021782000F043FB38BD70B51C4E7B
:10D0100005463079B2B0002830D0A8422ED9284633
:10D02000002406E0401EC0B24100411889198979E8
:10D030000C190028F6D1012001F06EF968002818BB
:10D040008519AA79FF202D306B46824200D902460D
:10D05000844208D8A118814200D9021B31193C3101
:10D060001846FBF7DAF8FFF7FFFD0023A9791A4607
:10D070006846FFF7DDFE1320FDF7D4F932B070BD2E
:10D08000BC290020F0B506468FB06BA000906BA0C5
:10D090000D906BA00C9000200446022E04D0032EAD
:10D0A00005D0042E06D10FE0FDF76EFF01E0FDF77D
:10D0B00065FF80B209AD0A21FBF748F82955641CC9
:10D0C000E4B20028F7D107E0FDF752FFF1E7295C51
:10D0D00030312954401CC0B2A042F8D3002062086D
:10D0E00008E0211A491920392B5CCF7F2F54401CAE
:10D0F000CB77C0B28242F4D830461027514E01ADF2
:10D1000002281BD0032847D0042874D1224609A93D
:10D110002846FBF782F80C98FBF7A3F8024628197B
:10D120000C99FBF77AF8A01DC0B2102864D2381A07
:10D13000C10F08184010C006050E5EE0224609A97E
:10D140002846FBF76AF80098291902780A70407897
:10D150004870A01DC0B2102806D2381AC10F081896
:10D160004010C006050E00E00025002229461046AA
:10D17000FDF748F93278344800902023042100203C
:10D18000FFF762FC2035E9B200220120FDF73AF9F1
:10D1900000231A46A11C4AE0224609A92846FBF7AB
:10D1A0003CF80D98FBF75DF82B19024618460D99CF
:10D1B000FBF733F8A01DC0B2102806D2381AC10FF1
:10D1C00008184010C006050E00E000250022294680
:10D1D0001046FDF717F932781C48009020230421EF
:10D1E0000020FFF731FC2035E9B200220120FDF7D5
:10D1F00009F90D9816E01DE0002500222946104689
:10D20000FDF700F91148327880380090202304217E
:10D210000020FFF719FC2035E9B200220120FDF7BC
:10D22000F1F80C98FBF71DF8011900231A4601A824
:10D23000FFF7FEFD0FB0F0BDB2BD0000C3D7000088
:10D24000BFA80000292100209C0F0200BC10020092
:10D2500010B506490879012807D94879002804D073
:10D26000401EC0B24871FFF7D1FE10BDBC2900209E
:10D2700010B50E4900238A78CC78A24212D0521CF5
:10D28000D2B28A70022A00D18B708A78074B920042
:10D290001C339A580260486910180002000A48615D
:10D2A000012010BD0360002010BD0000AC20002054
:10D2B000F8B5314D010028781FD000F053FD02462B
:10D2C000287800F019FD04001AD0002A18D06878D8
:10D2D0000026002815D0A87861694700EB78CA5B62
:10D2E00001209840024390B2C8532449AA7888424A
:10D2F0000FD0E8780F280CD02FE0002102F08CFB33
:10D30000F8BD104602F010F92878002102F084FBE5
:10D310002DE0287800F0F0FC00280ED0017E91422C
:10D320000BD940681103401801218903144A411A9E
:10D33000914202D2012102F08BFAA97820694900BA
:10D340004652A978606949004652207B401CC0B211
:10D350002073217E884200D32673207A002808D0CB
:10D36000401E0006000E207203D0012020702E7097
:10D37000F8BD2670FBE70000CC210020FFFF000075
:10D3800001D0010007480179012909D1002101716B
:10D39000BFF34F8F05490448C860BFF34F8FFEE7C6
:10D3A00070470000602200200400FA0500ED00E054
:10D3B00010B507480178012909D14178002906D024
:10D3C000491E0906090E417001D103F049F910BD4B
:10D3D0000E210020F7B517460E46FBF7C7FF0120C8
:10D3E000084C4007A0600512E56001216846FDF782
:10D3F00055F839463046FDF731F8A560FBF7B7FF21
:10D40000FEBD000000050050F7B517460E46FBF7BD
:10D41000ADFF0120084C4007A0600512E560012126
:10D420006846FDF73BF839463046FDF737F8A5600A
:10D43000FBF79DFFFEBD0000000500500A4610B539
:10D440000146002000F098F810BD0000F8B500205B
:10D450000090FBF78BFF01267605094C3502A6608C
:10D46000E5600520FDF742F801216846FCF7F6FF6C
:10D47000A56068460078C007F1D1FBF778FFF8BDDA
:10D480000005005070B50120054C4005A060050264
:10D49000E5600620FDF72AF8A560FFF7D7FF70BD0D
:10D4A0000005005038B5FBF761FFFFF7EBFF0120E7
:10D4B000084C4005A0600502E560602069460870E0
:10D4C00001216846FCF7EAFFA560FFF7BFFFFBF705
:10D4D0004EFF38BD0005005010B5FBF749FF012095
:10D4E00001F0BAF9FFF7B2FF10BD0000F7B582B046
:10D4F00017460446FBF73AFFFFF7A8FFFFF7C2FF06
:10D5000001200C4D4005A8600602EE60022168462D
:10D510000170210C4170210A8170C4700421FCF754
:10D52000BDFF39460398FCF7B9FFAE60FBF71FFF5C
:10D5300005B0F0BD00050050F8B50446FBF716FF36
:10D54000FFF7A0FF01200B4D4005A8600602EE602A
:10D55000202168460170210C4170210A8170C4703D
:10D560000421FCF79BFFAE60FFF770FFFBF7FFFEA7
:10D57000F8BD000000050050F7B582B0174604461C
:10D58000FBF7F4FEFFF762FF01200C4D4005A86099
:10D590000602EE60032168460170210C4170210AE9
:10D5A0008170C4700421FCF779FF39460398FCF7B9
:10D5B00055FFAE60FBF7DBFE05B0F0BD0005005087
:10D5C000F8B50125154C6D070E460746A560FBF71B
:10D5D000CDFEFFF73BFF0020FFF7AEFFFFF752FF46
:10D5E0002812A060E56002216846017000214170A8
:10D5F0008170C1700421FCF751FFAA2168460170B7
:10D600005521417086700321FCF748FF31463846AA
:10D61000FCF744FFA560FBF7AAFEF8BD000500502B
:10D6200010B50248007801F051FB10BD2021002008
:10D630000EB50D4A6B4607CA07C30C49684601F090
:10D640005FFB002803D000221146FDF7F1FC0848DB
:10D6500001F0E4FA002803D000221146FDF7E8FCAF
:10D6600001F03EFB0EBD0000900E0200D30C020044
:10D6700020210020054881690322D20311438161E2
:10D680000121C90381604900816070470005005095
:10D69000F8B507460C4616461D46FBF797FF384679
:10D6A000FBF76AFF2046FBF767FF002404E0305DCC
:10D6B000FBF762FF641CE4B2AC42F8D3FBF79AFFBD
:10D6C000F8BDF8B507460C4616461D46FBF77EFF2B
:10D6D0003846FBF751FF2046FBF74EFF002404E0DD
:10D6E0003046FBF749FF641CE4B2AC42F8D3FBF7C9
:10D6F00081FFF8BDF7B5144C0025A76823691EE02B
:10D7000024215943C9194E68864202D9301A48600B
:10D7100017E0801B751900264E600E750E699C4639
:10D720000B6AB646002E0AD0019E76193602360ADA
:10D730008E607646CE6016680E6261461160591C96
:10D74000DED12361FEBD0000AC20002070B50125B4
:10D75000AD031E240120FDF7D7FBFBF75DFF21463B
:10D76000284602F075F8054801F0DEFE034808304F
:10D7700001F0DAFE00F08AF870BD0000D821002028
:10D78000FFB5099E00F0B8FA002818D014E001692E
:10D790005C000D5B002D0DD0002101228A402F4638
:10D7A000174203D047693F5B17420AD0491CC9B2F0
:10D7B0001029F2D35B1CDBB2B342E8D3002004B0E3
:10D7C000F0BD037301980370029801700120F6E721
:10D7D000F7B582B01646029800F0C4FA074600205A
:10D7E000294C30802070029800F086FA050018D08D
:10D7F000002F16D02878002803D13868C079002877
:10D800000FD002982070287800280DD0287E009034
:10D810002B7BE21CA11C0298FFF7B2FF002816D058
:10D820001DE0022005B0F0BDFF22013239680398E7
:10D83000FAF7F3FC0020607038680121C07900011C
:10D8400010303080029802F0E7F80020EAE7287BE9
:10D8500000900023E21CA11C0298FFF791FFA07822
:10D86000E1780003090240186968FF22401801327C
:10D87000039901F0CDFE012060700398C07900018A
:10D88000103030800120CDE7CC21002010B50120E0
:10D8900000F004F8022000F001F810BDF0B5CBB0A4
:10D8A00000255FA1009509680A9100F025FA04009F
:10D8B00075D020690490207E666941000498FAF7CB
:10D8C000C5FC207E41003046FAF7C0FC00206073A2
:10D8D00020735BE061680003081808900020059041
:10D8E00006460BAF0790089831020818FF22013254
:10D8F0000BA901F08DFE384604224A49FAF7B8FC1C
:10D90000002807D0384604220AA9FAF7B1FC0028FB
:10D910000DD010E0049801880120B0400143049824
:10D920006D1C01800598401CC0B2059003E007986B
:10D93000401CC0B20790761CB6B2102ED3D3049808
:10D940000288002A06D0002001210B4683401A429B
:10D9500006D010E00798102808D305982D1A0EE07D
:10D96000431C0E469E401346334204D001210898C2
:10D9700001F06EFFF1E7401C80B20F28E5D3049858
:10D98000801C04900098401C80B20090227E009879
:10D9900082429FD82572002D02DC002007E029E09A
:10D9A0001006000DA84201D1022000E001202070E5
:10D9B0000020034621690AE045004D5B002D02D09E
:10D9C0000123607301E0012B03D0401C80B282422E
:10D9D000F2D8607B144D4300CB5AAB4201D1401CBE
:10D9E0006073C0B2904201D30020607300200346F0
:10D9F000002A08D84BB0F0BD002B04D045004D5B89
:10DA0000002D08D106E045004D5B002D03D0012319
:10DA1000207300E00023401C80B28242ECD8E9E78A
:10DA2000FFFFFFFFC5140200FFFF000070B50026D6
:10DA30000546012801D0022D1AD100F093F90168A2
:10DA40000446C879002814D01A2008702B2048708A
:10DA50003C2088704D20C870206801214171284603
:10DA600001F070FD0646204601F05EFD002E01D05B
:10DA7000304670BD012070BD10B5094800214171CC
:10DA800001710160074A801D117051703621FAF74B
:10DA9000DDFB0348FF212D313C30FAF7D7FB10BDE9
:10DAA000BC2900206521002010B50020FBF716FEE0
:10DAB0000120FBF713FE10BD10B501460420FBF753
:10DAC000B3FE10BDF0B5B1B0002168460170C021B1
:10DAD00001A8FAF7BBFB6846FBF748FE68460078EA
